{
  "address": "0x71C95911E9a5D330f4D621842EC243EE1343292e",
  "abi": [
    {
      "inputs": [
        {
          "internalType": "address",
          "name": "priceFeedAdd",
          "type": "address"
        }
      ],
      "stateMutability": "nonpayable",
      "type": "constructor"
    },
    {
      "anonymous": false,
      "inputs": [
        {
          "indexed": true,
          "internalType": "address",
          "name": "owner",
          "type": "address"
        },
        {
          "indexed": true,
          "internalType": "address",
          "name": "spender",
          "type": "address"
        },
        {
          "indexed": false,
          "internalType": "uint256",
          "name": "value",
          "type": "uint256"
        }
      ],
      "name": "Approval",
      "type": "event"
    },
    {
      "anonymous": false,
      "inputs": [
        {
          "indexed": false,
          "internalType": "uint8",
          "name": "version",
          "type": "uint8"
        }
      ],
      "name": "Initialized",
      "type": "event"
    },
    {
      "anonymous": false,
      "inputs": [
        {
          "indexed": true,
          "internalType": "address",
          "name": "from",
          "type": "address"
        },
        {
          "indexed": true,
          "internalType": "address",
          "name": "to",
          "type": "address"
        },
        {
          "indexed": false,
          "internalType": "uint256",
          "name": "value",
          "type": "uint256"
        }
      ],
      "name": "Transfer",
      "type": "event"
    },
    {
      "inputs": [
        {
          "internalType": "address",
          "name": "owner",
          "type": "address"
        },
        {
          "internalType": "address",
          "name": "spender",
          "type": "address"
        }
      ],
      "name": "allowance",
      "outputs": [
        {
          "internalType": "uint256",
          "name": "",
          "type": "uint256"
        }
      ],
      "stateMutability": "view",
      "type": "function"
    },
    {
      "inputs": [
        {
          "internalType": "address",
          "name": "spender",
          "type": "address"
        },
        {
          "internalType": "uint256",
          "name": "amount",
          "type": "uint256"
        }
      ],
      "name": "approve",
      "outputs": [
        {
          "internalType": "bool",
          "name": "",
          "type": "bool"
        }
      ],
      "stateMutability": "nonpayable",
      "type": "function"
    },
    {
      "inputs": [
        {
          "internalType": "address",
          "name": "account",
          "type": "address"
        }
      ],
      "name": "balanceOf",
      "outputs": [
        {
          "internalType": "uint256",
          "name": "",
          "type": "uint256"
        }
      ],
      "stateMutability": "view",
      "type": "function"
    },
    {
      "inputs": [
        {
          "internalType": "uint256",
          "name": "amount",
          "type": "uint256"
        }
      ],
      "name": "burn",
      "outputs": [],
      "stateMutability": "nonpayable",
      "type": "function"
    },
    {
      "inputs": [
        {
          "internalType": "address",
          "name": "account",
          "type": "address"
        },
        {
          "internalType": "uint256",
          "name": "amount",
          "type": "uint256"
        }
      ],
      "name": "burnFrom",
      "outputs": [],
      "stateMutability": "nonpayable",
      "type": "function"
    },
    {
      "inputs": [],
      "name": "burned",
      "outputs": [
        {
          "internalType": "uint256",
          "name": "",
          "type": "uint256"
        }
      ],
      "stateMutability": "view",
      "type": "function"
    },
    {
      "inputs": [],
      "name": "decimals",
      "outputs": [
        {
          "internalType": "uint8",
          "name": "",
          "type": "uint8"
        }
      ],
      "stateMutability": "view",
      "type": "function"
    },
    {
      "inputs": [
        {
          "internalType": "address",
          "name": "spender",
          "type": "address"
        },
        {
          "internalType": "uint256",
          "name": "subtractedValue",
          "type": "uint256"
        }
      ],
      "name": "decreaseAllowance",
      "outputs": [
        {
          "internalType": "bool",
          "name": "",
          "type": "bool"
        }
      ],
      "stateMutability": "nonpayable",
      "type": "function"
    },
    {
      "inputs": [],
      "name": "destroy",
      "outputs": [],
      "stateMutability": "nonpayable",
      "type": "function"
    },
    {
      "inputs": [],
      "name": "getCap",
      "outputs": [
        {
          "internalType": "uint256",
          "name": "",
          "type": "uint256"
        }
      ],
      "stateMutability": "pure",
      "type": "function"
    },
    {
      "inputs": [
        {
          "internalType": "address",
          "name": "spender",
          "type": "address"
        },
        {
          "internalType": "uint256",
          "name": "addedValue",
          "type": "uint256"
        }
      ],
      "name": "increaseAllowance",
      "outputs": [
        {
          "internalType": "bool",
          "name": "",
          "type": "bool"
        }
      ],
      "stateMutability": "nonpayable",
      "type": "function"
    },
    {
      "inputs": [],
      "name": "initialize",
      "outputs": [],
      "stateMutability": "nonpayable",
      "type": "function"
    },
    {
      "inputs": [
        {
          "internalType": "address",
          "name": "account",
          "type": "address"
        },
        {
          "internalType": "uint256",
          "name": "amount",
          "type": "uint256"
        }
      ],
      "name": "mintBurn",
      "outputs": [],
      "stateMutability": "nonpayable",
      "type": "function"
    },
    {
      "inputs": [
        {
          "internalType": "address",
          "name": "account",
          "type": "address"
        },
        {
          "internalType": "uint256",
          "name": "_amount",
          "type": "uint256"
        },
        {
          "internalType": "bytes",
          "name": "typeMining",
          "type": "bytes"
        }
      ],
      "name": "mintDirectly",
      "outputs": [],
      "stateMutability": "nonpayable",
      "type": "function"
    },
    {
      "inputs": [],
      "name": "mintFromMatic",
      "outputs": [],
      "stateMutability": "payable",
      "type": "function"
    },
    {
      "inputs": [],
      "name": "name",
      "outputs": [
        {
          "internalType": "string",
          "name": "",
          "type": "string"
        }
      ],
      "stateMutability": "view",
      "type": "function"
    },
    {
      "inputs": [],
      "name": "owner",
      "outputs": [
        {
          "internalType": "address payable",
          "name": "",
          "type": "address"
        }
      ],
      "stateMutability": "view",
      "type": "function"
    },
    {
      "inputs": [],
      "name": "symbol",
      "outputs": [
        {
          "internalType": "string",
          "name": "",
          "type": "string"
        }
      ],
      "stateMutability": "view",
      "type": "function"
    },
    {
      "inputs": [],
      "name": "totalSupply",
      "outputs": [
        {
          "internalType": "uint256",
          "name": "",
          "type": "uint256"
        }
      ],
      "stateMutability": "view",
      "type": "function"
    },
    {
      "inputs": [
        {
          "internalType": "address",
          "name": "to",
          "type": "address"
        },
        {
          "internalType": "uint256",
          "name": "amount",
          "type": "uint256"
        }
      ],
      "name": "transfer",
      "outputs": [
        {
          "internalType": "bool",
          "name": "",
          "type": "bool"
        }
      ],
      "stateMutability": "nonpayable",
      "type": "function"
    },
    {
      "inputs": [
        {
          "internalType": "address",
          "name": "from",
          "type": "address"
        },
        {
          "internalType": "address",
          "name": "to",
          "type": "address"
        },
        {
          "internalType": "uint256",
          "name": "amount",
          "type": "uint256"
        }
      ],
      "name": "transferFrom",
      "outputs": [
        {
          "internalType": "bool",
          "name": "",
          "type": "bool"
        }
      ],
      "stateMutability": "nonpayable",
      "type": "function"
    }
  ],
  "transactionHash": "0xebfab86ca09530f5d9670b484a9cc44d115865415e6f6b40685104701c3f75f4",
  "args": [
    "0x8464135c8F25Da09e49BC8782676a84730C318bC"
  ],
  "numDeployments": 1,
  "solcInputHash": "5d355abcbc3cc8b74667580a093e9da9",
  "bytecode": "0x60c0604052633b9aca0060a09081525060006097556040518060600160405280607d60ff168152602001606460ff168152602001603260ff16815250609a9060036200004d92919062000495565b503480156200005b57600080fd5b5060405162003de038038062003de08339818101604052810190620000819190620005bf565b3373ffffffffffffffffffffffffffffffffffffffff1660808173ffffffffffffffffffffffffffffffffffffffff16815250506304c4b4006098604051620000ca906200064c565b9081526020016040518091039020819055506324f473006098604051620000f190620006b3565b9081526020016040518091039020819055506309896800609860405162000118906200071a565b9081526020016040518091039020819055506308583b0060986040516200013f9062000781565b9081526020016040518091039020819055506309896800609960405162000166906200064c565b908152602001604051809103902081905550600060996040516200018a90620006b3565b90815260200160405180910390208190555060006099604051620001ae906200071a565b90815260200160405180910390208190555060006099604051620001d29062000781565b90815260200160405180910390208190555080609b60006101000a81548173ffffffffffffffffffffffffffffffffffffffff021916908373ffffffffffffffffffffffffffffffffffffffff1602179055506200023d6080516301312d006200024460201b60201c565b5062000b64565b62000254620002ff60201b60201c565b816200026a6200030960201b620005981760201c565b620002769190620007d1565b1115620002ba576040517f08c379a0000000000000000000000000000000000000000000000000000000008152600401620002b1906200088f565b60405180910390fd5b620002fb82620002cf6200031360201b60201c565b600a620002dd919062000a12565b83620002ea919062000a63565b6200031c60201b62000ed61760201c565b5050565b600060a051905090565b6000603554905090565b60006012905090565b600073ffffffffffffffffffffffffffffffffffffffff168273ffffffffffffffffffffffffffffffffffffffff1614156200038f576040517f08c379a0000000000000000000000000000000000000000000000000000000008152600401620003869062000b14565b60405180910390fd5b620003a3600083836200048b60201b60201c565b8060356000828254620003b79190620007d1565b9250508190555080603360008473ffffffffffffffffffffffffffffffffffffffff1673ffffffffffffffffffffffffffffffffffffffff168152602001908152602001600020600082825401925050819055508173ffffffffffffffffffffffffffffffffffffffff16600073ffffffffffffffffffffffffffffffffffffffff167fddf252ad1be2c89b69c2b068fc378daa952ba7f163c4a11628f55a4df523b3ef836040516200046b919062000b47565b60405180910390a362000487600083836200049060201b60201c565b5050565b505050565b505050565b826003601f01602090048101928215620005235791602002820160005b83821115620004f257835183826101000a81548160ff021916908360ff1602179055509260200192600101602081600001049283019260010302620004b2565b8015620005215782816101000a81549060ff0219169055600101602081600001049283019260010302620004f2565b505b50905062000532919062000536565b5090565b5b808211156200055157600081600090555060010162000537565b5090565b600080fd5b600073ffffffffffffffffffffffffffffffffffffffff82169050919050565b600062000587826200055a565b9050919050565b62000599816200057a565b8114620005a557600080fd5b50565b600081519050620005b9816200058e565b92915050565b600060208284031215620005d857620005d762000555565b5b6000620005e884828501620005a8565b91505092915050565b600081905092915050565b7f666f6e646174696f6e4665650000000000000000000000000000000000000000600082015250565b600062000634600c83620005f1565b91506200064182620005fc565b600c82019050919050565b6000620006598262000625565b9150819050919050565b7f65636f73797374656d0000000000000000000000000000000000000000000000600082015250565b60006200069b600983620005f1565b9150620006a88262000663565b600982019050919050565b6000620006c0826200068c565b9150819050919050565b7f6d61726b6574696e674f696e76657374696d656e740000000000000000000000600082015250565b600062000702601583620005f1565b91506200070f82620006ca565b601582019050919050565b60006200072782620006f3565b9150819050919050565b7f646576656c6f70696e6700000000000000000000000000000000000000000000600082015250565b600062000769600a83620005f1565b9150620007768262000731565b600a82019050919050565b60006200078e826200075a565b9150819050919050565b6000819050919050565b7f4e487b7100000000000000000000000000000000000000000000000000000000600052601160045260246000fd5b6000620007de8262000798565b9150620007eb8362000798565b9250827fffffffffffffffffffffffffffffffffffffffffffffffffffffffffffffffff03821115620008235762000822620007a2565b5b828201905092915050565b600082825260208201905092915050565b7f45524332304361707065643a2063617020657863656564656400000000000000600082015250565b6000620008776019836200082e565b915062000884826200083f565b602082019050919050565b60006020820190508181036000830152620008aa8162000868565b9050919050565b60008160011c9050919050565b6000808291508390505b60018511156200091057808604811115620008e857620008e7620007a2565b5b6001851615620008f85780820291505b80810290506200090885620008b1565b9450620008c8565b94509492505050565b6000826200092b5760019050620009fe565b816200093b5760009050620009fe565b81600181146200095457600281146200095f5762000995565b6001915050620009fe565b60ff841115620009745762000973620007a2565b5b8360020a9150848211156200098e576200098d620007a2565b5b50620009fe565b5060208310610133831016604e8410600b8410161715620009cf5782820a905083811115620009c957620009c8620007a2565b5b620009fe565b620009de8484846001620008be565b92509050818404811115620009f857620009f7620007a2565b5b81810290505b9392505050565b600060ff82169050919050565b600062000a1f8262000798565b915062000a2c8362000a05565b925062000a5b7fffffffffffffffffffffffffffffffffffffffffffffffffffffffffffffffff848462000919565b905092915050565b600062000a708262000798565b915062000a7d8362000798565b9250817fffffffffffffffffffffffffffffffffffffffffffffffffffffffffffffffff048311821515161562000ab95762000ab8620007a2565b5b828202905092915050565b7f45524332303a206d696e7420746f20746865207a65726f206164647265737300600082015250565b600062000afc601f836200082e565b915062000b098262000ac4565b602082019050919050565b6000602082019050818103600083015262000b2f8162000aed565b9050919050565b62000b418162000798565b82525050565b600060208201905062000b5e600083018462000b36565b92915050565b60805160a05161323362000bad600039600061078c01526000818161082101528181610ac801528181610b5601528181610b8f01528181610c45015261160401526132336000f3fe60806040526004361061012a5760003560e01c806373f42561116100ab5780638da5cb5b1161006f5780638da5cb5b146103ad57806395d89b41146103d85780639bf8a0c414610403578063a457c2d71461042c578063a9059cbb14610469578063dd62ed3e146104a65761012a565b806373f425611461030257806379cc67901461032d5780637d4387a6146103565780638129fc1c1461037f57806383197ef0146103965761012a565b8063313ce567116100f2578063313ce56714610209578063395093511461023457806342966c6814610271578063554d578d1461029a57806370a08231146102c55761012a565b806306fdde031461012f578063095ea7b31461015a57806318160ddd1461019757806323b872dd146101c257806327dea227146101ff575b600080fd5b34801561013b57600080fd5b506101446104e3565b6040516101519190611cef565b60405180910390f35b34801561016657600080fd5b50610181600480360381019061017c9190611db9565b610575565b60405161018e9190611e14565b60405180910390f35b3480156101a357600080fd5b506101ac610598565b6040516101b99190611e3e565b60405180910390f35b3480156101ce57600080fd5b506101e960048036038101906101e49190611e59565b6105a2565b6040516101f69190611e14565b60405180910390f35b6102076105d1565b005b34801561021557600080fd5b5061021e6106dc565b60405161022b9190611ec8565b60405180910390f35b34801561024057600080fd5b5061025b60048036038101906102569190611db9565b6106e5565b6040516102689190611e14565b60405180910390f35b34801561027d57600080fd5b5061029860048036038101906102939190611ee3565b61071c565b005b3480156102a657600080fd5b506102af610788565b6040516102bc9190611e3e565b60405180910390f35b3480156102d157600080fd5b506102ec60048036038101906102e79190611f10565b6107b0565b6040516102f99190611e3e565b60405180910390f35b34801561030e57600080fd5b506103176107f9565b6040516103249190611e3e565b60405180910390f35b34801561033957600080fd5b50610354600480360381019061034f9190611db9565b6107ff565b005b34801561036257600080fd5b5061037d60048036038101906103789190611db9565b61081f565b005b34801561038b57600080fd5b50610394610914565b005b3480156103a257600080fd5b506103ab610ac6565b005b3480156103b957600080fd5b506103c2610b8d565b6040516103cf9190611f5e565b60405180910390f35b3480156103e457600080fd5b506103ed610bb1565b6040516103fa9190611cef565b60405180910390f35b34801561040f57600080fd5b5061042a600480360381019061042591906120ae565b610c43565b005b34801561043857600080fd5b50610453600480360381019061044e9190611db9565b610db5565b6040516104609190611e14565b60405180910390f35b34801561047557600080fd5b50610490600480360381019061048b9190611db9565b610e2c565b60405161049d9190611e14565b60405180910390f35b3480156104b257600080fd5b506104cd60048036038101906104c8919061211d565b610e4f565b6040516104da9190611e3e565b60405180910390f35b6060603680546104f29061218c565b80601f016020809104026020016040519081016040528092919081815260200182805461051e9061218c565b801561056b5780601f106105405761010080835404028352916020019161056b565b820191906000526020600020905b81548152906001019060200180831161054e57829003601f168201915b5050505050905090565b60008061058061102e565b905061058d818585611036565b600191505092915050565b6000603554905090565b6000806105ad61102e565b90506105ba858285611201565b6105c585858561128d565b60019150509392505050565b343373ffffffffffffffffffffffffffffffffffffffff16311161062a576040517f08c379a00000000000000000000000000000000000000000000000000000000081526004016106219061220a565b60405180910390fd5b60646019610636610788565b6106409190612259565b61064a91906122e2565b60996040516106589061236a565b908152602001604051809103902054101561067c576106776000611508565b6106da565b6064600f610688610788565b6106929190612259565b61069c91906122e2565b60996040516106aa9061236a565b90815260200160405180910390205410156106ce576106c96001611508565b6106d9565b6106d86002611508565b5b5b565b60006012905090565b6000806106f061102e565b90506107118185856107028589610e4f565b61070c919061237f565b611036565b600191505092915050565b80610726336107b0565b1015610767576040517f08c379a000000000000000000000000000000000000000000000000000000000815260040161075e90612421565b60405180910390fd5b80609754610775919061237f565b6097819055506107853382611723565b50565b60007f0000000000000000000000000000000000000000000000000000000000000000905090565b6000603360008373ffffffffffffffffffffffffffffffffffffffff1673ffffffffffffffffffffffffffffffffffffffff168152602001908152602001600020549050919050565b60975481565b6108118261080b61102e565b83611201565b61081b8282611723565b5050565b7f000000000000000000000000000000000000000000000000000000000000000073ffffffffffffffffffffffffffffffffffffffff163373ffffffffffffffffffffffffffffffffffffffff16146108ad576040517f08c379a00000000000000000000000000000000000000000000000000000000081526004016108a4906124b3565b60405180910390fd5b6097548111156108f2576040517f08c379a00000000000000000000000000000000000000000000000000000000081526004016108e99061251f565b60405180910390fd5b80609754610900919061253f565b60978190555061091082826118f3565b5050565b60008060019054906101000a900460ff161590508080156109455750600160008054906101000a900460ff1660ff16105b8061097257506109543061197b565b1580156109715750600160008054906101000a900460ff1660ff16145b5b6109b1576040517f08c379a00000000000000000000000000000000000000000000000000000000081526004016109a8906125e5565b60405180910390fd5b60016000806101000a81548160ff021916908360ff16021790555080156109ee576001600060016101000a81548160ff0219169083151502179055505b610a626040518060400160405280600881526020017f426c7565426972640000000000000000000000000000000000000000000000008152506040518060400160405280600381526020017f424244000000000000000000000000000000000000000000000000000000000081525061199e565b610a6a6119fb565b8015610ac35760008060016101000a81548160ff0219169083151502179055507f7f26b83ff96e1f2b6a682f133852f6798a09c465da95921460cefb38474024986001604051610aba919061264a565b60405180910390a15b50565b7f000000000000000000000000000000000000000000000000000000000000000073ffffffffffffffffffffffffffffffffffffffff163373ffffffffffffffffffffffffffffffffffffffff1614610b54576040517f08c379a0000000000000000000000000000000000000000000000000000000008152600401610b4b906124b3565b60405180910390fd5b7f000000000000000000000000000000000000000000000000000000000000000073ffffffffffffffffffffffffffffffffffffffff16ff5b7f000000000000000000000000000000000000000000000000000000000000000081565b606060378054610bc09061218c565b80601f0160208091040260200160405190810160405280929190818152602001828054610bec9061218c565b8015610c395780601f10610c0e57610100808354040283529160200191610c39565b820191906000526020600020905b815481529060010190602001808311610c1c57829003601f168201915b5050505050905090565b7f000000000000000000000000000000000000000000000000000000000000000073ffffffffffffffffffffffffffffffffffffffff163373ffffffffffffffffffffffffffffffffffffffff1614610cd1576040517f08c379a0000000000000000000000000000000000000000000000000000000008152600401610cc8906124b3565b60405180910390fd5b609881604051610ce191906126a1565b90815260200160405180910390205482609983604051610d0191906126a1565b908152602001604051809103902054610d1a919061237f565b10610d5a576040517f08c379a0000000000000000000000000000000000000000000000000000000008152600401610d5190612704565b60405180910390fd5b81609982604051610d6b91906126a1565b908152602001604051809103902054610d84919061237f565b609982604051610d9491906126a1565b908152602001604051809103902081905550610db083836118f3565b505050565b600080610dc061102e565b90506000610dce8286610e4f565b905083811015610e13576040517f08c379a0000000000000000000000000000000000000000000000000000000008152600401610e0a90612796565b60405180910390fd5b610e208286868403611036565b60019250505092915050565b600080610e3761102e565b9050610e4481858561128d565b600191505092915050565b6000603460008473ffffffffffffffffffffffffffffffffffffffff1673ffffffffffffffffffffffffffffffffffffffff16815260200190815260200160002060008373ffffffffffffffffffffffffffffffffffffffff1673ffffffffffffffffffffffffffffffffffffffff16815260200190815260200160002054905092915050565b600073ffffffffffffffffffffffffffffffffffffffff168273ffffffffffffffffffffffffffffffffffffffff161415610f46576040517f08c379a0000000000000000000000000000000000000000000000000000000008152600401610f3d90612802565b60405180910390fd5b610f5260008383611a4c565b8060356000828254610f64919061237f565b9250508190555080603360008473ffffffffffffffffffffffffffffffffffffffff1673ffffffffffffffffffffffffffffffffffffffff168152602001908152602001600020600082825401925050819055508173ffffffffffffffffffffffffffffffffffffffff16600073ffffffffffffffffffffffffffffffffffffffff167fddf252ad1be2c89b69c2b068fc378daa952ba7f163c4a11628f55a4df523b3ef836040516110169190611e3e565b60405180910390a361102a60008383611a51565b5050565b600033905090565b600073ffffffffffffffffffffffffffffffffffffffff168373ffffffffffffffffffffffffffffffffffffffff1614156110a6576040517f08c379a000000000000000000000000000000000000000000000000000000000815260040161109d90612894565b60405180910390fd5b600073ffffffffffffffffffffffffffffffffffffffff168273ffffffffffffffffffffffffffffffffffffffff161415611116576040517f08c379a000000000000000000000000000000000000000000000000000000000815260040161110d90612926565b60405180910390fd5b80603460008573ffffffffffffffffffffffffffffffffffffffff1673ffffffffffffffffffffffffffffffffffffffff16815260200190815260200160002060008473ffffffffffffffffffffffffffffffffffffffff1673ffffffffffffffffffffffffffffffffffffffff168152602001908152602001600020819055508173ffffffffffffffffffffffffffffffffffffffff168373ffffffffffffffffffffffffffffffffffffffff167f8c5be1e5ebec7d5bd14f71427d1e84f3dd0314c0f7b2291e5b200ac8c7c3b925836040516111f49190611e3e565b60405180910390a3505050565b600061120d8484610e4f565b90507fffffffffffffffffffffffffffffffffffffffffffffffffffffffffffffffff81146112875781811015611279576040517f08c379a000000000000000000000000000000000000000000000000000000000815260040161127090612992565b60405180910390fd5b6112868484848403611036565b5b50505050565b600073ffffffffffffffffffffffffffffffffffffffff168373ffffffffffffffffffffffffffffffffffffffff1614156112fd576040517f08c379a00000000000000000000000000000000000000000000000000000000081526004016112f490612a24565b60405180910390fd5b600073ffffffffffffffffffffffffffffffffffffffff168273ffffffffffffffffffffffffffffffffffffffff16141561136d576040517f08c379a000000000000000000000000000000000000000000000000000000000815260040161136490612ab6565b60405180910390fd5b611378838383611a4c565b6000603360008573ffffffffffffffffffffffffffffffffffffffff1673ffffffffffffffffffffffffffffffffffffffff168152602001908152602001600020549050818110156113ff576040517f08c379a00000000000000000000000000000000000000000000000000000000081526004016113f690612b48565b60405180910390fd5b818103603360008673ffffffffffffffffffffffffffffffffffffffff1673ffffffffffffffffffffffffffffffffffffffff1681526020019081526020016000208190555081603360008573ffffffffffffffffffffffffffffffffffffffff1673ffffffffffffffffffffffffffffffffffffffff168152602001908152602001600020600082825401925050819055508273ffffffffffffffffffffffffffffffffffffffff168473ffffffffffffffffffffffffffffffffffffffff167fddf252ad1be2c89b69c2b068fc378daa952ba7f163c4a11628f55a4df523b3ef846040516114ef9190611e3e565b60405180910390a3611502848484611a51565b50505050565b6000609a8260ff166003811061152157611520612b68565b5b602091828204019190069054906101000a900460ff1660ff1661156f609b60009054906101000a900473ffffffffffffffffffffffffffffffffffffffff1634611a5690919063ffffffff16565b6115799190612259565b905060986040516115899061236a565b9081526020016040518091039020548160996040516115a79061236a565b9081526020016040518091039020546115c0919061237f565b10611600576040517f08c379a00000000000000000000000000000000000000000000000000000000081526004016115f790612704565b60405180910390fd5b60007f000000000000000000000000000000000000000000000000000000000000000073ffffffffffffffffffffffffffffffffffffffff163460405161164690612bbd565b60006040518083038185875af1925050503d8060008114611683576040519150601f19603f3d011682016040523d82523d6000602084013e611688565b606091505b50509050806116cc576040517f08c379a00000000000000000000000000000000000000000000000000000000081526004016116c390612c1e565b60405180910390fd5b8160996040516116db9061236a565b9081526020016040518091039020546116f4919061237f565b60996040516117029061236a565b90815260200160405180910390208190555061171e33836118f3565b505050565b600073ffffffffffffffffffffffffffffffffffffffff168273ffffffffffffffffffffffffffffffffffffffff161415611793576040517f08c379a000000000000000000000000000000000000000000000000000000000815260040161178a90612cb0565b60405180910390fd5b61179f82600083611a4c565b6000603360008473ffffffffffffffffffffffffffffffffffffffff1673ffffffffffffffffffffffffffffffffffffffff16815260200190815260200160002054905081811015611826576040517f08c379a000000000000000000000000000000000000000000000000000000000815260040161181d90612d42565b60405180910390fd5b818103603360008573ffffffffffffffffffffffffffffffffffffffff1673ffffffffffffffffffffffffffffffffffffffff1681526020019081526020016000208190555081603560008282540392505081905550600073ffffffffffffffffffffffffffffffffffffffff168373ffffffffffffffffffffffffffffffffffffffff167fddf252ad1be2c89b69c2b068fc378daa952ba7f163c4a11628f55a4df523b3ef846040516118da9190611e3e565b60405180910390a36118ee83600084611a51565b505050565b6118fb610788565b81611904610598565b61190e919061237f565b111561194f576040517f08c379a000000000000000000000000000000000000000000000000000000000815260040161194690612dae565b60405180910390fd5b6119778261195b6106dc565b600a6119679190612f01565b836119729190612259565b610ed6565b5050565b6000808273ffffffffffffffffffffffffffffffffffffffff163b119050919050565b600060019054906101000a900460ff166119ed576040517f08c379a00000000000000000000000000000000000000000000000000000000081526004016119e490612fbe565b60405180910390fd5b6119f78282611a92565b5050565b600060019054906101000a900460ff16611a4a576040517f08c379a0000000000000000000000000000000000000000000000000000000008152600401611a4190612fbe565b60405180910390fd5b565b505050565b505050565b600080611a6283611b13565b90506000670de0b6b3a76400008583611a7b9190612259565b611a8591906122e2565b9050809250505092915050565b600060019054906101000a900460ff16611ae1576040517f08c379a0000000000000000000000000000000000000000000000000000000008152600401611ad890612fbe565b60405180910390fd5b8160369080519060200190611af7929190611bb3565b508060379080519060200190611b0e929190611bb3565b505050565b6000808273ffffffffffffffffffffffffffffffffffffffff1663feaf968c6040518163ffffffff1660e01b815260040160a06040518083038186803b158015611b5c57600080fd5b505afa158015611b70573d6000803e3d6000fd5b505050506040513d601f19601f82011682018060405250810190611b94919061306b565b5050509150506402540be40081611bab91906130e6565b915050919050565b828054611bbf9061218c565b90600052602060002090601f016020900481019282611be15760008555611c28565b82601f10611bfa57805160ff1916838001178555611c28565b82800160010185558215611c28579182015b82811115611c27578251825591602001919060010190611c0c565b5b509050611c359190611c39565b5090565b5b80821115611c52576000816000905550600101611c3a565b5090565b600081519050919050565b600082825260208201905092915050565b60005b83811015611c90578082015181840152602081019050611c75565b83811115611c9f576000848401525b50505050565b6000601f19601f8301169050919050565b6000611cc182611c56565b611ccb8185611c61565b9350611cdb818560208601611c72565b611ce481611ca5565b840191505092915050565b60006020820190508181036000830152611d098184611cb6565b905092915050565b6000604051905090565b600080fd5b600080fd5b600073ffffffffffffffffffffffffffffffffffffffff82169050919050565b6000611d5082611d25565b9050919050565b611d6081611d45565b8114611d6b57600080fd5b50565b600081359050611d7d81611d57565b92915050565b6000819050919050565b611d9681611d83565b8114611da157600080fd5b50565b600081359050611db381611d8d565b92915050565b60008060408385031215611dd057611dcf611d1b565b5b6000611dde85828601611d6e565b9250506020611def85828601611da4565b9150509250929050565b60008115159050919050565b611e0e81611df9565b82525050565b6000602082019050611e296000830184611e05565b92915050565b611e3881611d83565b82525050565b6000602082019050611e536000830184611e2f565b92915050565b600080600060608486031215611e7257611e71611d1b565b5b6000611e8086828701611d6e565b9350506020611e9186828701611d6e565b9250506040611ea286828701611da4565b9150509250925092565b600060ff82169050919050565b611ec281611eac565b82525050565b6000602082019050611edd6000830184611eb9565b92915050565b600060208284031215611ef957611ef8611d1b565b5b6000611f0784828501611da4565b91505092915050565b600060208284031215611f2657611f25611d1b565b5b6000611f3484828501611d6e565b91505092915050565b6000611f4882611d25565b9050919050565b611f5881611f3d565b82525050565b6000602082019050611f736000830184611f4f565b92915050565b600080fd5b600080fd5b7f4e487b7100000000000000000000000000000000000000000000000000000000600052604160045260246000fd5b611fbb82611ca5565b810181811067ffffffffffffffff82111715611fda57611fd9611f83565b5b80604052505050565b6000611fed611d11565b9050611ff98282611fb2565b919050565b600067ffffffffffffffff82111561201957612018611f83565b5b61202282611ca5565b9050602081019050919050565b82818337600083830152505050565b600061205161204c84611ffe565b611fe3565b90508281526020810184848401111561206d5761206c611f7e565b5b61207884828561202f565b509392505050565b600082601f83011261209557612094611f79565b5b81356120a584826020860161203e565b91505092915050565b6000806000606084860312156120c7576120c6611d1b565b5b60006120d586828701611d6e565b93505060206120e686828701611da4565b925050604084013567ffffffffffffffff81111561210757612106611d20565b5b61211386828701612080565b9150509250925092565b6000806040838503121561213457612133611d1b565b5b600061214285828601611d6e565b925050602061215385828601611d6e565b9150509250929050565b7f4e487b7100000000000000000000000000000000000000000000000000000000600052602260045260246000fd5b600060028204905060018216806121a457607f821691505b602082108114156121b8576121b761215d565b5b50919050565b7f62696c616e63696f20696e73756666696369656e746500000000000000000000600082015250565b60006121f4601683611c61565b91506121ff826121be565b602082019050919050565b60006020820190508181036000830152612223816121e7565b9050919050565b7f4e487b7100000000000000000000000000000000000000000000000000000000600052601160045260246000fd5b600061226482611d83565b915061226f83611d83565b9250817fffffffffffffffffffffffffffffffffffffffffffffffffffffffffffffffff04831182151516156122a8576122a761222a565b5b828202905092915050565b7f4e487b7100000000000000000000000000000000000000000000000000000000600052601260045260246000fd5b60006122ed82611d83565b91506122f883611d83565b925082612308576123076122b3565b5b828204905092915050565b600081905092915050565b7f65636f73797374656d0000000000000000000000000000000000000000000000600082015250565b6000612354600983612313565b915061235f8261231e565b600982019050919050565b600061237582612347565b9150819050919050565b600061238a82611d83565b915061239583611d83565b9250827fffffffffffffffffffffffffffffffffffffffffffffffffffffffffffffffff038211156123ca576123c961222a565b5b828201905092915050565b7f796f752063616e6e6f74206275726e20736f206d616e7920746f6b656e000000600082015250565b600061240b601d83611c61565b9150612416826123d5565b602082019050919050565b6000602082019050818103600083015261243a816123fe565b9050919050565b7f4f6e6c7920746865206f776e65722063616e2063616c6c20746869732066756e60008201527f6374696f6e000000000000000000000000000000000000000000000000000000602082015250565b600061249d602583611c61565b91506124a882612441565b604082019050919050565b600060208201905081810360008301526124cc81612490565b9050919050565b7f7468657265206172656e7420736f206d616e7920746f6b656e206275726e6564600082015250565b6000612509602083611c61565b9150612514826124d3565b602082019050919050565b60006020820190508181036000830152612538816124fc565b9050919050565b600061254a82611d83565b915061255583611d83565b9250828210156125685761256761222a565b5b828203905092915050565b7f496e697469616c697a61626c653a20636f6e747261637420697320616c72656160008201527f647920696e697469616c697a6564000000000000000000000000000000000000602082015250565b60006125cf602e83611c61565b91506125da82612573565b604082019050919050565b600060208201905081810360008301526125fe816125c2565b9050919050565b6000819050919050565b6000819050919050565b600061263461262f61262a84612605565b61260f565b611eac565b9050919050565b61264481612619565b82525050565b600060208201905061265f600083018461263b565b92915050565b600081519050919050565b600061267b82612665565b6126858185612313565b9350612695818560208601611c72565b80840191505092915050565b60006126ad8284612670565b915081905092915050565b7f4f766572206d696e740000000000000000000000000000000000000000000000600082015250565b60006126ee600983611c61565b91506126f9826126b8565b602082019050919050565b6000602082019050818103600083015261271d816126e1565b9050919050565b7f45524332303a2064656372656173656420616c6c6f77616e63652062656c6f7760008201527f207a65726f000000000000000000000000000000000000000000000000000000602082015250565b6000612780602583611c61565b915061278b82612724565b604082019050919050565b600060208201905081810360008301526127af81612773565b9050919050565b7f45524332303a206d696e7420746f20746865207a65726f206164647265737300600082015250565b60006127ec601f83611c61565b91506127f7826127b6565b602082019050919050565b6000602082019050818103600083015261281b816127df565b9050919050565b7f45524332303a20617070726f76652066726f6d20746865207a65726f2061646460008201527f7265737300000000000000000000000000000000000000000000000000000000602082015250565b600061287e602483611c61565b915061288982612822565b604082019050919050565b600060208201905081810360008301526128ad81612871565b9050919050565b7f45524332303a20617070726f766520746f20746865207a65726f20616464726560008201527f7373000000000000000000000000000000000000000000000000000000000000602082015250565b6000612910602283611c61565b915061291b826128b4565b604082019050919050565b6000602082019050818103600083015261293f81612903565b9050919050565b7f45524332303a20696e73756666696369656e7420616c6c6f77616e6365000000600082015250565b600061297c601d83611c61565b915061298782612946565b602082019050919050565b600060208201905081810360008301526129ab8161296f565b9050919050565b7f45524332303a207472616e736665722066726f6d20746865207a65726f20616460008201527f6472657373000000000000000000000000000000000000000000000000000000602082015250565b6000612a0e602583611c61565b9150612a19826129b2565b604082019050919050565b60006020820190508181036000830152612a3d81612a01565b9050919050565b7f45524332303a207472616e7366657220746f20746865207a65726f206164647260008201527f6573730000000000000000000000000000000000000000000000000000000000602082015250565b6000612aa0602383611c61565b9150612aab82612a44565b604082019050919050565b60006020820190508181036000830152612acf81612a93565b9050919050565b7f45524332303a207472616e7366657220616d6f756e742065786365656473206260008201527f616c616e63650000000000000000000000000000000000000000000000000000602082015250565b6000612b32602683611c61565b9150612b3d82612ad6565b604082019050919050565b60006020820190508181036000830152612b6181612b25565b9050919050565b7f4e487b7100000000000000000000000000000000000000000000000000000000600052603260045260246000fd5b50565b6000612ba7600083612313565b9150612bb282612b97565b600082019050919050565b6000612bc882612b9a565b9150819050919050565b7f43616c6c206661696c6564000000000000000000000000000000000000000000600082015250565b6000612c08600b83611c61565b9150612c1382612bd2565b602082019050919050565b60006020820190508181036000830152612c3781612bfb565b9050919050565b7f45524332303a206275726e2066726f6d20746865207a65726f2061646472657360008201527f7300000000000000000000000000000000000000000000000000000000000000602082015250565b6000612c9a602183611c61565b9150612ca582612c3e565b604082019050919050565b60006020820190508181036000830152612cc981612c8d565b9050919050565b7f45524332303a206275726e20616d6f756e7420657863656564732062616c616e60008201527f6365000000000000000000000000000000000000000000000000000000000000602082015250565b6000612d2c602283611c61565b9150612d3782612cd0565b604082019050919050565b60006020820190508181036000830152612d5b81612d1f565b9050919050565b7f45524332304361707065643a2063617020657863656564656400000000000000600082015250565b6000612d98601983611c61565b9150612da382612d62565b602082019050919050565b60006020820190508181036000830152612dc781612d8b565b9050919050565b60008160011c9050919050565b6000808291508390505b6001851115612e2557808604811115612e0157612e0061222a565b5b6001851615612e105780820291505b8081029050612e1e85612dce565b9450612de5565b94509492505050565b600082612e3e5760019050612efa565b81612e4c5760009050612efa565b8160018114612e625760028114612e6c57612e9b565b6001915050612efa565b60ff841115612e7e57612e7d61222a565b5b8360020a915084821115612e9557612e9461222a565b5b50612efa565b5060208310610133831016604e8410600b8410161715612ed05782820a905083811115612ecb57612eca61222a565b5b612efa565b612edd8484846001612ddb565b92509050818404811115612ef457612ef361222a565b5b81810290505b9392505050565b6000612f0c82611d83565b9150612f1783611eac565b9250612f447fffffffffffffffffffffffffffffffffffffffffffffffffffffffffffffffff8484612e2e565b905092915050565b7f496e697469616c697a61626c653a20636f6e7472616374206973206e6f74206960008201527f6e697469616c697a696e67000000000000000000000000000000000000000000602082015250565b6000612fa8602b83611c61565b9150612fb382612f4c565b604082019050919050565b60006020820190508181036000830152612fd781612f9b565b9050919050565b600069ffffffffffffffffffff82169050919050565b612ffd81612fde565b811461300857600080fd5b50565b60008151905061301a81612ff4565b92915050565b6000819050919050565b61303381613020565b811461303e57600080fd5b50565b6000815190506130508161302a565b92915050565b60008151905061306581611d8d565b92915050565b600080600080600060a0868803121561308757613086611d1b565b5b60006130958882890161300b565b95505060206130a688828901613041565b94505060406130b788828901613056565b93505060606130c888828901613056565b92505060806130d98882890161300b565b9150509295509295909350565b60006130f182613020565b91506130fc83613020565b9250827f7fffffffffffffffffffffffffffffffffffffffffffffffffffffffffffffff048211600084136000841316161561313b5761313a61222a565b5b817f800000000000000000000000000000000000000000000000000000000000000005831260008412600084131616156131785761317761222a565b5b827f800000000000000000000000000000000000000000000000000000000000000005821260008413600084121616156131b5576131b461222a565b5b827f7fffffffffffffffffffffffffffffffffffffffffffffffffffffffffffffff05821260008412600084121616156131f2576131f161222a565b5b82820290509291505056fea2646970667358221220f427dd619307cbe7ca0f486778d372c61ea9afa48f724f7851e6f2b094669c9164736f6c63430008090033",
  "devdoc": {
    "kind": "dev",
    "methods": {
      "allowance(address,address)": {
        "details": "See {IERC20-allowance}."
      },
      "approve(address,uint256)": {
        "details": "See {IERC20-approve}. NOTE: If `amount` is the maximum `uint256`, the allowance is not updated on `transferFrom`. This is semantically equivalent to an infinite approval. Requirements: - `spender` cannot be the zero address."
      },
      "balanceOf(address)": {
        "details": "See {IERC20-balanceOf}."
      },
      "burn(uint256)": {
        "details": "Destroys `amount` tokens from the caller. See {ERC20-_burn}."
      },
      "burnFrom(address,uint256)": {
        "details": "Destroys `amount` tokens from `account`, deducting from the caller's allowance. See {ERC20-_burn} and {ERC20-allowance}. Requirements: - the caller must have allowance for ``accounts``'s tokens of at least `amount`."
      },
      "decimals()": {
        "details": "Returns the number of decimals used to get its user representation. For example, if `decimals` equals `2`, a balance of `505` tokens should be displayed to a user as `5.05` (`505 / 10 ** 2`). Tokens usually opt for a value of 18, imitating the relationship between Ether and Wei. This is the value {ERC20} uses, unless this function is overridden; NOTE: This information is only used for _display_ purposes: it in no way affects any of the arithmetic of the contract, including {IERC20-balanceOf} and {IERC20-transfer}."
      },
      "decreaseAllowance(address,uint256)": {
        "details": "Atomically decreases the allowance granted to `spender` by the caller. This is an alternative to {approve} that can be used as a mitigation for problems described in {IERC20-approve}. Emits an {Approval} event indicating the updated allowance. Requirements: - `spender` cannot be the zero address. - `spender` must have allowance for the caller of at least `subtractedValue`."
      },
      "increaseAllowance(address,uint256)": {
        "details": "Atomically increases the allowance granted to `spender` by the caller. This is an alternative to {approve} that can be used as a mitigation for problems described in {IERC20-approve}. Emits an {Approval} event indicating the updated allowance. Requirements: - `spender` cannot be the zero address."
      },
      "name()": {
        "details": "Returns the name of the token."
      },
      "symbol()": {
        "details": "Returns the symbol of the token, usually a shorter version of the name."
      },
      "totalSupply()": {
        "details": "See {IERC20-totalSupply}."
      },
      "transfer(address,uint256)": {
        "details": "See {IERC20-transfer}. Requirements: - `to` cannot be the zero address. - the caller must have a balance of at least `amount`."
      },
      "transferFrom(address,address,uint256)": {
        "details": "See {IERC20-transferFrom}. Emits an {Approval} event indicating the updated allowance. This is not required by the EIP. See the note at the beginning of {ERC20}. NOTE: Does not update the allowance if the current allowance is the maximum `uint256`. Requirements: - `from` and `to` cannot be the zero address. - `from` must have a balance of at least `amount`. - the caller must have allowance for ``from``'s tokens of at least `amount`."
      }
    },
    "version": 1
  },
  "userdoc": {
    "kind": "user",
    "methods": {},
    "version": 1
  },
  "storageLayout": {
    "storage": [
      {
        "astId": 52,
        "contract": "contracts/BlueBird.sol:BlueBird",
        "label": "_initialized",
        "offset": 0,
        "slot": "0",
        "type": "t_uint8"
      },
      {
        "astId": 55,
        "contract": "contracts/BlueBird.sol:BlueBird",
        "label": "_initializing",
        "offset": 1,
        "slot": "0",
        "type": "t_bool"
      },
      {
        "astId": 1318,
        "contract": "contracts/BlueBird.sol:BlueBird",
        "label": "__gap",
        "offset": 0,
        "slot": "1",
        "type": "t_array(t_uint256)50_storage"
      },
      {
        "astId": 233,
        "contract": "contracts/BlueBird.sol:BlueBird",
        "label": "_balances",
        "offset": 0,
        "slot": "51",
        "type": "t_mapping(t_address,t_uint256)"
      },
      {
        "astId": 239,
        "contract": "contracts/BlueBird.sol:BlueBird",
        "label": "_allowances",
        "offset": 0,
        "slot": "52",
        "type": "t_mapping(t_address,t_mapping(t_address,t_uint256))"
      },
      {
        "astId": 241,
        "contract": "contracts/BlueBird.sol:BlueBird",
        "label": "_totalSupply",
        "offset": 0,
        "slot": "53",
        "type": "t_uint256"
      },
      {
        "astId": 243,
        "contract": "contracts/BlueBird.sol:BlueBird",
        "label": "_name",
        "offset": 0,
        "slot": "54",
        "type": "t_string_storage"
      },
      {
        "astId": 245,
        "contract": "contracts/BlueBird.sol:BlueBird",
        "label": "_symbol",
        "offset": 0,
        "slot": "55",
        "type": "t_string_storage"
      },
      {
        "astId": 825,
        "contract": "contracts/BlueBird.sol:BlueBird",
        "label": "__gap",
        "offset": 0,
        "slot": "56",
        "type": "t_array(t_uint256)45_storage"
      },
      {
        "astId": 967,
        "contract": "contracts/BlueBird.sol:BlueBird",
        "label": "__gap",
        "offset": 0,
        "slot": "101",
        "type": "t_array(t_uint256)50_storage"
      },
      {
        "astId": 2055,
        "contract": "contracts/BlueBird.sol:BlueBird",
        "label": "burned",
        "offset": 0,
        "slot": "151",
        "type": "t_uint256"
      },
      {
        "astId": 2059,
        "contract": "contracts/BlueBird.sol:BlueBird",
        "label": "minter4amount",
        "offset": 0,
        "slot": "152",
        "type": "t_mapping(t_bytes_memory_ptr,t_uint256)"
      },
      {
        "astId": 2063,
        "contract": "contracts/BlueBird.sol:BlueBird",
        "label": "minter4minted",
        "offset": 0,
        "slot": "153",
        "type": "t_mapping(t_bytes_memory_ptr,t_uint256)"
      },
      {
        "astId": 2071,
        "contract": "contracts/BlueBird.sol:BlueBird",
        "label": "miningPrice",
        "offset": 0,
        "slot": "154",
        "type": "t_array(t_uint8)3_storage"
      },
      {
        "astId": 2074,
        "contract": "contracts/BlueBird.sol:BlueBird",
        "label": "priceFeed",
        "offset": 0,
        "slot": "155",
        "type": "t_contract(AggregatorV3Interface)45"
      }
    ],
    "types": {
      "t_address": {
        "encoding": "inplace",
        "label": "address",
        "numberOfBytes": "20"
      },
      "t_array(t_uint256)45_storage": {
        "base": "t_uint256",
        "encoding": "inplace",
        "label": "uint256[45]",
        "numberOfBytes": "1440"
      },
      "t_array(t_uint256)50_storage": {
        "base": "t_uint256",
        "encoding": "inplace",
        "label": "uint256[50]",
        "numberOfBytes": "1600"
      },
      "t_array(t_uint8)3_storage": {
        "base": "t_uint8",
        "encoding": "inplace",
        "label": "uint8[3]",
        "numberOfBytes": "32"
      },
      "t_bool": {
        "encoding": "inplace",
        "label": "bool",
        "numberOfBytes": "1"
      },
      "t_bytes_memory_ptr": {
        "encoding": "bytes",
        "label": "bytes",
        "numberOfBytes": "32"
      },
      "t_contract(AggregatorV3Interface)45": {
        "encoding": "inplace",
        "label": "contract AggregatorV3Interface",
        "numberOfBytes": "20"
      },
      "t_mapping(t_address,t_mapping(t_address,t_uint256))": {
        "encoding": "mapping",
        "key": "t_address",
        "label": "mapping(address => mapping(address => uint256))",
        "numberOfBytes": "32",
        "value": "t_mapping(t_address,t_uint256)"
      },
      "t_mapping(t_address,t_uint256)": {
        "encoding": "mapping",
        "key": "t_address",
        "label": "mapping(address => uint256)",
        "numberOfBytes": "32",
        "value": "t_uint256"
      },
      "t_mapping(t_bytes_memory_ptr,t_uint256)": {
        "encoding": "mapping",
        "key": "t_bytes_memory_ptr",
        "label": "mapping(bytes => uint256)",
        "numberOfBytes": "32",
        "value": "t_uint256"
      },
      "t_string_storage": {
        "encoding": "bytes",
        "label": "string",
        "numberOfBytes": "32"
      },
      "t_uint256": {
        "encoding": "inplace",
        "label": "uint256",
        "numberOfBytes": "32"
      },
      "t_uint8": {
        "encoding": "inplace",
        "label": "uint8",
        "numberOfBytes": "1"
      }
    }
  }
}