{
  "address": "0x948B3c65b89DF0B4894ABE91E6D02FE579834F8F",
  "abi": [
    {
      "inputs": [
        {
          "internalType": "address",
          "name": "_add",
          "type": "address"
        }
      ],
      "stateMutability": "nonpayable",
      "type": "constructor"
    },
    {
      "stateMutability": "payable",
      "type": "fallback"
    },
    {
      "inputs": [],
      "name": "admin",
      "outputs": [
        {
          "internalType": "address",
          "name": "adm",
          "type": "address"
        }
      ],
      "stateMutability": "view",
      "type": "function"
    },
    {
      "inputs": [],
      "name": "implementation",
      "outputs": [
        {
          "internalType": "address",
          "name": "impl",
          "type": "address"
        }
      ],
      "stateMutability": "view",
      "type": "function"
    },
    {
      "inputs": [
        {
          "internalType": "address",
          "name": "newImplementation",
          "type": "address"
        }
      ],
      "name": "upgrade",
      "outputs": [],
      "stateMutability": "nonpayable",
      "type": "function"
    }
  ],
  "transactionHash": "0xe43109722781c548b702d5e10427e1302c2abf104c3afd69be85d754c480f3a8",
  "args": [
    "0x71C95911E9a5D330f4D621842EC243EE1343292e"
  ],
  "numDeployments": 1,
  "solcInputHash": "d9d0a3784ea45cfaa8ce218c5b7fe5f8",
  "bytecode": "0x608060405234801561001057600080fd5b506040516104a53803806104a5833981810160405281019061003291906100f6565b60007fb53127684a568b3173ae13b9f8a6016e243e63b6e8ee1178d6a717850b5d610360001b905060003390508082557f360894a13ba1a3210667c828492db98dca3e2076cc3735a920a3ca505d382bbc60001b9150828255505050610123565b600080fd5b600073ffffffffffffffffffffffffffffffffffffffff82169050919050565b60006100c382610098565b9050919050565b6100d3816100b8565b81146100de57600080fd5b50565b6000815190506100f0816100ca565b92915050565b60006020828403121561010c5761010b610093565b5b600061011a848285016100e1565b91505092915050565b610373806101326000396000f3fe6080604052600436106100385760003560e01c80630900f010146100815780635c60da1b146100aa578063f851a440146100d557610039565b5b7f360894a13ba1a3210667c828492db98dca3e2076cc3735a920a3ca505d382bbc543660008037600080366000845af43d6000803e806000811461007c573d6000f35b600080fd5b34801561008d57600080fd5b506100a860048036038101906100a39190610269565b610100565b005b3480156100b657600080fd5b506100bf6101a4565b6040516100cc91906102a5565b60405180910390f35b3480156100e157600080fd5b506100ea6101d5565b6040516100f791906102a5565b60405180910390f35b6101086101d5565b73ffffffffffffffffffffffffffffffffffffffff163373ffffffffffffffffffffffffffffffffffffffff1614610175576040517f08c379a000000000000000000000000000000000000000000000000000000000815260040161016c9061031d565b60405180910390fd5b60007f360894a13ba1a3210667c828492db98dca3e2076cc3735a920a3ca505d382bbc60001b90508181555050565b6000807f360894a13ba1a3210667c828492db98dca3e2076cc3735a920a3ca505d382bbc60001b9050805491505090565b6000807fb53127684a568b3173ae13b9f8a6016e243e63b6e8ee1178d6a717850b5d610360001b9050805491505090565b600080fd5b600073ffffffffffffffffffffffffffffffffffffffff82169050919050565b60006102368261020b565b9050919050565b6102468161022b565b811461025157600080fd5b50565b6000813590506102638161023d565b92915050565b60006020828403121561027f5761027e610206565b5b600061028d84828501610254565b91505092915050565b61029f8161022b565b82525050565b60006020820190506102ba6000830184610296565b92915050565b600082825260208201905092915050565b7f61646d696e206f6e6c7900000000000000000000000000000000000000000000600082015250565b6000610307600a836102c0565b9150610312826102d1565b602082019050919050565b60006020820190508181036000830152610336816102fa565b905091905056fea26469706673582212203d6dd2ee2025b27d86aab0e19bc958e4b27f421c1c855ff1b15f2de3e2d4e89664736f6c63430008090033",
  "devdoc": {
    "kind": "dev",
    "methods": {},
    "version": 1
  },
  "userdoc": {
    "kind": "user",
    "methods": {},
    "version": 1
  },
  "storageLayout": {
    "storage": [],
    "types": null
  }
}