{
  "address": "0x033Dc83A2a1de03252480D078A1C155c5f78ebBE",
  "abi": [
    {
      "inputs": [
        {
          "internalType": "address",
          "name": "priceFeedAdd",
          "type": "address"
        }
      ],
      "stateMutability": "nonpayable",
      "type": "constructor"
    },
    {
      "inputs": [],
      "name": "BlueBird__ErrorBilancio",
      "type": "error"
    },
    {
      "inputs": [],
      "name": "BlueBird__ErrorCall",
      "type": "error"
    },
    {
      "inputs": [],
      "name": "BlueBird__ErrorERC20Capped",
      "type": "error"
    },
    {
      "inputs": [
        {
          "internalType": "string",
          "name": "",
          "type": "string"
        },
        {
          "internalType": "uint256",
          "name": "",
          "type": "uint256"
        }
      ],
      "name": "BlueBird__ErrorMint",
      "type": "error"
    },
    {
      "anonymous": false,
      "inputs": [
        {
          "indexed": true,
          "internalType": "address",
          "name": "owner",
          "type": "address"
        },
        {
          "indexed": true,
          "internalType": "address",
          "name": "spender",
          "type": "address"
        },
        {
          "indexed": false,
          "internalType": "uint256",
          "name": "value",
          "type": "uint256"
        }
      ],
      "name": "Approval",
      "type": "event"
    },
    {
      "anonymous": false,
      "inputs": [
        {
          "indexed": false,
          "internalType": "uint8",
          "name": "version",
          "type": "uint8"
        }
      ],
      "name": "Initialized",
      "type": "event"
    },
    {
      "anonymous": false,
      "inputs": [
        {
          "indexed": true,
          "internalType": "address",
          "name": "from",
          "type": "address"
        },
        {
          "indexed": true,
          "internalType": "address",
          "name": "to",
          "type": "address"
        },
        {
          "indexed": false,
          "internalType": "uint256",
          "name": "value",
          "type": "uint256"
        }
      ],
      "name": "Transfer",
      "type": "event"
    },
    {
      "anonymous": false,
      "inputs": [
        {
          "indexed": false,
          "internalType": "address",
          "name": "",
          "type": "address"
        }
      ],
      "name": "aggregatorUpgradeEvent",
      "type": "event"
    },
    {
      "anonymous": false,
      "inputs": [
        {
          "indexed": false,
          "internalType": "address",
          "name": "",
          "type": "address"
        },
        {
          "indexed": false,
          "internalType": "uint256",
          "name": "",
          "type": "uint256"
        }
      ],
      "name": "burnEvent",
      "type": "event"
    },
    {
      "anonymous": false,
      "inputs": [
        {
          "indexed": false,
          "internalType": "address",
          "name": "",
          "type": "address"
        },
        {
          "indexed": false,
          "internalType": "uint256",
          "name": "",
          "type": "uint256"
        }
      ],
      "name": "mintBurnEvent",
      "type": "event"
    },
    {
      "anonymous": false,
      "inputs": [
        {
          "indexed": false,
          "internalType": "address",
          "name": "",
          "type": "address"
        },
        {
          "indexed": false,
          "internalType": "uint256",
          "name": "",
          "type": "uint256"
        },
        {
          "indexed": false,
          "internalType": "string",
          "name": "",
          "type": "string"
        }
      ],
      "name": "mintDirectlyEvent",
      "type": "event"
    },
    {
      "anonymous": false,
      "inputs": [
        {
          "indexed": false,
          "internalType": "address",
          "name": "",
          "type": "address"
        },
        {
          "indexed": false,
          "internalType": "uint256",
          "name": "",
          "type": "uint256"
        },
        {
          "indexed": false,
          "internalType": "uint256",
          "name": "",
          "type": "uint256"
        }
      ],
      "name": "mintFromMaticEvent",
      "type": "event"
    },
    {
      "inputs": [
        {
          "internalType": "address",
          "name": "newpriceFeedAdd",
          "type": "address"
        }
      ],
      "name": "aggregatorUpgrade",
      "outputs": [],
      "stateMutability": "nonpayable",
      "type": "function"
    },
    {
      "inputs": [
        {
          "internalType": "address",
          "name": "owner",
          "type": "address"
        },
        {
          "internalType": "address",
          "name": "spender",
          "type": "address"
        }
      ],
      "name": "allowance",
      "outputs": [
        {
          "internalType": "uint256",
          "name": "",
          "type": "uint256"
        }
      ],
      "stateMutability": "view",
      "type": "function"
    },
    {
      "inputs": [
        {
          "internalType": "address",
          "name": "spender",
          "type": "address"
        },
        {
          "internalType": "uint256",
          "name": "amount",
          "type": "uint256"
        }
      ],
      "name": "approve",
      "outputs": [
        {
          "internalType": "bool",
          "name": "",
          "type": "bool"
        }
      ],
      "stateMutability": "nonpayable",
      "type": "function"
    },
    {
      "inputs": [
        {
          "internalType": "address",
          "name": "account",
          "type": "address"
        }
      ],
      "name": "balanceOf",
      "outputs": [
        {
          "internalType": "uint256",
          "name": "",
          "type": "uint256"
        }
      ],
      "stateMutability": "view",
      "type": "function"
    },
    {
      "inputs": [
        {
          "internalType": "uint256",
          "name": "amount",
          "type": "uint256"
        }
      ],
      "name": "burn",
      "outputs": [],
      "stateMutability": "nonpayable",
      "type": "function"
    },
    {
      "inputs": [
        {
          "internalType": "address",
          "name": "account",
          "type": "address"
        },
        {
          "internalType": "uint256",
          "name": "amount",
          "type": "uint256"
        }
      ],
      "name": "burnFrom",
      "outputs": [],
      "stateMutability": "nonpayable",
      "type": "function"
    },
    {
      "inputs": [],
      "name": "burned",
      "outputs": [
        {
          "internalType": "uint256",
          "name": "",
          "type": "uint256"
        }
      ],
      "stateMutability": "view",
      "type": "function"
    },
    {
      "inputs": [],
      "name": "decimals",
      "outputs": [
        {
          "internalType": "uint8",
          "name": "",
          "type": "uint8"
        }
      ],
      "stateMutability": "view",
      "type": "function"
    },
    {
      "inputs": [
        {
          "internalType": "address",
          "name": "spender",
          "type": "address"
        },
        {
          "internalType": "uint256",
          "name": "subtractedValue",
          "type": "uint256"
        }
      ],
      "name": "decreaseAllowance",
      "outputs": [
        {
          "internalType": "bool",
          "name": "",
          "type": "bool"
        }
      ],
      "stateMutability": "nonpayable",
      "type": "function"
    },
    {
      "inputs": [],
      "name": "destroy",
      "outputs": [],
      "stateMutability": "nonpayable",
      "type": "function"
    },
    {
      "inputs": [],
      "name": "getBurned",
      "outputs": [
        {
          "internalType": "uint256",
          "name": "",
          "type": "uint256"
        }
      ],
      "stateMutability": "view",
      "type": "function"
    },
    {
      "inputs": [],
      "name": "getCap",
      "outputs": [
        {
          "internalType": "uint256",
          "name": "",
          "type": "uint256"
        }
      ],
      "stateMutability": "pure",
      "type": "function"
    },
    {
      "inputs": [],
      "name": "getMaticRate",
      "outputs": [
        {
          "internalType": "uint256",
          "name": "result",
          "type": "uint256"
        }
      ],
      "stateMutability": "view",
      "type": "function"
    },
    {
      "inputs": [],
      "name": "getMinter4amount",
      "outputs": [
        {
          "internalType": "uint256",
          "name": "",
          "type": "uint256"
        },
        {
          "internalType": "uint256",
          "name": "",
          "type": "uint256"
        },
        {
          "internalType": "uint256",
          "name": "",
          "type": "uint256"
        },
        {
          "internalType": "uint256",
          "name": "",
          "type": "uint256"
        }
      ],
      "stateMutability": "view",
      "type": "function"
    },
    {
      "inputs": [],
      "name": "getMinter4minted",
      "outputs": [
        {
          "internalType": "uint256",
          "name": "",
          "type": "uint256"
        },
        {
          "internalType": "uint256",
          "name": "",
          "type": "uint256"
        },
        {
          "internalType": "uint256",
          "name": "",
          "type": "uint256"
        },
        {
          "internalType": "uint256",
          "name": "",
          "type": "uint256"
        }
      ],
      "stateMutability": "view",
      "type": "function"
    },
    {
      "inputs": [],
      "name": "getOwner",
      "outputs": [
        {
          "internalType": "address",
          "name": "",
          "type": "address"
        }
      ],
      "stateMutability": "view",
      "type": "function"
    },
    {
      "inputs": [],
      "name": "getPriceFeed",
      "outputs": [
        {
          "internalType": "contract AggregatorV3Interface",
          "name": "",
          "type": "address"
        }
      ],
      "stateMutability": "view",
      "type": "function"
    },
    {
      "inputs": [
        {
          "internalType": "address",
          "name": "spender",
          "type": "address"
        },
        {
          "internalType": "uint256",
          "name": "addedValue",
          "type": "uint256"
        }
      ],
      "name": "increaseAllowance",
      "outputs": [
        {
          "internalType": "bool",
          "name": "",
          "type": "bool"
        }
      ],
      "stateMutability": "nonpayable",
      "type": "function"
    },
    {
      "inputs": [],
      "name": "initialize",
      "outputs": [],
      "stateMutability": "nonpayable",
      "type": "function"
    },
    {
      "inputs": [
        {
          "internalType": "address",
          "name": "account",
          "type": "address"
        },
        {
          "internalType": "uint256",
          "name": "amount",
          "type": "uint256"
        }
      ],
      "name": "mintBurn",
      "outputs": [],
      "stateMutability": "nonpayable",
      "type": "function"
    },
    {
      "inputs": [
        {
          "internalType": "address",
          "name": "account",
          "type": "address"
        },
        {
          "internalType": "uint256",
          "name": "_amount",
          "type": "uint256"
        },
        {
          "internalType": "string",
          "name": "typeMining",
          "type": "string"
        }
      ],
      "name": "mintDirectly",
      "outputs": [],
      "stateMutability": "nonpayable",
      "type": "function"
    },
    {
      "inputs": [],
      "name": "mintFromMatic",
      "outputs": [],
      "stateMutability": "payable",
      "type": "function"
    },
    {
      "inputs": [
        {
          "internalType": "string",
          "name": "",
          "type": "string"
        }
      ],
      "name": "minter4amount",
      "outputs": [
        {
          "internalType": "uint256",
          "name": "",
          "type": "uint256"
        }
      ],
      "stateMutability": "view",
      "type": "function"
    },
    {
      "inputs": [
        {
          "internalType": "string",
          "name": "",
          "type": "string"
        }
      ],
      "name": "minter4minted",
      "outputs": [
        {
          "internalType": "uint256",
          "name": "",
          "type": "uint256"
        }
      ],
      "stateMutability": "view",
      "type": "function"
    },
    {
      "inputs": [],
      "name": "name",
      "outputs": [
        {
          "internalType": "string",
          "name": "",
          "type": "string"
        }
      ],
      "stateMutability": "view",
      "type": "function"
    },
    {
      "inputs": [],
      "name": "symbol",
      "outputs": [
        {
          "internalType": "string",
          "name": "",
          "type": "string"
        }
      ],
      "stateMutability": "view",
      "type": "function"
    },
    {
      "inputs": [],
      "name": "totalSupply",
      "outputs": [
        {
          "internalType": "uint256",
          "name": "",
          "type": "uint256"
        }
      ],
      "stateMutability": "view",
      "type": "function"
    },
    {
      "inputs": [
        {
          "internalType": "address",
          "name": "to",
          "type": "address"
        },
        {
          "internalType": "uint256",
          "name": "amount",
          "type": "uint256"
        }
      ],
      "name": "transfer",
      "outputs": [
        {
          "internalType": "bool",
          "name": "",
          "type": "bool"
        }
      ],
      "stateMutability": "nonpayable",
      "type": "function"
    },
    {
      "inputs": [
        {
          "internalType": "address",
          "name": "from",
          "type": "address"
        },
        {
          "internalType": "address",
          "name": "to",
          "type": "address"
        },
        {
          "internalType": "uint256",
          "name": "amount",
          "type": "uint256"
        }
      ],
      "name": "transferFrom",
      "outputs": [
        {
          "internalType": "bool",
          "name": "",
          "type": "bool"
        }
      ],
      "stateMutability": "nonpayable",
      "type": "function"
    }
  ],
  "transactionHash": "0x8c3f5f98c45c0cd1513c10e8bda867fe61b85c865ec69cf7f84eb7b66794e4d3",
  "args": [
    "0xd0D5e3DB44DE05E9F294BB0a3bEEaF030DE24Ada"
  ],
  "numDeployments": 30,
  "solcInputHash": "d80619f93dd1437a14c95fffcec38e5d",
  "bytecode": "0x60c0604052633b9aca0060a09081525060006097556040518060600160405280607d60ff168152602001606460ff168152602001603260ff16815250609a9060036200004d9291906200058a565b503480156200005b57600080fd5b5060405162004659380380620046598339818101604052810190620000819190620006b4565b3373ffffffffffffffffffffffffffffffffffffffff1660808173ffffffffffffffffffffffffffffffffffffffff16815250506064600860a051620000c891906200071f565b620000d49190620007af565b6098604051620000e49062000842565b9081526020016040518091039020819055506064603a60a0516200010991906200071f565b620001159190620007af565b60986040516200012590620008a9565b9081526020016040518091039020819055506064601860a0516200014a91906200071f565b620001569190620007af565b6098604051620001669062000910565b9081526020016040518091039020819055506064600a60a0516200018b91906200071f565b620001979190620007af565b6098604051620001a79062000977565b908152602001604051809103902081905550606460026064600860a051620001d091906200071f565b620001dc9190620007af565b620001e891906200071f565b620001f49190620007af565b6099604051620002049062000842565b908152602001604051809103902081905550600060996040516200022890620008a9565b908152602001604051809103902081905550600060996040516200024c9062000910565b90815260200160405180910390208190555060006099604051620002709062000977565b90815260200160405180910390208190555080609b60006101000a81548173ffffffffffffffffffffffffffffffffffffffff021916908373ffffffffffffffffffffffffffffffffffffffff16021790555062000311608051606460026064600860a051620002e191906200071f565b620002ed9190620007af565b620002f991906200071f565b620003059190620007af565b6200031860201b60201c565b5062000c4e565b8062000329620003f460201b60201c565b816200033a620003fe60201b60201c565b600a62000348919062000aef565b6200035d6200040760201b620009ee1760201c565b620003699190620007af565b62000375919062000b40565b1115620003ae576040517f3e05993300000000000000000000000000000000000000000000000000000000815260040160405180910390fd5b620003ef83620003c3620003fe60201b60201c565b600a620003d1919062000aef565b84620003de91906200071f565b6200041160201b620016c91760201c565b505050565b600060a051905090565b60006012905090565b6000603554905090565b600073ffffffffffffffffffffffffffffffffffffffff168273ffffffffffffffffffffffffffffffffffffffff16141562000484576040517f08c379a00000000000000000000000000000000000000000000000000000000081526004016200047b9062000bfe565b60405180910390fd5b62000498600083836200058060201b60201c565b8060356000828254620004ac919062000b40565b9250508190555080603360008473ffffffffffffffffffffffffffffffffffffffff1673ffffffffffffffffffffffffffffffffffffffff168152602001908152602001600020600082825401925050819055508173ffffffffffffffffffffffffffffffffffffffff16600073ffffffffffffffffffffffffffffffffffffffff167fddf252ad1be2c89b69c2b068fc378daa952ba7f163c4a11628f55a4df523b3ef8360405162000560919062000c31565b60405180910390a36200057c600083836200058560201b60201c565b5050565b505050565b505050565b826003601f01602090048101928215620006185791602002820160005b83821115620005e757835183826101000a81548160ff021916908360ff1602179055509260200192600101602081600001049283019260010302620005a7565b8015620006165782816101000a81549060ff0219169055600101602081600001049283019260010302620005e7565b505b5090506200062791906200062b565b5090565b5b80821115620006465760008160009055506001016200062c565b5090565b600080fd5b600073ffffffffffffffffffffffffffffffffffffffff82169050919050565b60006200067c826200064f565b9050919050565b6200068e816200066f565b81146200069a57600080fd5b50565b600081519050620006ae8162000683565b92915050565b600060208284031215620006cd57620006cc6200064a565b5b6000620006dd848285016200069d565b91505092915050565b6000819050919050565b7f4e487b7100000000000000000000000000000000000000000000000000000000600052601160045260246000fd5b60006200072c82620006e6565b91506200073983620006e6565b9250817fffffffffffffffffffffffffffffffffffffffffffffffffffffffffffffffff0483118215151615620007755762000774620006f0565b5b828202905092915050565b7f4e487b7100000000000000000000000000000000000000000000000000000000600052601260045260246000fd5b6000620007bc82620006e6565b9150620007c983620006e6565b925082620007dc57620007db62000780565b5b828204905092915050565b600081905092915050565b7f666f6e646174696f6e4665650000000000000000000000000000000000000000600082015250565b60006200082a600c83620007e7565b91506200083782620007f2565b600c82019050919050565b60006200084f826200081b565b9150819050919050565b7f65636f73797374656d0000000000000000000000000000000000000000000000600082015250565b600062000891600983620007e7565b91506200089e8262000859565b600982019050919050565b6000620008b68262000882565b9150819050919050565b7f6d61726b6574696e674f696e76657374696d656e740000000000000000000000600082015250565b6000620008f8601583620007e7565b91506200090582620008c0565b601582019050919050565b60006200091d82620008e9565b9150819050919050565b7f636f6e73756c74696e6700000000000000000000000000000000000000000000600082015250565b60006200095f600a83620007e7565b91506200096c8262000927565b600a82019050919050565b6000620009848262000950565b9150819050919050565b60008160011c9050919050565b6000808291508390505b6001851115620009ed57808604811115620009c557620009c4620006f0565b5b6001851615620009d55780820291505b8081029050620009e5856200098e565b9450620009a5565b94509492505050565b60008262000a08576001905062000adb565b8162000a18576000905062000adb565b816001811462000a31576002811462000a3c5762000a72565b600191505062000adb565b60ff84111562000a515762000a50620006f0565b5b8360020a91508482111562000a6b5762000a6a620006f0565b5b5062000adb565b5060208310610133831016604e8410600b841016171562000aac5782820a90508381111562000aa65762000aa5620006f0565b5b62000adb565b62000abb84848460016200099b565b9250905081840481111562000ad55762000ad4620006f0565b5b81810290505b9392505050565b600060ff82169050919050565b600062000afc82620006e6565b915062000b098362000ae2565b925062000b387fffffffffffffffffffffffffffffffffffffffffffffffffffffffffffffffff8484620009f6565b905092915050565b600062000b4d82620006e6565b915062000b5a83620006e6565b9250827fffffffffffffffffffffffffffffffffffffffffffffffffffffffffffffffff0382111562000b925762000b91620006f0565b5b828201905092915050565b600082825260208201905092915050565b7f45524332303a206d696e7420746f20746865207a65726f206164647265737300600082015250565b600062000be6601f8362000b9d565b915062000bf38262000bae565b602082019050919050565b6000602082019050818103600083015262000c198162000bd7565b9050919050565b62000c2b81620006e6565b82525050565b600060208201905062000c48600083018462000c20565b92915050565b60805160a0516139bb62000c9e6000396000610ec601526000818161083a01528181610b6001528181610f6501528181611240015281816112ce01528181611309015261147301526139bb6000f3fe6080604052600436106101c25760003560e01c806370a08231116100f75780638bc82c9511610095578063a457c2d711610064578063a457c2d714610607578063a9059cbb14610644578063cdc8510f14610681578063dd62ed3e146106be576101c2565b80638bc82c951461055a57806395d89b41146105885780639e87a5cd146105b3578063a42f5373146105de576101c2565b80637d4387a6116100d15780637d4387a6146104d85780638129fc1c1461050157806383197ef014610518578063893d20e81461052f576101c2565b806370a082311461044757806373f425611461048457806379cc6790146104af576101c2565b8063313ce5671161016457806342966c681161013e57806342966c681461038b57806343a4fac8146103b4578063554d578d146103f15780636fea47e31461041c576101c2565b8063313ce567146102f8578063341f1f6314610323578063395093511461034e576101c2565b80631611d50b116101a05780631611d50b1461025d57806318160ddd1461028657806323b872dd146102b157806327dea227146102ee576101c2565b806305808a29146101c757806306fdde03146101f5578063095ea7b314610220575b600080fd5b3480156101d357600080fd5b506101dc6106fb565b6040516101ec9493929190612351565b60405180910390f35b34801561020157600080fd5b5061020a610783565b604051610217919061242f565b60405180910390f35b34801561022c57600080fd5b50610247600480360381019061024291906124ef565b610815565b604051610254919061254a565b60405180910390f35b34801561026957600080fd5b50610284600480360381019061027f919061269a565b610838565b005b34801561029257600080fd5b5061029b6109ee565b6040516102a89190612709565b60405180910390f35b3480156102bd57600080fd5b506102d860048036038101906102d39190612724565b6109f8565b6040516102e5919061254a565b60405180910390f35b6102f6610a27565b005b34801561030457600080fd5b5061030d610cd6565b60405161031a9190612793565b60405180910390f35b34801561032f57600080fd5b50610338610cdf565b6040516103459190612709565b60405180910390f35b34801561035a57600080fd5b50610375600480360381019061037091906124ef565b610d9f565b604051610382919061254a565b60405180910390f35b34801561039757600080fd5b506103b260048036038101906103ad91906127ae565b610dd6565b005b3480156103c057600080fd5b506103db60048036038101906103d691906127db565b610e94565b6040516103e89190612709565b60405180910390f35b3480156103fd57600080fd5b50610406610ec2565b6040516104139190612709565b60405180910390f35b34801561042857600080fd5b50610431610eea565b60405161043e9190612709565b60405180910390f35b34801561045357600080fd5b5061046e60048036038101906104699190612824565b610ef4565b60405161047b9190612709565b60405180910390f35b34801561049057600080fd5b50610499610f3d565b6040516104a69190612709565b60405180910390f35b3480156104bb57600080fd5b506104d660048036038101906104d191906124ef565b610f43565b005b3480156104e457600080fd5b506104ff60048036038101906104fa91906124ef565b610f63565b005b34801561050d57600080fd5b5061051661108c565b005b34801561052457600080fd5b5061052d61123e565b005b34801561053b57600080fd5b50610544611305565b6040516105519190612860565b60405180910390f35b34801561056657600080fd5b5061056f61132d565b60405161057f9493929190612351565b60405180910390f35b34801561059457600080fd5b5061059d6113b5565b6040516105aa919061242f565b60405180910390f35b3480156105bf57600080fd5b506105c8611447565b6040516105d591906128da565b60405180910390f35b3480156105ea57600080fd5b5061060560048036038101906106009190612824565b611471565b005b34801561061357600080fd5b5061062e600480360381019061062991906124ef565b61157a565b60405161063b919061254a565b60405180910390f35b34801561065057600080fd5b5061066b600480360381019061066691906124ef565b6115f1565b604051610678919061254a565b60405180910390f35b34801561068d57600080fd5b506106a860048036038101906106a391906127db565b611614565b6040516106b59190612709565b60405180910390f35b3480156106ca57600080fd5b506106e560048036038101906106e091906128f5565b611642565b6040516106f29190612709565b60405180910390f35b600080600080609860405161070f9061298c565b908152602001604051809103902054609860405161072c906129ed565b908152602001604051809103902054609860405161074990612a4e565b908152602001604051809103902054609860405161076690612aaf565b908152602001604051809103902054935093509350935090919293565b60606036805461079290612af3565b80601f01602080910402602001604051908101604052809291908181526020018280546107be90612af3565b801561080b5780601f106107e05761010080835404028352916020019161080b565b820191906000526020600020905b8154815290600101906020018083116107ee57829003601f168201915b5050505050905090565b600080610820611821565b905061082d818585611829565b600191505092915050565b7f000000000000000000000000000000000000000000000000000000000000000073ffffffffffffffffffffffffffffffffffffffff163373ffffffffffffffffffffffffffffffffffffffff16146108c6576040517f08c379a00000000000000000000000000000000000000000000000000000000081526004016108bd90612b97565b60405180910390fd5b80826098826040516108d89190612be8565b908152602001604051809103902054816099846040516108f89190612be8565b9081526020016040518091039020546109119190612c2e565b11156109565781816040517fe8379cc400000000000000000000000000000000000000000000000000000000815260040161094d929190612c84565b60405180910390fd5b836099846040516109679190612be8565b9081526020016040518091039020546109809190612c2e565b6099846040516109909190612be8565b9081526020016040518091039020819055506109ac85856119f4565b7f2e01b6cac1db8ec7bbba20f52c7971dd718808586f301d3ef4c44df26e9cd21f8585856040516109df93929190612cb4565b60405180910390a15050505050565b6000603554905090565b600080610a03611821565b9050610a10858285611a93565b610a1b858585611b1f565b60019150509392505050565b3373ffffffffffffffffffffffffffffffffffffffff16313480821015610a7a576040517ff49beaed00000000000000000000000000000000000000000000000000000000815260040160405180910390fd5b600060646019610a88610ec2565b610a929190612cf2565b610a9c9190612d7b565b6099604051610aaa906129ed565b9081526020016040518091039020541015610ad057610ac96000611d9a565b9050610b5c565b60646019610adc610ec2565b610ae69190612cf2565b610af09190612d7b565b6064600f610afc610ec2565b610b069190612cf2565b610b109190612d7b565b610b1a9190612c2e565b6099604051610b28906129ed565b9081526020016040518091039020541015610b4e57610b476001611d9a565b9050610b5b565b610b586002611d9a565b90505b5b60007f000000000000000000000000000000000000000000000000000000000000000073ffffffffffffffffffffffffffffffffffffffff1634604051610ba290612ddd565b60006040518083038185875af1925050503d8060008114610bdf576040519150601f19603f3d011682016040523d82523d6000602084013e610be4565b606091505b5050905080610c1f576040517fa81dc2e800000000000000000000000000000000000000000000000000000000815260040160405180910390fd5b6000670de0b6b3a76400008334610c369190612cf2565b610c409190612d7b565b9050806099604051610c51906129ed565b908152602001604051809103902054610c6a9190612c2e565b6099604051610c78906129ed565b908152602001604051809103902081905550610c9433826119f4565b7fd69dd5c77c111946fad2dbb4a9f28e2ea0f77d1e9c1223a2ac8a787a3cadbc8e338285604051610cc793929190612df2565b60405180910390a15050505050565b60006012905090565b600080609b60009054906101000a900473ffffffffffffffffffffffffffffffffffffffff1673ffffffffffffffffffffffffffffffffffffffff1663feaf968c6040518163ffffffff1660e01b815260040160a06040518083038186803b158015610d4a57600080fd5b505afa158015610d5e573d6000803e3d6000fd5b505050506040513d601f19601f82011682018060405250810190610d829190612eb6565b5050509150506402540be40081610d999190612f31565b91505090565b600080610daa611821565b9050610dcb818585610dbc8589611642565b610dc69190612c2e565b611829565b600191505092915050565b610ddf33610ef4565b8180821015610e1a576040517ff49beaed00000000000000000000000000000000000000000000000000000000815260040160405180910390fd5b82609754610e289190612c2e565b609781905550610e5633610e3a610cd6565b600a610e46919061317b565b85610e519190612cf2565b611f69565b7fda4e31583a2259fe317cadb7a8df04c4ff0072abd596ee177b39d24894a2ec6b3384604051610e879291906131c6565b60405180910390a1505050565b6098818051602081018201805184825260208301602085012081835280955050505050506000915090505481565b60007f0000000000000000000000000000000000000000000000000000000000000000905090565b6000609754905090565b6000603360008373ffffffffffffffffffffffffffffffffffffffff1673ffffffffffffffffffffffffffffffffffffffff168152602001908152602001600020549050919050565b60975481565b610f5582610f4f611821565b83611a93565b610f5f8282611f69565b5050565b7f000000000000000000000000000000000000000000000000000000000000000073ffffffffffffffffffffffffffffffffffffffff163373ffffffffffffffffffffffffffffffffffffffff1614610ff1576040517f08c379a0000000000000000000000000000000000000000000000000000000008152600401610fe890612b97565b60405180910390fd5b609754818082101561102f576040517ff49beaed00000000000000000000000000000000000000000000000000000000815260040160405180910390fd5b8260975461103d91906131ef565b60978190555061104d84846119f4565b7f498789b97a924d6566d2d756b70ef5ea7f0720f0e6ed51845c77eda0afa092cb848460405161107e9291906131c6565b60405180910390a150505050565b60008060019054906101000a900460ff161590508080156110bd5750600160008054906101000a900460ff1660ff16105b806110ea57506110cc30612139565b1580156110e95750600160008054906101000a900460ff1660ff16145b5b611129576040517f08c379a000000000000000000000000000000000000000000000000000000000815260040161112090613295565b60405180910390fd5b60016000806101000a81548160ff021916908360ff1602179055508015611166576001600060016101000a81548160ff0219169083151502179055505b6111da6040518060400160405280600881526020017f426c7565426972640000000000000000000000000000000000000000000000008152506040518060400160405280600381526020017f424244000000000000000000000000000000000000000000000000000000000081525061215c565b6111e26121b9565b801561123b5760008060016101000a81548160ff0219169083151502179055507f7f26b83ff96e1f2b6a682f133852f6798a09c465da95921460cefb3847402498600160405161123291906132f0565b60405180910390a15b50565b7f000000000000000000000000000000000000000000000000000000000000000073ffffffffffffffffffffffffffffffffffffffff163373ffffffffffffffffffffffffffffffffffffffff16146112cc576040517f08c379a00000000000000000000000000000000000000000000000000000000081526004016112c390612b97565b60405180910390fd5b7f000000000000000000000000000000000000000000000000000000000000000073ffffffffffffffffffffffffffffffffffffffff16ff5b60007f0000000000000000000000000000000000000000000000000000000000000000905090565b60008060008060996040516113419061298c565b908152602001604051809103902054609960405161135e906129ed565b908152602001604051809103902054609960405161137b90612a4e565b908152602001604051809103902054609960405161139890612aaf565b908152602001604051809103902054935093509350935090919293565b6060603780546113c490612af3565b80601f01602080910402602001604051908101604052809291908181526020018280546113f090612af3565b801561143d5780601f106114125761010080835404028352916020019161143d565b820191906000526020600020905b81548152906001019060200180831161142057829003601f168201915b5050505050905090565b6000609b60009054906101000a900473ffffffffffffffffffffffffffffffffffffffff16905090565b7f000000000000000000000000000000000000000000000000000000000000000073ffffffffffffffffffffffffffffffffffffffff163373ffffffffffffffffffffffffffffffffffffffff16146114ff576040517f08c379a00000000000000000000000000000000000000000000000000000000081526004016114f690612b97565b60405180910390fd5b80609b60006101000a81548173ffffffffffffffffffffffffffffffffffffffff021916908373ffffffffffffffffffffffffffffffffffffffff1602179055507f0c8ac2008786a97973d123ada788ee2512dac4139ac736ef2994f2b3288d99b58160405161156f9190612860565b60405180910390a150565b600080611585611821565b905060006115938286611642565b9050838110156115d8576040517f08c379a00000000000000000000000000000000000000000000000000000000081526004016115cf9061337d565b60405180910390fd5b6115e58286868403611829565b60019250505092915050565b6000806115fc611821565b9050611609818585611b1f565b600191505092915050565b6099818051602081018201805184825260208301602085012081835280955050505050506000915090505481565b6000603460008473ffffffffffffffffffffffffffffffffffffffff1673ffffffffffffffffffffffffffffffffffffffff16815260200190815260200160002060008373ffffffffffffffffffffffffffffffffffffffff1673ffffffffffffffffffffffffffffffffffffffff16815260200190815260200160002054905092915050565b600073ffffffffffffffffffffffffffffffffffffffff168273ffffffffffffffffffffffffffffffffffffffff161415611739576040517f08c379a0000000000000000000000000000000000000000000000000000000008152600401611730906133e9565b60405180910390fd5b6117456000838361220a565b80603560008282546117579190612c2e565b9250508190555080603360008473ffffffffffffffffffffffffffffffffffffffff1673ffffffffffffffffffffffffffffffffffffffff168152602001908152602001600020600082825401925050819055508173ffffffffffffffffffffffffffffffffffffffff16600073ffffffffffffffffffffffffffffffffffffffff167fddf252ad1be2c89b69c2b068fc378daa952ba7f163c4a11628f55a4df523b3ef836040516118099190612709565b60405180910390a361181d6000838361220f565b5050565b600033905090565b600073ffffffffffffffffffffffffffffffffffffffff168373ffffffffffffffffffffffffffffffffffffffff161415611899576040517f08c379a00000000000000000000000000000000000000000000000000000000081526004016118909061347b565b60405180910390fd5b600073ffffffffffffffffffffffffffffffffffffffff168273ffffffffffffffffffffffffffffffffffffffff161415611909576040517f08c379a00000000000000000000000000000000000000000000000000000000081526004016119009061350d565b60405180910390fd5b80603460008573ffffffffffffffffffffffffffffffffffffffff1673ffffffffffffffffffffffffffffffffffffffff16815260200190815260200160002060008473ffffffffffffffffffffffffffffffffffffffff1673ffffffffffffffffffffffffffffffffffffffff168152602001908152602001600020819055508173ffffffffffffffffffffffffffffffffffffffff168373ffffffffffffffffffffffffffffffffffffffff167f8c5be1e5ebec7d5bd14f71427d1e84f3dd0314c0f7b2291e5b200ac8c7c3b925836040516119e79190612709565b60405180910390a3505050565b806119fd610ec2565b81611a06610cd6565b600a611a12919061317b565b611a1a6109ee565b611a249190612d7b565b611a2e9190612c2e565b1115611a66576040517f3e05993300000000000000000000000000000000000000000000000000000000815260040160405180910390fd5b611a8e83611a72610cd6565b600a611a7e919061317b565b84611a899190612cf2565b6116c9565b505050565b6000611a9f8484611642565b90507fffffffffffffffffffffffffffffffffffffffffffffffffffffffffffffffff8114611b195781811015611b0b576040517f08c379a0000000000000000000000000000000000000000000000000000000008152600401611b0290613579565b60405180910390fd5b611b188484848403611829565b5b50505050565b600073ffffffffffffffffffffffffffffffffffffffff168373ffffffffffffffffffffffffffffffffffffffff161415611b8f576040517f08c379a0000000000000000000000000000000000000000000000000000000008152600401611b869061360b565b60405180910390fd5b600073ffffffffffffffffffffffffffffffffffffffff168273ffffffffffffffffffffffffffffffffffffffff161415611bff576040517f08c379a0000000000000000000000000000000000000000000000000000000008152600401611bf69061369d565b60405180910390fd5b611c0a83838361220a565b6000603360008573ffffffffffffffffffffffffffffffffffffffff1673ffffffffffffffffffffffffffffffffffffffff16815260200190815260200160002054905081811015611c91576040517f08c379a0000000000000000000000000000000000000000000000000000000008152600401611c889061372f565b60405180910390fd5b818103603360008673ffffffffffffffffffffffffffffffffffffffff1673ffffffffffffffffffffffffffffffffffffffff1681526020019081526020016000208190555081603360008573ffffffffffffffffffffffffffffffffffffffff1673ffffffffffffffffffffffffffffffffffffffff168152602001908152602001600020600082825401925050819055508273ffffffffffffffffffffffffffffffffffffffff168473ffffffffffffffffffffffffffffffffffffffff167fddf252ad1be2c89b69c2b068fc378daa952ba7f163c4a11628f55a4df523b3ef84604051611d819190612709565b60405180910390a3611d9484848461220f565b50505050565b600080609b60009054906101000a900473ffffffffffffffffffffffffffffffffffffffff1673ffffffffffffffffffffffffffffffffffffffff1663feaf968c6040518163ffffffff1660e01b815260040160a06040518083038186803b158015611e0557600080fd5b505afa158015611e19573d6000803e3d6000fd5b505050506040513d601f19601f82011682018060405250810190611e3d9190612eb6565b50505091505060006402540be40082611e569190612f31565b90506000609a8560ff1660038110611e7157611e7061374f565b5b602091828204019190069054906101000a900460ff1660ff16905060008183611e9a9190612cf2565b9050670de0b6b3a76400006098604051611eb3906129ed565b908152602001604051809103902054611ecc9190612cf2565b81670de0b6b3a76400006099604051611ee4906129ed565b908152602001604051809103902054611efd9190612cf2565b611f079190612c2e565b1115611f5d57670de0b6b3a764000081611f219190612d7b565b6040517fe8379cc4000000000000000000000000000000000000000000000000000000008152600401611f5491906137a1565b60405180910390fd5b80945050505050919050565b600073ffffffffffffffffffffffffffffffffffffffff168273ffffffffffffffffffffffffffffffffffffffff161415611fd9576040517f08c379a0000000000000000000000000000000000000000000000000000000008152600401611fd090613841565b60405180910390fd5b611fe58260008361220a565b6000603360008473ffffffffffffffffffffffffffffffffffffffff1673ffffffffffffffffffffffffffffffffffffffff1681526020019081526020016000205490508181101561206c576040517f08c379a0000000000000000000000000000000000000000000000000000000008152600401612063906138d3565b60405180910390fd5b818103603360008573ffffffffffffffffffffffffffffffffffffffff1673ffffffffffffffffffffffffffffffffffffffff1681526020019081526020016000208190555081603560008282540392505081905550600073ffffffffffffffffffffffffffffffffffffffff168373ffffffffffffffffffffffffffffffffffffffff167fddf252ad1be2c89b69c2b068fc378daa952ba7f163c4a11628f55a4df523b3ef846040516121209190612709565b60405180910390a36121348360008461220f565b505050565b6000808273ffffffffffffffffffffffffffffffffffffffff163b119050919050565b600060019054906101000a900460ff166121ab576040517f08c379a00000000000000000000000000000000000000000000000000000000081526004016121a290613965565b60405180910390fd5b6121b58282612214565b5050565b600060019054906101000a900460ff16612208576040517f08c379a00000000000000000000000000000000000000000000000000000000081526004016121ff90613965565b60405180910390fd5b565b505050565b505050565b600060019054906101000a900460ff16612263576040517f08c379a000000000000000000000000000000000000000000000000000000000815260040161225a90613965565b60405180910390fd5b8160369080519060200190612279929190612295565b508060379080519060200190612290929190612295565b505050565b8280546122a190612af3565b90600052602060002090601f0160209004810192826122c3576000855561230a565b82601f106122dc57805160ff191683800117855561230a565b8280016001018555821561230a579182015b828111156123095782518255916020019190600101906122ee565b5b509050612317919061231b565b5090565b5b8082111561233457600081600090555060010161231c565b5090565b6000819050919050565b61234b81612338565b82525050565b60006080820190506123666000830187612342565b6123736020830186612342565b6123806040830185612342565b61238d6060830184612342565b95945050505050565b600081519050919050565b600082825260208201905092915050565b60005b838110156123d05780820151818401526020810190506123b5565b838111156123df576000848401525b50505050565b6000601f19601f8301169050919050565b600061240182612396565b61240b81856123a1565b935061241b8185602086016123b2565b612424816123e5565b840191505092915050565b6000602082019050818103600083015261244981846123f6565b905092915050565b6000604051905090565b600080fd5b600080fd5b600073ffffffffffffffffffffffffffffffffffffffff82169050919050565b600061249082612465565b9050919050565b6124a081612485565b81146124ab57600080fd5b50565b6000813590506124bd81612497565b92915050565b6124cc81612338565b81146124d757600080fd5b50565b6000813590506124e9816124c3565b92915050565b600080604083850312156125065761250561245b565b5b6000612514858286016124ae565b9250506020612525858286016124da565b9150509250929050565b60008115159050919050565b6125448161252f565b82525050565b600060208201905061255f600083018461253b565b92915050565b600080fd5b600080fd5b7f4e487b7100000000000000000000000000000000000000000000000000000000600052604160045260246000fd5b6125a7826123e5565b810181811067ffffffffffffffff821117156125c6576125c561256f565b5b80604052505050565b60006125d9612451565b90506125e5828261259e565b919050565b600067ffffffffffffffff8211156126055761260461256f565b5b61260e826123e5565b9050602081019050919050565b82818337600083830152505050565b600061263d612638846125ea565b6125cf565b9050828152602081018484840111156126595761265861256a565b5b61266484828561261b565b509392505050565b600082601f83011261268157612680612565565b5b813561269184826020860161262a565b91505092915050565b6000806000606084860312156126b3576126b261245b565b5b60006126c1868287016124ae565b93505060206126d2868287016124da565b925050604084013567ffffffffffffffff8111156126f3576126f2612460565b5b6126ff8682870161266c565b9150509250925092565b600060208201905061271e6000830184612342565b92915050565b60008060006060848603121561273d5761273c61245b565b5b600061274b868287016124ae565b935050602061275c868287016124ae565b925050604061276d868287016124da565b9150509250925092565b600060ff82169050919050565b61278d81612777565b82525050565b60006020820190506127a86000830184612784565b92915050565b6000602082840312156127c4576127c361245b565b5b60006127d2848285016124da565b91505092915050565b6000602082840312156127f1576127f061245b565b5b600082013567ffffffffffffffff81111561280f5761280e612460565b5b61281b8482850161266c565b91505092915050565b60006020828403121561283a5761283961245b565b5b6000612848848285016124ae565b91505092915050565b61285a81612485565b82525050565b60006020820190506128756000830184612851565b92915050565b6000819050919050565b60006128a061289b61289684612465565b61287b565b612465565b9050919050565b60006128b282612885565b9050919050565b60006128c4826128a7565b9050919050565b6128d4816128b9565b82525050565b60006020820190506128ef60008301846128cb565b92915050565b6000806040838503121561290c5761290b61245b565b5b600061291a858286016124ae565b925050602061292b858286016124ae565b9150509250929050565b600081905092915050565b7f666f6e646174696f6e4665650000000000000000000000000000000000000000600082015250565b6000612976600c83612935565b915061298182612940565b600c82019050919050565b600061299782612969565b9150819050919050565b7f65636f73797374656d0000000000000000000000000000000000000000000000600082015250565b60006129d7600983612935565b91506129e2826129a1565b600982019050919050565b60006129f8826129ca565b9150819050919050565b7f6d61726b6574696e674f696e76657374696d656e740000000000000000000000600082015250565b6000612a38601583612935565b9150612a4382612a02565b601582019050919050565b6000612a5982612a2b565b9150819050919050565b7f636f6e73756c74696e6700000000000000000000000000000000000000000000600082015250565b6000612a99600a83612935565b9150612aa482612a63565b600a82019050919050565b6000612aba82612a8c565b9150819050919050565b7f4e487b7100000000000000000000000000000000000000000000000000000000600052602260045260246000fd5b60006002820490506001821680612b0b57607f821691505b60208210811415612b1f57612b1e612ac4565b5b50919050565b7f4f6e6c7920746865206f776e65722063616e2063616c6c20746869732066756e60008201527f6374696f6e000000000000000000000000000000000000000000000000000000602082015250565b6000612b816025836123a1565b9150612b8c82612b25565b604082019050919050565b60006020820190508181036000830152612bb081612b74565b9050919050565b6000612bc282612396565b612bcc8185612935565b9350612bdc8185602086016123b2565b80840191505092915050565b6000612bf48284612bb7565b915081905092915050565b7f4e487b7100000000000000000000000000000000000000000000000000000000600052601160045260246000fd5b6000612c3982612338565b9150612c4483612338565b9250827fffffffffffffffffffffffffffffffffffffffffffffffffffffffffffffffff03821115612c7957612c78612bff565b5b828201905092915050565b60006040820190508181036000830152612c9e81856123f6565b9050612cad6020830184612342565b9392505050565b6000606082019050612cc96000830186612851565b612cd66020830185612342565b8181036040830152612ce881846123f6565b9050949350505050565b6000612cfd82612338565b9150612d0883612338565b9250817fffffffffffffffffffffffffffffffffffffffffffffffffffffffffffffffff0483118215151615612d4157612d40612bff565b5b828202905092915050565b7f4e487b7100000000000000000000000000000000000000000000000000000000600052601260045260246000fd5b6000612d8682612338565b9150612d9183612338565b925082612da157612da0612d4c565b5b828204905092915050565b600081905092915050565b50565b6000612dc7600083612dac565b9150612dd282612db7565b600082019050919050565b6000612de882612dba565b9150819050919050565b6000606082019050612e076000830186612851565b612e146020830185612342565b612e216040830184612342565b949350505050565b600069ffffffffffffffffffff82169050919050565b612e4881612e29565b8114612e5357600080fd5b50565b600081519050612e6581612e3f565b92915050565b6000819050919050565b612e7e81612e6b565b8114612e8957600080fd5b50565b600081519050612e9b81612e75565b92915050565b600081519050612eb0816124c3565b92915050565b600080600080600060a08688031215612ed257612ed161245b565b5b6000612ee088828901612e56565b9550506020612ef188828901612e8c565b9450506040612f0288828901612ea1565b9350506060612f1388828901612ea1565b9250506080612f2488828901612e56565b9150509295509295909350565b6000612f3c82612e6b565b9150612f4783612e6b565b9250827f7fffffffffffffffffffffffffffffffffffffffffffffffffffffffffffffff0482116000841360008413161615612f8657612f85612bff565b5b817f80000000000000000000000000000000000000000000000000000000000000000583126000841260008413161615612fc357612fc2612bff565b5b827f8000000000000000000000000000000000000000000000000000000000000000058212600084136000841216161561300057612fff612bff565b5b827f7fffffffffffffffffffffffffffffffffffffffffffffffffffffffffffffff058212600084126000841216161561303d5761303c612bff565b5b828202905092915050565b60008160011c9050919050565b6000808291508390505b600185111561309f5780860481111561307b5761307a612bff565b5b600185161561308a5780820291505b808102905061309885613048565b945061305f565b94509492505050565b6000826130b85760019050613174565b816130c65760009050613174565b81600181146130dc57600281146130e657613115565b6001915050613174565b60ff8411156130f8576130f7612bff565b5b8360020a91508482111561310f5761310e612bff565b5b50613174565b5060208310610133831016604e8410600b841016171561314a5782820a90508381111561314557613144612bff565b5b613174565b6131578484846001613055565b9250905081840481111561316e5761316d612bff565b5b81810290505b9392505050565b600061318682612338565b915061319183612777565b92506131be7fffffffffffffffffffffffffffffffffffffffffffffffffffffffffffffffff84846130a8565b905092915050565b60006040820190506131db6000830185612851565b6131e86020830184612342565b9392505050565b60006131fa82612338565b915061320583612338565b92508282101561321857613217612bff565b5b828203905092915050565b7f496e697469616c697a61626c653a20636f6e747261637420697320616c72656160008201527f647920696e697469616c697a6564000000000000000000000000000000000000602082015250565b600061327f602e836123a1565b915061328a82613223565b604082019050919050565b600060208201905081810360008301526132ae81613272565b9050919050565b6000819050919050565b60006132da6132d56132d0846132b5565b61287b565b612777565b9050919050565b6132ea816132bf565b82525050565b600060208201905061330560008301846132e1565b92915050565b7f45524332303a2064656372656173656420616c6c6f77616e63652062656c6f7760008201527f207a65726f000000000000000000000000000000000000000000000000000000602082015250565b60006133676025836123a1565b91506133728261330b565b604082019050919050565b600060208201905081810360008301526133968161335a565b9050919050565b7f45524332303a206d696e7420746f20746865207a65726f206164647265737300600082015250565b60006133d3601f836123a1565b91506133de8261339d565b602082019050919050565b60006020820190508181036000830152613402816133c6565b9050919050565b7f45524332303a20617070726f76652066726f6d20746865207a65726f2061646460008201527f7265737300000000000000000000000000000000000000000000000000000000602082015250565b60006134656024836123a1565b915061347082613409565b604082019050919050565b6000602082019050818103600083015261349481613458565b9050919050565b7f45524332303a20617070726f766520746f20746865207a65726f20616464726560008201527f7373000000000000000000000000000000000000000000000000000000000000602082015250565b60006134f76022836123a1565b91506135028261349b565b604082019050919050565b60006020820190508181036000830152613526816134ea565b9050919050565b7f45524332303a20696e73756666696369656e7420616c6c6f77616e6365000000600082015250565b6000613563601d836123a1565b915061356e8261352d565b602082019050919050565b6000602082019050818103600083015261359281613556565b9050919050565b7f45524332303a207472616e736665722066726f6d20746865207a65726f20616460008201527f6472657373000000000000000000000000000000000000000000000000000000602082015250565b60006135f56025836123a1565b915061360082613599565b604082019050919050565b60006020820190508181036000830152613624816135e8565b9050919050565b7f45524332303a207472616e7366657220746f20746865207a65726f206164647260008201527f6573730000000000000000000000000000000000000000000000000000000000602082015250565b60006136876023836123a1565b91506136928261362b565b604082019050919050565b600060208201905081810360008301526136b68161367a565b9050919050565b7f45524332303a207472616e7366657220616d6f756e742065786365656473206260008201527f616c616e63650000000000000000000000000000000000000000000000000000602082015250565b60006137196026836123a1565b9150613724826136bd565b604082019050919050565b600060208201905081810360008301526137488161370c565b9050919050565b7f4e487b7100000000000000000000000000000000000000000000000000000000600052603260045260246000fd5b600061378b6009836123a1565b9150613796826129a1565b602082019050919050565b600060408201905081810360008301526137ba8161377e565b90506137c96020830184612342565b92915050565b7f45524332303a206275726e2066726f6d20746865207a65726f2061646472657360008201527f7300000000000000000000000000000000000000000000000000000000000000602082015250565b600061382b6021836123a1565b9150613836826137cf565b604082019050919050565b6000602082019050818103600083015261385a8161381e565b9050919050565b7f45524332303a206275726e20616d6f756e7420657863656564732062616c616e60008201527f6365000000000000000000000000000000000000000000000000000000000000602082015250565b60006138bd6022836123a1565b91506138c882613861565b604082019050919050565b600060208201905081810360008301526138ec816138b0565b9050919050565b7f496e697469616c697a61626c653a20636f6e7472616374206973206e6f74206960008201527f6e697469616c697a696e67000000000000000000000000000000000000000000602082015250565b600061394f602b836123a1565b915061395a826138f3565b604082019050919050565b6000602082019050818103600083015261397e81613942565b905091905056fea2646970667358221220be78e21f1c98fdb5256bfdcbc4f38f65682709cf1411bd4222b3a31be4e6517764736f6c63430008090033",
  "devdoc": {
    "author": "Samuele Chiesa",
    "details": "The contract is upgradeable and uses openzeppeling lib",
    "kind": "dev",
    "methods": {
      "aggregatorUpgrade(address)": {
        "details": "AggregatorV3Interface is the base of the mint from Matic",
        "params": {
          "newpriceFeedAdd": "New address AggregatorV3Interface"
        }
      },
      "allowance(address,address)": {
        "details": "See {IERC20-allowance}."
      },
      "approve(address,uint256)": {
        "details": "See {IERC20-approve}. NOTE: If `amount` is the maximum `uint256`, the allowance is not updated on `transferFrom`. This is semantically equivalent to an infinite approval. Requirements: - `spender` cannot be the zero address."
      },
      "balanceOf(address)": {
        "details": "See {IERC20-balanceOf}."
      },
      "burn(uint256)": {
        "params": {
          "amount": "The number of token will burn"
        }
      },
      "burnFrom(address,uint256)": {
        "details": "Destroys `amount` tokens from `account`, deducting from the caller's allowance. See {ERC20-_burn} and {ERC20-allowance}. Requirements: - the caller must have allowance for ``accounts``'s tokens of at least `amount`."
      },
      "constructor": {
        "details": "In the constructor are define the mint cap for each entites and the mint state",
        "params": {
          "priceFeedAdd": "Address AggregatorV3Interface"
        }
      },
      "decimals()": {
        "details": "Returns the number of decimals used to get its user representation. For example, if `decimals` equals `2`, a balance of `505` tokens should be displayed to a user as `5.05` (`505 / 10 ** 2`). Tokens usually opt for a value of 18, imitating the relationship between Ether and Wei. This is the value {ERC20} uses, unless this function is overridden; NOTE: This information is only used for _display_ purposes: it in no way affects any of the arithmetic of the contract, including {IERC20-balanceOf} and {IERC20-transfer}."
      },
      "decreaseAllowance(address,uint256)": {
        "details": "Atomically decreases the allowance granted to `spender` by the caller. This is an alternative to {approve} that can be used as a mitigation for problems described in {IERC20-approve}. Emits an {Approval} event indicating the updated allowance. Requirements: - `spender` cannot be the zero address. - `spender` must have allowance for the caller of at least `subtractedValue`."
      },
      "getBurned()": {
        "returns": {
          "_0": "return the owner of the contract"
        }
      },
      "getCap()": {
        "returns": {
          "_0": "return the maximum capilazation"
        }
      },
      "getMaticRate()": {
        "details": "The function are create for the test"
      },
      "getMinter4amount()": {
        "details": "The function are create for the test"
      },
      "getMinter4minted()": {
        "details": "The function are create for the test"
      },
      "getOwner()": {
        "returns": {
          "_0": "return the owner of the contract"
        }
      },
      "getPriceFeed()": {
        "details": "The function are create for the test"
      },
      "increaseAllowance(address,uint256)": {
        "details": "Atomically increases the allowance granted to `spender` by the caller. This is an alternative to {approve} that can be used as a mitigation for problems described in {IERC20-approve}. Emits an {Approval} event indicating the updated allowance. Requirements: - `spender` cannot be the zero address."
      },
      "initialize()": {
        "details": "This function is used to make the contract upgradeable"
      },
      "mintBurn(address,uint256)": {
        "params": {
          "account": "The account will recieve the money",
          "amount": "The number of token will sent to the account"
        }
      },
      "mintDirectly(address,uint256,string)": {
        "details": "Only the owner can call this function and the state of mint will upgrade",
        "params": {
          "_amount": "The number of token will sent to the account",
          "account": "The account will recieve the money",
          "typeMining": "In base of the type choose between: fondationFee, ecosystem, marketingOinvestiment and developing"
        }
      },
      "mintFromMatic()": {
        "details": "Based on the number of matic and mint level, the number of tokens to be sent is defined"
      },
      "name()": {
        "details": "Returns the name of the token."
      },
      "symbol()": {
        "details": "Returns the symbol of the token, usually a shorter version of the name."
      },
      "totalSupply()": {
        "details": "See {IERC20-totalSupply}."
      },
      "transfer(address,uint256)": {
        "details": "See {IERC20-transfer}. Requirements: - `to` cannot be the zero address. - the caller must have a balance of at least `amount`."
      },
      "transferFrom(address,address,uint256)": {
        "details": "See {IERC20-transferFrom}. Emits an {Approval} event indicating the updated allowance. This is not required by the EIP. See the note at the beginning of {ERC20}. NOTE: Does not update the allowance if the current allowance is the maximum `uint256`. Requirements: - `from` and `to` cannot be the zero address. - `from` must have a balance of at least `amount`. - the caller must have allowance for ``from``'s tokens of at least `amount`."
      }
    },
    "title": "BLUE BIRD ERC20",
    "version": 1
  },
  "userdoc": {
    "kind": "user",
    "methods": {
      "aggregatorUpgrade(address)": {
        "notice": "AggregatorV3Interface upgrade allows to upgrade the contract from which we take the Matic/USD exchange rate  "
      },
      "burn(uint256)": {
        "notice": "The function allows to burn tokens"
      },
      "mintBurn(address,uint256)": {
        "notice": "The function allows previously burned tokens to be mint"
      },
      "mintDirectly(address,uint256,string)": {
        "notice": "mintDirectly allows the contract owner to distribute the tokens directly to any investors and all other entities. "
      },
      "mintFromMatic()": {
        "notice": "The function allows to mint tokens by sending Matic"
      }
    },
    "notice": "The contract is write for Marco Liu, creator of BlueBird project. This code had the scope to create a new token ERC20",
    "version": 1
  },
  "storageLayout": {
    "storage": [
      {
        "astId": 52,
        "contract": "contracts/BlueBird.sol:BlueBird",
        "label": "_initialized",
        "offset": 0,
        "slot": "0",
        "type": "t_uint8"
      },
      {
        "astId": 55,
        "contract": "contracts/BlueBird.sol:BlueBird",
        "label": "_initializing",
        "offset": 1,
        "slot": "0",
        "type": "t_bool"
      },
      {
        "astId": 1318,
        "contract": "contracts/BlueBird.sol:BlueBird",
        "label": "__gap",
        "offset": 0,
        "slot": "1",
        "type": "t_array(t_uint256)50_storage"
      },
      {
        "astId": 233,
        "contract": "contracts/BlueBird.sol:BlueBird",
        "label": "_balances",
        "offset": 0,
        "slot": "51",
        "type": "t_mapping(t_address,t_uint256)"
      },
      {
        "astId": 239,
        "contract": "contracts/BlueBird.sol:BlueBird",
        "label": "_allowances",
        "offset": 0,
        "slot": "52",
        "type": "t_mapping(t_address,t_mapping(t_address,t_uint256))"
      },
      {
        "astId": 241,
        "contract": "contracts/BlueBird.sol:BlueBird",
        "label": "_totalSupply",
        "offset": 0,
        "slot": "53",
        "type": "t_uint256"
      },
      {
        "astId": 243,
        "contract": "contracts/BlueBird.sol:BlueBird",
        "label": "_name",
        "offset": 0,
        "slot": "54",
        "type": "t_string_storage"
      },
      {
        "astId": 245,
        "contract": "contracts/BlueBird.sol:BlueBird",
        "label": "_symbol",
        "offset": 0,
        "slot": "55",
        "type": "t_string_storage"
      },
      {
        "astId": 825,
        "contract": "contracts/BlueBird.sol:BlueBird",
        "label": "__gap",
        "offset": 0,
        "slot": "56",
        "type": "t_array(t_uint256)45_storage"
      },
      {
        "astId": 967,
        "contract": "contracts/BlueBird.sol:BlueBird",
        "label": "__gap",
        "offset": 0,
        "slot": "101",
        "type": "t_array(t_uint256)50_storage"
      },
      {
        "astId": 1340,
        "contract": "contracts/BlueBird.sol:BlueBird",
        "label": "burned",
        "offset": 0,
        "slot": "151",
        "type": "t_uint256"
      },
      {
        "astId": 1344,
        "contract": "contracts/BlueBird.sol:BlueBird",
        "label": "minter4amount",
        "offset": 0,
        "slot": "152",
        "type": "t_mapping(t_string_memory_ptr,t_uint256)"
      },
      {
        "astId": 1348,
        "contract": "contracts/BlueBird.sol:BlueBird",
        "label": "minter4minted",
        "offset": 0,
        "slot": "153",
        "type": "t_mapping(t_string_memory_ptr,t_uint256)"
      },
      {
        "astId": 1356,
        "contract": "contracts/BlueBird.sol:BlueBird",
        "label": "miningPrice",
        "offset": 0,
        "slot": "154",
        "type": "t_array(t_uint8)3_storage"
      },
      {
        "astId": 1359,
        "contract": "contracts/BlueBird.sol:BlueBird",
        "label": "priceFeed",
        "offset": 0,
        "slot": "155",
        "type": "t_contract(AggregatorV3Interface)45"
      }
    ],
    "types": {
      "t_address": {
        "encoding": "inplace",
        "label": "address",
        "numberOfBytes": "20"
      },
      "t_array(t_uint256)45_storage": {
        "base": "t_uint256",
        "encoding": "inplace",
        "label": "uint256[45]",
        "numberOfBytes": "1440"
      },
      "t_array(t_uint256)50_storage": {
        "base": "t_uint256",
        "encoding": "inplace",
        "label": "uint256[50]",
        "numberOfBytes": "1600"
      },
      "t_array(t_uint8)3_storage": {
        "base": "t_uint8",
        "encoding": "inplace",
        "label": "uint8[3]",
        "numberOfBytes": "32"
      },
      "t_bool": {
        "encoding": "inplace",
        "label": "bool",
        "numberOfBytes": "1"
      },
      "t_contract(AggregatorV3Interface)45": {
        "encoding": "inplace",
        "label": "contract AggregatorV3Interface",
        "numberOfBytes": "20"
      },
      "t_mapping(t_address,t_mapping(t_address,t_uint256))": {
        "encoding": "mapping",
        "key": "t_address",
        "label": "mapping(address => mapping(address => uint256))",
        "numberOfBytes": "32",
        "value": "t_mapping(t_address,t_uint256)"
      },
      "t_mapping(t_address,t_uint256)": {
        "encoding": "mapping",
        "key": "t_address",
        "label": "mapping(address => uint256)",
        "numberOfBytes": "32",
        "value": "t_uint256"
      },
      "t_mapping(t_string_memory_ptr,t_uint256)": {
        "encoding": "mapping",
        "key": "t_string_memory_ptr",
        "label": "mapping(string => uint256)",
        "numberOfBytes": "32",
        "value": "t_uint256"
      },
      "t_string_memory_ptr": {
        "encoding": "bytes",
        "label": "string",
        "numberOfBytes": "32"
      },
      "t_string_storage": {
        "encoding": "bytes",
        "label": "string",
        "numberOfBytes": "32"
      },
      "t_uint256": {
        "encoding": "inplace",
        "label": "uint256",
        "numberOfBytes": "32"
      },
      "t_uint8": {
        "encoding": "inplace",
        "label": "uint8",
        "numberOfBytes": "1"
      }
    }
  }
}