{
  "address": "0x56D58431190C86373056352e690e8322353a4055",
  "abi": [
    {
      "inputs": [
        {
          "internalType": "address",
          "name": "priceFeedAdd",
          "type": "address"
        }
      ],
      "stateMutability": "nonpayable",
      "type": "constructor"
    },
    {
      "inputs": [],
      "name": "BlueBird__ErrorBilancio",
      "type": "error"
    },
    {
      "inputs": [],
      "name": "BlueBird__ErrorCall",
      "type": "error"
    },
    {
      "inputs": [],
      "name": "BlueBird__ErrorERC20Capped",
      "type": "error"
    },
    {
      "inputs": [
        {
          "internalType": "string",
          "name": "",
          "type": "string"
        },
        {
          "internalType": "uint256",
          "name": "",
          "type": "uint256"
        }
      ],
      "name": "BlueBird__ErrorMint",
      "type": "error"
    },
    {
      "anonymous": false,
      "inputs": [
        {
          "indexed": true,
          "internalType": "address",
          "name": "owner",
          "type": "address"
        },
        {
          "indexed": true,
          "internalType": "address",
          "name": "spender",
          "type": "address"
        },
        {
          "indexed": false,
          "internalType": "uint256",
          "name": "value",
          "type": "uint256"
        }
      ],
      "name": "Approval",
      "type": "event"
    },
    {
      "anonymous": false,
      "inputs": [
        {
          "indexed": true,
          "internalType": "address",
          "name": "from",
          "type": "address"
        },
        {
          "indexed": true,
          "internalType": "address",
          "name": "to",
          "type": "address"
        },
        {
          "indexed": false,
          "internalType": "uint256",
          "name": "value",
          "type": "uint256"
        }
      ],
      "name": "Transfer",
      "type": "event"
    },
    {
      "anonymous": false,
      "inputs": [
        {
          "indexed": false,
          "internalType": "address",
          "name": "",
          "type": "address"
        }
      ],
      "name": "aggregatorUpgradeEvent",
      "type": "event"
    },
    {
      "anonymous": false,
      "inputs": [
        {
          "indexed": false,
          "internalType": "address",
          "name": "",
          "type": "address"
        },
        {
          "indexed": false,
          "internalType": "uint256",
          "name": "",
          "type": "uint256"
        }
      ],
      "name": "burnEvent",
      "type": "event"
    },
    {
      "anonymous": false,
      "inputs": [
        {
          "indexed": false,
          "internalType": "address",
          "name": "",
          "type": "address"
        },
        {
          "indexed": false,
          "internalType": "uint256",
          "name": "",
          "type": "uint256"
        }
      ],
      "name": "mintBurnEvent",
      "type": "event"
    },
    {
      "anonymous": false,
      "inputs": [
        {
          "indexed": false,
          "internalType": "address",
          "name": "",
          "type": "address"
        },
        {
          "indexed": false,
          "internalType": "uint256",
          "name": "",
          "type": "uint256"
        },
        {
          "indexed": false,
          "internalType": "string",
          "name": "",
          "type": "string"
        }
      ],
      "name": "mintDirectlyEvent",
      "type": "event"
    },
    {
      "anonymous": false,
      "inputs": [
        {
          "indexed": false,
          "internalType": "address",
          "name": "",
          "type": "address"
        },
        {
          "indexed": false,
          "internalType": "uint256",
          "name": "",
          "type": "uint256"
        },
        {
          "indexed": false,
          "internalType": "uint256",
          "name": "",
          "type": "uint256"
        }
      ],
      "name": "mintFromMaticEvent",
      "type": "event"
    },
    {
      "inputs": [
        {
          "internalType": "address",
          "name": "newpriceFeedAdd",
          "type": "address"
        }
      ],
      "name": "aggregatorUpgrade",
      "outputs": [],
      "stateMutability": "nonpayable",
      "type": "function"
    },
    {
      "inputs": [
        {
          "internalType": "address",
          "name": "owner",
          "type": "address"
        },
        {
          "internalType": "address",
          "name": "spender",
          "type": "address"
        }
      ],
      "name": "allowance",
      "outputs": [
        {
          "internalType": "uint256",
          "name": "",
          "type": "uint256"
        }
      ],
      "stateMutability": "view",
      "type": "function"
    },
    {
      "inputs": [
        {
          "internalType": "address",
          "name": "spender",
          "type": "address"
        },
        {
          "internalType": "uint256",
          "name": "amount",
          "type": "uint256"
        }
      ],
      "name": "approve",
      "outputs": [
        {
          "internalType": "bool",
          "name": "",
          "type": "bool"
        }
      ],
      "stateMutability": "nonpayable",
      "type": "function"
    },
    {
      "inputs": [
        {
          "internalType": "address",
          "name": "account",
          "type": "address"
        }
      ],
      "name": "balanceOf",
      "outputs": [
        {
          "internalType": "uint256",
          "name": "",
          "type": "uint256"
        }
      ],
      "stateMutability": "view",
      "type": "function"
    },
    {
      "inputs": [
        {
          "internalType": "uint256",
          "name": "amount",
          "type": "uint256"
        }
      ],
      "name": "burn",
      "outputs": [],
      "stateMutability": "nonpayable",
      "type": "function"
    },
    {
      "inputs": [
        {
          "internalType": "address",
          "name": "account",
          "type": "address"
        },
        {
          "internalType": "uint256",
          "name": "amount",
          "type": "uint256"
        }
      ],
      "name": "burnFrom",
      "outputs": [],
      "stateMutability": "nonpayable",
      "type": "function"
    },
    {
      "inputs": [],
      "name": "decimals",
      "outputs": [
        {
          "internalType": "uint8",
          "name": "",
          "type": "uint8"
        }
      ],
      "stateMutability": "view",
      "type": "function"
    },
    {
      "inputs": [
        {
          "internalType": "address",
          "name": "spender",
          "type": "address"
        },
        {
          "internalType": "uint256",
          "name": "subtractedValue",
          "type": "uint256"
        }
      ],
      "name": "decreaseAllowance",
      "outputs": [
        {
          "internalType": "bool",
          "name": "",
          "type": "bool"
        }
      ],
      "stateMutability": "nonpayable",
      "type": "function"
    },
    {
      "inputs": [],
      "name": "destroy",
      "outputs": [],
      "stateMutability": "nonpayable",
      "type": "function"
    },
    {
      "inputs": [],
      "name": "getBurned",
      "outputs": [
        {
          "internalType": "uint256",
          "name": "",
          "type": "uint256"
        }
      ],
      "stateMutability": "view",
      "type": "function"
    },
    {
      "inputs": [],
      "name": "getCap",
      "outputs": [
        {
          "internalType": "uint256",
          "name": "",
          "type": "uint256"
        }
      ],
      "stateMutability": "view",
      "type": "function"
    },
    {
      "inputs": [],
      "name": "getMaticRate",
      "outputs": [
        {
          "internalType": "uint256",
          "name": "result",
          "type": "uint256"
        }
      ],
      "stateMutability": "view",
      "type": "function"
    },
    {
      "inputs": [],
      "name": "getMinter4amount",
      "outputs": [
        {
          "internalType": "uint256",
          "name": "",
          "type": "uint256"
        },
        {
          "internalType": "uint256",
          "name": "",
          "type": "uint256"
        },
        {
          "internalType": "uint256",
          "name": "",
          "type": "uint256"
        },
        {
          "internalType": "uint256",
          "name": "",
          "type": "uint256"
        }
      ],
      "stateMutability": "view",
      "type": "function"
    },
    {
      "inputs": [],
      "name": "getMinter4minted",
      "outputs": [
        {
          "internalType": "uint256",
          "name": "",
          "type": "uint256"
        },
        {
          "internalType": "uint256",
          "name": "",
          "type": "uint256"
        },
        {
          "internalType": "uint256",
          "name": "",
          "type": "uint256"
        },
        {
          "internalType": "uint256",
          "name": "",
          "type": "uint256"
        }
      ],
      "stateMutability": "view",
      "type": "function"
    },
    {
      "inputs": [],
      "name": "getOwner",
      "outputs": [
        {
          "internalType": "address",
          "name": "",
          "type": "address"
        }
      ],
      "stateMutability": "view",
      "type": "function"
    },
    {
      "inputs": [],
      "name": "getPriceFeed",
      "outputs": [
        {
          "internalType": "contract AggregatorV3Interface",
          "name": "",
          "type": "address"
        }
      ],
      "stateMutability": "view",
      "type": "function"
    },
    {
      "inputs": [
        {
          "internalType": "address",
          "name": "spender",
          "type": "address"
        },
        {
          "internalType": "uint256",
          "name": "addedValue",
          "type": "uint256"
        }
      ],
      "name": "increaseAllowance",
      "outputs": [
        {
          "internalType": "bool",
          "name": "",
          "type": "bool"
        }
      ],
      "stateMutability": "nonpayable",
      "type": "function"
    },
    {
      "inputs": [
        {
          "internalType": "address",
          "name": "account",
          "type": "address"
        },
        {
          "internalType": "uint256",
          "name": "amount",
          "type": "uint256"
        }
      ],
      "name": "mintBurn",
      "outputs": [],
      "stateMutability": "nonpayable",
      "type": "function"
    },
    {
      "inputs": [
        {
          "internalType": "address",
          "name": "account",
          "type": "address"
        },
        {
          "internalType": "uint256",
          "name": "_amount",
          "type": "uint256"
        },
        {
          "internalType": "string",
          "name": "typeMining",
          "type": "string"
        }
      ],
      "name": "mintDirectly",
      "outputs": [],
      "stateMutability": "nonpayable",
      "type": "function"
    },
    {
      "inputs": [],
      "name": "mintFromMatic",
      "outputs": [],
      "stateMutability": "payable",
      "type": "function"
    },
    {
      "inputs": [
        {
          "internalType": "string",
          "name": "",
          "type": "string"
        }
      ],
      "name": "minter4amount",
      "outputs": [
        {
          "internalType": "uint256",
          "name": "",
          "type": "uint256"
        }
      ],
      "stateMutability": "view",
      "type": "function"
    },
    {
      "inputs": [
        {
          "internalType": "string",
          "name": "",
          "type": "string"
        }
      ],
      "name": "minter4minted",
      "outputs": [
        {
          "internalType": "uint256",
          "name": "",
          "type": "uint256"
        }
      ],
      "stateMutability": "view",
      "type": "function"
    },
    {
      "inputs": [],
      "name": "name",
      "outputs": [
        {
          "internalType": "string",
          "name": "",
          "type": "string"
        }
      ],
      "stateMutability": "view",
      "type": "function"
    },
    {
      "inputs": [],
      "name": "symbol",
      "outputs": [
        {
          "internalType": "string",
          "name": "",
          "type": "string"
        }
      ],
      "stateMutability": "view",
      "type": "function"
    },
    {
      "inputs": [],
      "name": "totalSupply",
      "outputs": [
        {
          "internalType": "uint256",
          "name": "",
          "type": "uint256"
        }
      ],
      "stateMutability": "view",
      "type": "function"
    },
    {
      "inputs": [
        {
          "internalType": "address",
          "name": "to",
          "type": "address"
        },
        {
          "internalType": "uint256",
          "name": "amount",
          "type": "uint256"
        }
      ],
      "name": "transfer",
      "outputs": [
        {
          "internalType": "bool",
          "name": "",
          "type": "bool"
        }
      ],
      "stateMutability": "nonpayable",
      "type": "function"
    },
    {
      "inputs": [
        {
          "internalType": "address",
          "name": "from",
          "type": "address"
        },
        {
          "internalType": "address",
          "name": "to",
          "type": "address"
        },
        {
          "internalType": "uint256",
          "name": "amount",
          "type": "uint256"
        }
      ],
      "name": "transferFrom",
      "outputs": [
        {
          "internalType": "bool",
          "name": "",
          "type": "bool"
        }
      ],
      "stateMutability": "nonpayable",
      "type": "function"
    }
  ],
  "transactionHash": "0x8f2ae3325801314c458501be03b4b79214be55e9c58c9399f5b9776c514d1b0b",
  "args": [
    "0xd0D5e3DB44DE05E9F294BB0a3bEEaF030DE24Ada"
  ],
  "numDeployments": 64,
  "solcInputHash": "1ecf882a42fa836e99bcce25fca84582",
  "bytecode": "0x60c0604052633b9aca0060a0908152506000600560006101000a81548160ff0219169083151502179055506040518060600160405280607d60ff168152602001606460ff168152602001603260ff168152506009906003620000639291906200063f565b503480156200007157600080fd5b5060405162004271380380620042718339818101604052810190620000979190620007fa565b6040518060400160405280600881526020017f426c7565426972640000000000000000000000000000000000000000000000008152506040518060400160405280600381526020017f424244000000000000000000000000000000000000000000000000000000000081525081600390805190602001906200011b929190620006e0565b50806004908051906020019062000134929190620006e0565b5050503373ffffffffffffffffffffffffffffffffffffffff1660808173ffffffffffffffffffffffffffffffffffffffff16815250506064600860a0516200017e919062000865565b6200018a9190620008f5565b60076040516200019a9062000988565b9081526020016040518091039020819055506064603a60a051620001bf919062000865565b620001cb9190620008f5565b6007604051620001db90620009ef565b9081526020016040518091039020819055506064601860a05162000200919062000865565b6200020c9190620008f5565b60076040516200021c9062000a56565b9081526020016040518091039020819055506064600a60a05162000241919062000865565b6200024d9190620008f5565b60076040516200025d9062000abd565b908152602001604051809103902081905550606460026064600860a05162000286919062000865565b620002929190620008f5565b6200029e919062000865565b620002aa9190620008f5565b6008604051620002ba9062000988565b90815260200160405180910390208190555060006008604051620002de90620009ef565b90815260200160405180910390208190555060006008604051620003029062000a56565b90815260200160405180910390208190555060006008604051620003269062000abd565b90815260200160405180910390208190555080600a60006101000a81548173ffffffffffffffffffffffffffffffffffffffff021916908373ffffffffffffffffffffffffffffffffffffffff160217905550620003dc608051670de0b6b3a7640000606460026064600860a051620003a0919062000865565b620003ac9190620008f5565b620003b8919062000865565b620003c49190620008f5565b620003d0919062000865565b620003e360201b60201c565b5062000df9565b80670de0b6b3a7640000620003fd6200048060201b60201c565b62000409919062000865565b816200041f620004b460201b620009991760201c565b6200042b919062000ad4565b111562000464576040517f3e05993300000000000000000000000000000000000000000000000000000000815260040160405180910390fd5b6200047b8383620004be60201b620014d41760201c565b505050565b6000620004926200062c60201b60201c565b600a620004a0919062000c92565b60a051620004af919062000865565b905090565b6000600254905090565b600073ffffffffffffffffffffffffffffffffffffffff168273ffffffffffffffffffffffffffffffffffffffff16141562000531576040517f08c379a0000000000000000000000000000000000000000000000000000000008152600401620005289062000d44565b60405180910390fd5b62000545600083836200063560201b60201c565b806002600082825462000559919062000ad4565b92505081905550806000808473ffffffffffffffffffffffffffffffffffffffff1673ffffffffffffffffffffffffffffffffffffffff168152602001908152602001600020600082825401925050819055508173ffffffffffffffffffffffffffffffffffffffff16600073ffffffffffffffffffffffffffffffffffffffff167fddf252ad1be2c89b69c2b068fc378daa952ba7f163c4a11628f55a4df523b3ef836040516200060c919062000d77565b60405180910390a362000628600083836200063a60201b60201c565b5050565b60006012905090565b505050565b505050565b826003601f01602090048101928215620006cd5791602002820160005b838211156200069c57835183826101000a81548160ff021916908360ff16021790555092602001926001016020816000010492830192600103026200065c565b8015620006cb5782816101000a81549060ff02191690556001016020816000010492830192600103026200069c565b505b509050620006dc919062000771565b5090565b828054620006ee9062000dc3565b90600052602060002090601f0160209004810192826200071257600085556200075e565b82601f106200072d57805160ff19168380011785556200075e565b828001600101855582156200075e579182015b828111156200075d57825182559160200191906001019062000740565b5b5090506200076d919062000771565b5090565b5b808211156200078c57600081600090555060010162000772565b5090565b600080fd5b600073ffffffffffffffffffffffffffffffffffffffff82169050919050565b6000620007c28262000795565b9050919050565b620007d481620007b5565b8114620007e057600080fd5b50565b600081519050620007f481620007c9565b92915050565b60006020828403121562000813576200081262000790565b5b60006200082384828501620007e3565b91505092915050565b6000819050919050565b7f4e487b7100000000000000000000000000000000000000000000000000000000600052601160045260246000fd5b600062000872826200082c565b91506200087f836200082c565b9250817fffffffffffffffffffffffffffffffffffffffffffffffffffffffffffffffff0483118215151615620008bb57620008ba62000836565b5b828202905092915050565b7f4e487b7100000000000000000000000000000000000000000000000000000000600052601260045260246000fd5b600062000902826200082c565b91506200090f836200082c565b925082620009225762000921620008c6565b5b828204905092915050565b600081905092915050565b7f666f6e646174696f6e4665650000000000000000000000000000000000000000600082015250565b600062000970600c836200092d565b91506200097d8262000938565b600c82019050919050565b6000620009958262000961565b9150819050919050565b7f65636f73797374656d0000000000000000000000000000000000000000000000600082015250565b6000620009d76009836200092d565b9150620009e4826200099f565b600982019050919050565b6000620009fc82620009c8565b9150819050919050565b7f6d61726b6574696e674f696e76657374696d656e740000000000000000000000600082015250565b600062000a3e6015836200092d565b915062000a4b8262000a06565b601582019050919050565b600062000a638262000a2f565b9150819050919050565b7f636f6e73756c74696e6700000000000000000000000000000000000000000000600082015250565b600062000aa5600a836200092d565b915062000ab28262000a6d565b600a82019050919050565b600062000aca8262000a96565b9150819050919050565b600062000ae1826200082c565b915062000aee836200082c565b9250827fffffffffffffffffffffffffffffffffffffffffffffffffffffffffffffffff0382111562000b265762000b2562000836565b5b828201905092915050565b60008160011c9050919050565b6000808291508390505b600185111562000b905780860481111562000b685762000b6762000836565b5b600185161562000b785780820291505b808102905062000b888562000b31565b945062000b48565b94509492505050565b60008262000bab576001905062000c7e565b8162000bbb576000905062000c7e565b816001811462000bd4576002811462000bdf5762000c15565b600191505062000c7e565b60ff84111562000bf45762000bf362000836565b5b8360020a91508482111562000c0e5762000c0d62000836565b5b5062000c7e565b5060208310610133831016604e8410600b841016171562000c4f5782820a90508381111562000c495762000c4862000836565b5b62000c7e565b62000c5e848484600162000b3e565b9250905081840481111562000c785762000c7762000836565b5b81810290505b9392505050565b600060ff82169050919050565b600062000c9f826200082c565b915062000cac8362000c85565b925062000cdb7fffffffffffffffffffffffffffffffffffffffffffffffffffffffffffffffff848462000b99565b905092915050565b600082825260208201905092915050565b7f45524332303a206d696e7420746f20746865207a65726f206164647265737300600082015250565b600062000d2c601f8362000ce3565b915062000d398262000cf4565b602082019050919050565b6000602082019050818103600083015262000d5f8162000d1d565b9050919050565b62000d71816200082c565b82525050565b600060208201905062000d8e600083018462000d66565b92915050565b7f4e487b7100000000000000000000000000000000000000000000000000000000600052602260045260246000fd5b6000600282049050600182168062000ddc57607f821691505b6020821081141562000df35762000df262000d94565b5b50919050565b60805160a05161342862000e496000396000610e800152600081816107d201528181610b1001528181610f220152818161104b015281816110d901528181611114015261127e01526134286000f3fe60806040526004361061019c5760003560e01c80636fea47e3116100ec57806395d89b411161008a578063a457c2d711610064578063a457c2d71461059f578063a9059cbb146105dc578063cdc8510f14610619578063dd62ed3e146106565761019c565b806395d89b41146105205780639e87a5cd1461054b578063a42f5373146105765761019c565b80637d4387a6116100c65780637d4387a61461048757806383197ef0146104b0578063893d20e8146104c75780638bc82c95146104f25761019c565b80636fea47e3146103f657806370a082311461042157806379cc67901461045e5761019c565b806327dea227116101595780633950935111610133578063395093511461032857806342966c681461036557806343a4fac81461038e578063554d578d146103cb5761019c565b806327dea227146102c8578063313ce567146102d2578063341f1f63146102fd5761019c565b806305808a29146101a157806306fdde03146101cf578063095ea7b3146101fa5780631611d50b1461023757806318160ddd1461026057806323b872dd1461028b575b600080fd5b3480156101ad57600080fd5b506101b6610693565b6040516101c69493929190611f38565b60405180910390f35b3480156101db57600080fd5b506101e461071b565b6040516101f19190612016565b60405180910390f35b34801561020657600080fd5b50610221600480360381019061021c91906120d6565b6107ad565b60405161022e9190612131565b60405180910390f35b34801561024357600080fd5b5061025e60048036038101906102599190612281565b6107d0565b005b34801561026c57600080fd5b50610275610999565b60405161028291906122f0565b60405180910390f35b34801561029757600080fd5b506102b260048036038101906102ad919061230b565b6109a3565b6040516102bf9190612131565b60405180910390f35b6102d06109d2565b005b3480156102de57600080fd5b506102e7610c9a565b6040516102f4919061237a565b60405180910390f35b34801561030957600080fd5b50610312610ca3565b60405161031f91906122f0565b60405180910390f35b34801561033457600080fd5b5061034f600480360381019061034a91906120d6565b610d63565b60405161035c9190612131565b60405180910390f35b34801561037157600080fd5b5061038c60048036038101906103879190612395565b610d9a565b005b34801561039a57600080fd5b506103b560048036038101906103b091906123c2565b610e3a565b6040516103c291906122f0565b60405180910390f35b3480156103d757600080fd5b506103e0610e68565b6040516103ed91906122f0565b60405180910390f35b34801561040257600080fd5b5061040b610eae565b60405161041891906122f0565b60405180910390f35b34801561042d57600080fd5b506104486004803603810190610443919061240b565b610eb8565b60405161045591906122f0565b60405180910390f35b34801561046a57600080fd5b50610485600480360381019061048091906120d6565b610f00565b005b34801561049357600080fd5b506104ae60048036038101906104a991906120d6565b610f20565b005b3480156104bc57600080fd5b506104c5611049565b005b3480156104d357600080fd5b506104dc611110565b6040516104e99190612447565b60405180910390f35b3480156104fe57600080fd5b50610507611138565b6040516105179493929190611f38565b60405180910390f35b34801561052c57600080fd5b506105356111c0565b6040516105429190612016565b60405180910390f35b34801561055757600080fd5b50610560611252565b60405161056d91906124c1565b60405180910390f35b34801561058257600080fd5b5061059d6004803603810190610598919061240b565b61127c565b005b3480156105ab57600080fd5b506105c660048036038101906105c191906120d6565b611385565b6040516105d39190612131565b60405180910390f35b3480156105e857600080fd5b5061060360048036038101906105fe91906120d6565b6113fc565b6040516106109190612131565b60405180910390f35b34801561062557600080fd5b50610640600480360381019061063b91906123c2565b61141f565b60405161064d91906122f0565b60405180910390f35b34801561066257600080fd5b5061067d600480360381019061067891906124dc565b61144d565b60405161068a91906122f0565b60405180910390f35b60008060008060076040516106a790612573565b90815260200160405180910390205460076040516106c4906125d4565b90815260200160405180910390205460076040516106e190612635565b90815260200160405180910390205460076040516106fe90612696565b908152602001604051809103902054935093509350935090919293565b60606003805461072a906126da565b80601f0160208091040260200160405190810160405280929190818152602001828054610756906126da565b80156107a35780601f10610778576101008083540402835291602001916107a3565b820191906000526020600020905b81548152906001019060200180831161078657829003601f168201915b5050505050905090565b6000806107b861162b565b90506107c5818585611633565b600191505092915050565b7f000000000000000000000000000000000000000000000000000000000000000073ffffffffffffffffffffffffffffffffffffffff163373ffffffffffffffffffffffffffffffffffffffff161461085e576040517f08c379a00000000000000000000000000000000000000000000000000000000081526004016108559061277e565b60405180910390fd5b808260078260405161087091906127cf565b9081526020016040518091039020548160088460405161089091906127cf565b9081526020016040518091039020546108a99190612815565b11156108ee5781816040517fe8379cc40000000000000000000000000000000000000000000000000000000081526004016108e592919061286b565b60405180910390fd5b836008846040516108ff91906127cf565b9081526020016040518091039020546109189190612815565b60088460405161092891906127cf565b90815260200160405180910390208190555061095785670de0b6b3a764000086610952919061289b565b6117fe565b7f2e01b6cac1db8ec7bbba20f52c7971dd718808586f301d3ef4c44df26e9cd21f85858560405161098a939291906128f5565b60405180910390a15050505050565b6000600254905090565b6000806109ae61162b565b90506109bb858285611874565b6109c6858585611900565b60019150509392505050565b3373ffffffffffffffffffffffffffffffffffffffff16313480821015610a25576040517ff49beaed00000000000000000000000000000000000000000000000000000000815260040160405180910390fd5b6000349050600060646019610a38610e68565b610a42919061289b565b610a4c9190612962565b6008604051610a5a906125d4565b9081526020016040518091039020541015610a8057610a796000611b78565b9050610b0c565b60646019610a8c610e68565b610a96919061289b565b610aa09190612962565b6064600f610aac610e68565b610ab6919061289b565b610ac09190612962565b610aca9190612815565b6008604051610ad8906125d4565b9081526020016040518091039020541015610afe57610af76001611b78565b9050610b0b565b610b086002611b78565b90505b5b60007f000000000000000000000000000000000000000000000000000000000000000073ffffffffffffffffffffffffffffffffffffffff1634604051610b52906129c4565b60006040518083038185875af1925050503d8060008114610b8f576040519150601f19603f3d011682016040523d82523d6000602084013e610b94565b606091505b5050905080610bcf576040517fa81dc2e800000000000000000000000000000000000000000000000000000000815260040160405180910390fd5b6000670de0b6b3a76400008484610be6919061289b565b610bf09190612962565b9050806008604051610c01906125d4565b908152602001604051809103902054610c1a9190612815565b6008604051610c28906125d4565b908152602001604051809103902081905550610c4433826117fe565b7fd69dd5c77c111946fad2dbb4a9f28e2ea0f77d1e9c1223a2ac8a787a3cadbc8e33670de0b6b3a764000083610c7a9190612962565b85604051610c8a939291906129d9565b60405180910390a1505050505050565b60006012905090565b600080600a60009054906101000a900473ffffffffffffffffffffffffffffffffffffffff1673ffffffffffffffffffffffffffffffffffffffff1663feaf968c6040518163ffffffff1660e01b815260040160a06040518083038186803b158015610d0e57600080fd5b505afa158015610d22573d6000803e3d6000fd5b505050506040513d601f19601f82011682018060405250810190610d469190612a9d565b5050509150506402540be40081610d5d9190612b18565b91505090565b600080610d6e61162b565b9050610d8f818585610d80858961144d565b610d8a9190612815565b611633565b600191505092915050565b610da333610eb8565b8180821015610dde576040517ff49beaed00000000000000000000000000000000000000000000000000000000815260040160405180910390fd5b82600654610dec9190612815565b600681905550610dfc3384611d47565b7fda4e31583a2259fe317cadb7a8df04c4ff0072abd596ee177b39d24894a2ec6b3384604051610e2d929190612c2f565b60405180910390a1505050565b6007818051602081018201805184825260208301602085012081835280955050505050506000915090505481565b6000610e72610c9a565b600a610e7e9190612d8b565b7f0000000000000000000000000000000000000000000000000000000000000000610ea9919061289b565b905090565b6000600654905090565b60008060008373ffffffffffffffffffffffffffffffffffffffff1673ffffffffffffffffffffffffffffffffffffffff168152602001908152602001600020549050919050565b610f1282610f0c61162b565b83611874565b610f1c8282611d47565b5050565b7f000000000000000000000000000000000000000000000000000000000000000073ffffffffffffffffffffffffffffffffffffffff163373ffffffffffffffffffffffffffffffffffffffff1614610fae576040517f08c379a0000000000000000000000000000000000000000000000000000000008152600401610fa59061277e565b60405180910390fd5b6006548180821015610fec576040517ff49beaed00000000000000000000000000000000000000000000000000000000815260040160405180910390fd5b82600654610ffa9190612dd6565b60068190555061100a84846117fe565b7f498789b97a924d6566d2d756b70ef5ea7f0720f0e6ed51845c77eda0afa092cb848460405161103b929190612c2f565b60405180910390a150505050565b7f000000000000000000000000000000000000000000000000000000000000000073ffffffffffffffffffffffffffffffffffffffff163373ffffffffffffffffffffffffffffffffffffffff16146110d7576040517f08c379a00000000000000000000000000000000000000000000000000000000081526004016110ce9061277e565b60405180910390fd5b7f000000000000000000000000000000000000000000000000000000000000000073ffffffffffffffffffffffffffffffffffffffff16ff5b60007f0000000000000000000000000000000000000000000000000000000000000000905090565b600080600080600860405161114c90612573565b9081526020016040518091039020546008604051611169906125d4565b908152602001604051809103902054600860405161118690612635565b90815260200160405180910390205460086040516111a390612696565b908152602001604051809103902054935093509350935090919293565b6060600480546111cf906126da565b80601f01602080910402602001604051908101604052809291908181526020018280546111fb906126da565b80156112485780601f1061121d57610100808354040283529160200191611248565b820191906000526020600020905b81548152906001019060200180831161122b57829003601f168201915b5050505050905090565b6000600a60009054906101000a900473ffffffffffffffffffffffffffffffffffffffff16905090565b7f000000000000000000000000000000000000000000000000000000000000000073ffffffffffffffffffffffffffffffffffffffff163373ffffffffffffffffffffffffffffffffffffffff161461130a576040517f08c379a00000000000000000000000000000000000000000000000000000000081526004016113019061277e565b60405180910390fd5b80600a60006101000a81548173ffffffffffffffffffffffffffffffffffffffff021916908373ffffffffffffffffffffffffffffffffffffffff1602179055507f0c8ac2008786a97973d123ada788ee2512dac4139ac736ef2994f2b3288d99b58160405161137a9190612447565b60405180910390a150565b60008061139061162b565b9050600061139e828661144d565b9050838110156113e3576040517f08c379a00000000000000000000000000000000000000000000000000000000081526004016113da90612e7c565b60405180910390fd5b6113f08286868403611633565b60019250505092915050565b60008061140761162b565b9050611414818585611900565b600191505092915050565b6008818051602081018201805184825260208301602085012081835280955050505050506000915090505481565b6000600160008473ffffffffffffffffffffffffffffffffffffffff1673ffffffffffffffffffffffffffffffffffffffff16815260200190815260200160002060008373ffffffffffffffffffffffffffffffffffffffff1673ffffffffffffffffffffffffffffffffffffffff16815260200190815260200160002054905092915050565b600073ffffffffffffffffffffffffffffffffffffffff168273ffffffffffffffffffffffffffffffffffffffff161415611544576040517f08c379a000000000000000000000000000000000000000000000000000000000815260040161153b90612ee8565b60405180910390fd5b61155060008383611f15565b80600260008282546115629190612815565b92505081905550806000808473ffffffffffffffffffffffffffffffffffffffff1673ffffffffffffffffffffffffffffffffffffffff168152602001908152602001600020600082825401925050819055508173ffffffffffffffffffffffffffffffffffffffff16600073ffffffffffffffffffffffffffffffffffffffff167fddf252ad1be2c89b69c2b068fc378daa952ba7f163c4a11628f55a4df523b3ef8360405161161391906122f0565b60405180910390a361162760008383611f1a565b5050565b600033905090565b600073ffffffffffffffffffffffffffffffffffffffff168373ffffffffffffffffffffffffffffffffffffffff1614156116a3576040517f08c379a000000000000000000000000000000000000000000000000000000000815260040161169a90612f7a565b60405180910390fd5b600073ffffffffffffffffffffffffffffffffffffffff168273ffffffffffffffffffffffffffffffffffffffff161415611713576040517f08c379a000000000000000000000000000000000000000000000000000000000815260040161170a9061300c565b60405180910390fd5b80600160008573ffffffffffffffffffffffffffffffffffffffff1673ffffffffffffffffffffffffffffffffffffffff16815260200190815260200160002060008473ffffffffffffffffffffffffffffffffffffffff1673ffffffffffffffffffffffffffffffffffffffff168152602001908152602001600020819055508173ffffffffffffffffffffffffffffffffffffffff168373ffffffffffffffffffffffffffffffffffffffff167f8c5be1e5ebec7d5bd14f71427d1e84f3dd0314c0f7b2291e5b200ac8c7c3b925836040516117f191906122f0565b60405180910390a3505050565b80670de0b6b3a7640000611810610e68565b61181a919061289b565b81611823610999565b61182d9190612815565b1115611865576040517f3e05993300000000000000000000000000000000000000000000000000000000815260040160405180910390fd5b61186f83836114d4565b505050565b6000611880848461144d565b90507fffffffffffffffffffffffffffffffffffffffffffffffffffffffffffffffff81146118fa57818110156118ec576040517f08c379a00000000000000000000000000000000000000000000000000000000081526004016118e390613078565b60405180910390fd5b6118f98484848403611633565b5b50505050565b600073ffffffffffffffffffffffffffffffffffffffff168373ffffffffffffffffffffffffffffffffffffffff161415611970576040517f08c379a00000000000000000000000000000000000000000000000000000000081526004016119679061310a565b60405180910390fd5b600073ffffffffffffffffffffffffffffffffffffffff168273ffffffffffffffffffffffffffffffffffffffff1614156119e0576040517f08c379a00000000000000000000000000000000000000000000000000000000081526004016119d79061319c565b60405180910390fd5b6119eb838383611f15565b60008060008573ffffffffffffffffffffffffffffffffffffffff1673ffffffffffffffffffffffffffffffffffffffff16815260200190815260200160002054905081811015611a71576040517f08c379a0000000000000000000000000000000000000000000000000000000008152600401611a689061322e565b60405180910390fd5b8181036000808673ffffffffffffffffffffffffffffffffffffffff1673ffffffffffffffffffffffffffffffffffffffff16815260200190815260200160002081905550816000808573ffffffffffffffffffffffffffffffffffffffff1673ffffffffffffffffffffffffffffffffffffffff168152602001908152602001600020600082825401925050819055508273ffffffffffffffffffffffffffffffffffffffff168473ffffffffffffffffffffffffffffffffffffffff167fddf252ad1be2c89b69c2b068fc378daa952ba7f163c4a11628f55a4df523b3ef84604051611b5f91906122f0565b60405180910390a3611b72848484611f1a565b50505050565b600080600a60009054906101000a900473ffffffffffffffffffffffffffffffffffffffff1673ffffffffffffffffffffffffffffffffffffffff1663feaf968c6040518163ffffffff1660e01b815260040160a06040518083038186803b158015611be357600080fd5b505afa158015611bf7573d6000803e3d6000fd5b505050506040513d601f19601f82011682018060405250810190611c1b9190612a9d565b50505091505060006402540be40082611c349190612b18565b9050600060098560ff1660038110611c4f57611c4e61324e565b5b602091828204019190069054906101000a900460ff1660ff16905060008183611c78919061289b565b9050670de0b6b3a76400006007604051611c91906125d4565b908152602001604051809103902054611caa919061289b565b81670de0b6b3a76400006008604051611cc2906125d4565b908152602001604051809103902054611cdb919061289b565b611ce59190612815565b1115611d3b57670de0b6b3a764000081611cff9190612962565b6040517fe8379cc4000000000000000000000000000000000000000000000000000000008152600401611d3291906132a0565b60405180910390fd5b80945050505050919050565b600073ffffffffffffffffffffffffffffffffffffffff168273ffffffffffffffffffffffffffffffffffffffff161415611db7576040517f08c379a0000000000000000000000000000000000000000000000000000000008152600401611dae90613340565b60405180910390fd5b611dc382600083611f15565b60008060008473ffffffffffffffffffffffffffffffffffffffff1673ffffffffffffffffffffffffffffffffffffffff16815260200190815260200160002054905081811015611e49576040517f08c379a0000000000000000000000000000000000000000000000000000000008152600401611e40906133d2565b60405180910390fd5b8181036000808573ffffffffffffffffffffffffffffffffffffffff1673ffffffffffffffffffffffffffffffffffffffff1681526020019081526020016000208190555081600260008282540392505081905550600073ffffffffffffffffffffffffffffffffffffffff168373ffffffffffffffffffffffffffffffffffffffff167fddf252ad1be2c89b69c2b068fc378daa952ba7f163c4a11628f55a4df523b3ef84604051611efc91906122f0565b60405180910390a3611f1083600084611f1a565b505050565b505050565b505050565b6000819050919050565b611f3281611f1f565b82525050565b6000608082019050611f4d6000830187611f29565b611f5a6020830186611f29565b611f676040830185611f29565b611f746060830184611f29565b95945050505050565b600081519050919050565b600082825260208201905092915050565b60005b83811015611fb7578082015181840152602081019050611f9c565b83811115611fc6576000848401525b50505050565b6000601f19601f8301169050919050565b6000611fe882611f7d565b611ff28185611f88565b9350612002818560208601611f99565b61200b81611fcc565b840191505092915050565b600060208201905081810360008301526120308184611fdd565b905092915050565b6000604051905090565b600080fd5b600080fd5b600073ffffffffffffffffffffffffffffffffffffffff82169050919050565b60006120778261204c565b9050919050565b6120878161206c565b811461209257600080fd5b50565b6000813590506120a48161207e565b92915050565b6120b381611f1f565b81146120be57600080fd5b50565b6000813590506120d0816120aa565b92915050565b600080604083850312156120ed576120ec612042565b5b60006120fb85828601612095565b925050602061210c858286016120c1565b9150509250929050565b60008115159050919050565b61212b81612116565b82525050565b60006020820190506121466000830184612122565b92915050565b600080fd5b600080fd5b7f4e487b7100000000000000000000000000000000000000000000000000000000600052604160045260246000fd5b61218e82611fcc565b810181811067ffffffffffffffff821117156121ad576121ac612156565b5b80604052505050565b60006121c0612038565b90506121cc8282612185565b919050565b600067ffffffffffffffff8211156121ec576121eb612156565b5b6121f582611fcc565b9050602081019050919050565b82818337600083830152505050565b600061222461221f846121d1565b6121b6565b9050828152602081018484840111156122405761223f612151565b5b61224b848285612202565b509392505050565b600082601f8301126122685761226761214c565b5b8135612278848260208601612211565b91505092915050565b60008060006060848603121561229a57612299612042565b5b60006122a886828701612095565b93505060206122b9868287016120c1565b925050604084013567ffffffffffffffff8111156122da576122d9612047565b5b6122e686828701612253565b9150509250925092565b60006020820190506123056000830184611f29565b92915050565b60008060006060848603121561232457612323612042565b5b600061233286828701612095565b935050602061234386828701612095565b9250506040612354868287016120c1565b9150509250925092565b600060ff82169050919050565b6123748161235e565b82525050565b600060208201905061238f600083018461236b565b92915050565b6000602082840312156123ab576123aa612042565b5b60006123b9848285016120c1565b91505092915050565b6000602082840312156123d8576123d7612042565b5b600082013567ffffffffffffffff8111156123f6576123f5612047565b5b61240284828501612253565b91505092915050565b60006020828403121561242157612420612042565b5b600061242f84828501612095565b91505092915050565b6124418161206c565b82525050565b600060208201905061245c6000830184612438565b92915050565b6000819050919050565b600061248761248261247d8461204c565b612462565b61204c565b9050919050565b60006124998261246c565b9050919050565b60006124ab8261248e565b9050919050565b6124bb816124a0565b82525050565b60006020820190506124d660008301846124b2565b92915050565b600080604083850312156124f3576124f2612042565b5b600061250185828601612095565b925050602061251285828601612095565b9150509250929050565b600081905092915050565b7f666f6e646174696f6e4665650000000000000000000000000000000000000000600082015250565b600061255d600c8361251c565b915061256882612527565b600c82019050919050565b600061257e82612550565b9150819050919050565b7f65636f73797374656d0000000000000000000000000000000000000000000000600082015250565b60006125be60098361251c565b91506125c982612588565b600982019050919050565b60006125df826125b1565b9150819050919050565b7f6d61726b6574696e674f696e76657374696d656e740000000000000000000000600082015250565b600061261f60158361251c565b915061262a826125e9565b601582019050919050565b600061264082612612565b9150819050919050565b7f636f6e73756c74696e6700000000000000000000000000000000000000000000600082015250565b6000612680600a8361251c565b915061268b8261264a565b600a82019050919050565b60006126a182612673565b9150819050919050565b7f4e487b7100000000000000000000000000000000000000000000000000000000600052602260045260246000fd5b600060028204905060018216806126f257607f821691505b60208210811415612706576127056126ab565b5b50919050565b7f4f6e6c7920746865206f776e65722063616e2063616c6c20746869732066756e60008201527f6374696f6e000000000000000000000000000000000000000000000000000000602082015250565b6000612768602583611f88565b91506127738261270c565b604082019050919050565b600060208201905081810360008301526127978161275b565b9050919050565b60006127a982611f7d565b6127b3818561251c565b93506127c3818560208601611f99565b80840191505092915050565b60006127db828461279e565b915081905092915050565b7f4e487b7100000000000000000000000000000000000000000000000000000000600052601160045260246000fd5b600061282082611f1f565b915061282b83611f1f565b9250827fffffffffffffffffffffffffffffffffffffffffffffffffffffffffffffffff038211156128605761285f6127e6565b5b828201905092915050565b600060408201905081810360008301526128858185611fdd565b90506128946020830184611f29565b9392505050565b60006128a682611f1f565b91506128b183611f1f565b9250817fffffffffffffffffffffffffffffffffffffffffffffffffffffffffffffffff04831182151516156128ea576128e96127e6565b5b828202905092915050565b600060608201905061290a6000830186612438565b6129176020830185611f29565b81810360408301526129298184611fdd565b9050949350505050565b7f4e487b7100000000000000000000000000000000000000000000000000000000600052601260045260246000fd5b600061296d82611f1f565b915061297883611f1f565b92508261298857612987612933565b5b828204905092915050565b600081905092915050565b50565b60006129ae600083612993565b91506129b98261299e565b600082019050919050565b60006129cf826129a1565b9150819050919050565b60006060820190506129ee6000830186612438565b6129fb6020830185611f29565b612a086040830184611f29565b949350505050565b600069ffffffffffffffffffff82169050919050565b612a2f81612a10565b8114612a3a57600080fd5b50565b600081519050612a4c81612a26565b92915050565b6000819050919050565b612a6581612a52565b8114612a7057600080fd5b50565b600081519050612a8281612a5c565b92915050565b600081519050612a97816120aa565b92915050565b600080600080600060a08688031215612ab957612ab8612042565b5b6000612ac788828901612a3d565b9550506020612ad888828901612a73565b9450506040612ae988828901612a88565b9350506060612afa88828901612a88565b9250506080612b0b88828901612a3d565b9150509295509295909350565b6000612b2382612a52565b9150612b2e83612a52565b9250827f7fffffffffffffffffffffffffffffffffffffffffffffffffffffffffffffff0482116000841360008413161615612b6d57612b6c6127e6565b5b817f80000000000000000000000000000000000000000000000000000000000000000583126000841260008413161615612baa57612ba96127e6565b5b827f80000000000000000000000000000000000000000000000000000000000000000582126000841360008412161615612be757612be66127e6565b5b827f7fffffffffffffffffffffffffffffffffffffffffffffffffffffffffffffff0582126000841260008412161615612c2457612c236127e6565b5b828202905092915050565b6000604082019050612c446000830185612438565b612c516020830184611f29565b9392505050565b60008160011c9050919050565b6000808291508390505b6001851115612caf57808604811115612c8b57612c8a6127e6565b5b6001851615612c9a5780820291505b8081029050612ca885612c58565b9450612c6f565b94509492505050565b600082612cc85760019050612d84565b81612cd65760009050612d84565b8160018114612cec5760028114612cf657612d25565b6001915050612d84565b60ff841115612d0857612d076127e6565b5b8360020a915084821115612d1f57612d1e6127e6565b5b50612d84565b5060208310610133831016604e8410600b8410161715612d5a5782820a905083811115612d5557612d546127e6565b5b612d84565b612d678484846001612c65565b92509050818404811115612d7e57612d7d6127e6565b5b81810290505b9392505050565b6000612d9682611f1f565b9150612da18361235e565b9250612dce7fffffffffffffffffffffffffffffffffffffffffffffffffffffffffffffffff8484612cb8565b905092915050565b6000612de182611f1f565b9150612dec83611f1f565b925082821015612dff57612dfe6127e6565b5b828203905092915050565b7f45524332303a2064656372656173656420616c6c6f77616e63652062656c6f7760008201527f207a65726f000000000000000000000000000000000000000000000000000000602082015250565b6000612e66602583611f88565b9150612e7182612e0a565b604082019050919050565b60006020820190508181036000830152612e9581612e59565b9050919050565b7f45524332303a206d696e7420746f20746865207a65726f206164647265737300600082015250565b6000612ed2601f83611f88565b9150612edd82612e9c565b602082019050919050565b60006020820190508181036000830152612f0181612ec5565b9050919050565b7f45524332303a20617070726f76652066726f6d20746865207a65726f2061646460008201527f7265737300000000000000000000000000000000000000000000000000000000602082015250565b6000612f64602483611f88565b9150612f6f82612f08565b604082019050919050565b60006020820190508181036000830152612f9381612f57565b9050919050565b7f45524332303a20617070726f766520746f20746865207a65726f20616464726560008201527f7373000000000000000000000000000000000000000000000000000000000000602082015250565b6000612ff6602283611f88565b915061300182612f9a565b604082019050919050565b6000602082019050818103600083015261302581612fe9565b9050919050565b7f45524332303a20696e73756666696369656e7420616c6c6f77616e6365000000600082015250565b6000613062601d83611f88565b915061306d8261302c565b602082019050919050565b6000602082019050818103600083015261309181613055565b9050919050565b7f45524332303a207472616e736665722066726f6d20746865207a65726f20616460008201527f6472657373000000000000000000000000000000000000000000000000000000602082015250565b60006130f4602583611f88565b91506130ff82613098565b604082019050919050565b60006020820190508181036000830152613123816130e7565b9050919050565b7f45524332303a207472616e7366657220746f20746865207a65726f206164647260008201527f6573730000000000000000000000000000000000000000000000000000000000602082015250565b6000613186602383611f88565b91506131918261312a565b604082019050919050565b600060208201905081810360008301526131b581613179565b9050919050565b7f45524332303a207472616e7366657220616d6f756e742065786365656473206260008201527f616c616e63650000000000000000000000000000000000000000000000000000602082015250565b6000613218602683611f88565b9150613223826131bc565b604082019050919050565b600060208201905081810360008301526132478161320b565b9050919050565b7f4e487b7100000000000000000000000000000000000000000000000000000000600052603260045260246000fd5b600061328a600983611f88565b915061329582612588565b602082019050919050565b600060408201905081810360008301526132b98161327d565b90506132c86020830184611f29565b92915050565b7f45524332303a206275726e2066726f6d20746865207a65726f2061646472657360008201527f7300000000000000000000000000000000000000000000000000000000000000602082015250565b600061332a602183611f88565b9150613335826132ce565b604082019050919050565b600060208201905081810360008301526133598161331d565b9050919050565b7f45524332303a206275726e20616d6f756e7420657863656564732062616c616e60008201527f6365000000000000000000000000000000000000000000000000000000000000602082015250565b60006133bc602283611f88565b91506133c782613360565b604082019050919050565b600060208201905081810360008301526133eb816133af565b905091905056fea264697066735822122085363b86e759ed0c8b1e50cf3c680cfb268508d03056ad04481bd596ece2736764736f6c63430008090033",
  "devdoc": {
    "author": "Samuele Chiesa",
    "details": "The contract uses openzeppeling lib",
    "kind": "dev",
    "methods": {
      "aggregatorUpgrade(address)": {
        "details": "AggregatorV3Interface is the base of the mint from Matic",
        "params": {
          "newpriceFeedAdd": "New address AggregatorV3Interface"
        }
      },
      "allowance(address,address)": {
        "details": "See {IERC20-allowance}."
      },
      "approve(address,uint256)": {
        "details": "See {IERC20-approve}. NOTE: If `amount` is the maximum `uint256`, the allowance is not updated on `transferFrom`. This is semantically equivalent to an infinite approval. Requirements: - `spender` cannot be the zero address."
      },
      "balanceOf(address)": {
        "details": "See {IERC20-balanceOf}."
      },
      "burn(uint256)": {
        "params": {
          "amount": "The number of token will burn is already*1e18"
        }
      },
      "burnFrom(address,uint256)": {
        "details": "Destroys `amount` tokens from `account`, deducting from the caller's allowance. See {ERC20-_burn} and {ERC20-allowance}. Requirements: - the caller must have allowance for ``accounts``'s tokens of at least `amount`."
      },
      "constructor": {
        "details": "In the constructor are define the mint cap for each entites and the mint state",
        "params": {
          "priceFeedAdd": "Address AggregatorV3Interface"
        }
      },
      "decimals()": {
        "details": "Returns the number of decimals used to get its user representation. For example, if `decimals` equals `2`, a balance of `505` tokens should be displayed to a user as `5.05` (`505 / 10 ** 2`). Tokens usually opt for a value of 18, imitating the relationship between Ether and Wei. This is the value {ERC20} uses, unless this function is overridden; NOTE: This information is only used for _display_ purposes: it in no way affects any of the arithmetic of the contract, including {IERC20-balanceOf} and {IERC20-transfer}."
      },
      "decreaseAllowance(address,uint256)": {
        "details": "Atomically decreases the allowance granted to `spender` by the caller. This is an alternative to {approve} that can be used as a mitigation for problems described in {IERC20-approve}. Emits an {Approval} event indicating the updated allowance. Requirements: - `spender` cannot be the zero address. - `spender` must have allowance for the caller of at least `subtractedValue`."
      },
      "getBurned()": {
        "returns": {
          "_0": "return the owner of the contract"
        }
      },
      "getCap()": {
        "returns": {
          "_0": "return the maximum capilazation"
        }
      },
      "getMaticRate()": {
        "details": "The function are create for the test"
      },
      "getMinter4amount()": {
        "details": "The function are create for the test"
      },
      "getMinter4minted()": {
        "details": "The function are create for the test"
      },
      "getOwner()": {
        "returns": {
          "_0": "return the owner of the contract"
        }
      },
      "getPriceFeed()": {
        "details": "The function are create for the test"
      },
      "increaseAllowance(address,uint256)": {
        "details": "Atomically increases the allowance granted to `spender` by the caller. This is an alternative to {approve} that can be used as a mitigation for problems described in {IERC20-approve}. Emits an {Approval} event indicating the updated allowance. Requirements: - `spender` cannot be the zero address."
      },
      "mintBurn(address,uint256)": {
        "params": {
          "account": "The account will recieve the money",
          "amount": "The number of token will sent to the account (is already *1e18)"
        }
      },
      "mintDirectly(address,uint256,string)": {
        "details": "Only the owner can call this function and the state of mint will upgrade",
        "params": {
          "_amount": "The number of token will sent to the account",
          "account": "The account will recieve the money",
          "typeMining": "In base of the type choose between: fondationFee, ecosystem, marketingOinvestiment and developing"
        }
      },
      "mintFromMatic()": {
        "details": "Based on the number of matic and mint level, the number of tokens to be sent is defined"
      },
      "name()": {
        "details": "Returns the name of the token."
      },
      "symbol()": {
        "details": "Returns the symbol of the token, usually a shorter version of the name."
      },
      "totalSupply()": {
        "details": "See {IERC20-totalSupply}."
      },
      "transfer(address,uint256)": {
        "details": "See {IERC20-transfer}. Requirements: - `to` cannot be the zero address. - the caller must have a balance of at least `amount`."
      },
      "transferFrom(address,address,uint256)": {
        "details": "See {IERC20-transferFrom}. Emits an {Approval} event indicating the updated allowance. This is not required by the EIP. See the note at the beginning of {ERC20}. NOTE: Does not update the allowance if the current allowance is the maximum `uint256`. Requirements: - `from` and `to` cannot be the zero address. - `from` must have a balance of at least `amount`. - the caller must have allowance for ``from``'s tokens of at least `amount`."
      }
    },
    "title": "BLUE BIRD ERC20",
    "version": 1
  },
  "userdoc": {
    "kind": "user",
    "methods": {
      "aggregatorUpgrade(address)": {
        "notice": "AggregatorV3Interface upgrade allows to upgrade the contract from which we take the Matic/USD exchange rate  "
      },
      "burn(uint256)": {
        "notice": "The function allows to burn tokens"
      },
      "mintBurn(address,uint256)": {
        "notice": "The function allows previously burned tokens to be mint"
      },
      "mintDirectly(address,uint256,string)": {
        "notice": "mintDirectly allows the contract owner to distribute the tokens directly to any investors and all other entities. "
      },
      "mintFromMatic()": {
        "notice": "The function allows to mint tokens by sending Matic"
      }
    },
    "notice": "The contract is write for Marco Liu, creator of BlueBird project. This code had the scope to create a new token ERC20",
    "version": 1
  },
  "storageLayout": {
    "storage": [
      {
        "astId": 61,
        "contract": "contracts/BlueBird.sol:BlueBird",
        "label": "_balances",
        "offset": 0,
        "slot": "0",
        "type": "t_mapping(t_address,t_uint256)"
      },
      {
        "astId": 67,
        "contract": "contracts/BlueBird.sol:BlueBird",
        "label": "_allowances",
        "offset": 0,
        "slot": "1",
        "type": "t_mapping(t_address,t_mapping(t_address,t_uint256))"
      },
      {
        "astId": 69,
        "contract": "contracts/BlueBird.sol:BlueBird",
        "label": "_totalSupply",
        "offset": 0,
        "slot": "2",
        "type": "t_uint256"
      },
      {
        "astId": 71,
        "contract": "contracts/BlueBird.sol:BlueBird",
        "label": "_name",
        "offset": 0,
        "slot": "3",
        "type": "t_string_storage"
      },
      {
        "astId": 73,
        "contract": "contracts/BlueBird.sol:BlueBird",
        "label": "_symbol",
        "offset": 0,
        "slot": "4",
        "type": "t_string_storage"
      },
      {
        "astId": 1132,
        "contract": "contracts/BlueBird.sol:BlueBird",
        "label": "initialized",
        "offset": 0,
        "slot": "5",
        "type": "t_bool"
      },
      {
        "astId": 1134,
        "contract": "contracts/BlueBird.sol:BlueBird",
        "label": "burned",
        "offset": 0,
        "slot": "6",
        "type": "t_uint256"
      },
      {
        "astId": 1138,
        "contract": "contracts/BlueBird.sol:BlueBird",
        "label": "minter4amount",
        "offset": 0,
        "slot": "7",
        "type": "t_mapping(t_string_memory_ptr,t_uint256)"
      },
      {
        "astId": 1142,
        "contract": "contracts/BlueBird.sol:BlueBird",
        "label": "minter4minted",
        "offset": 0,
        "slot": "8",
        "type": "t_mapping(t_string_memory_ptr,t_uint256)"
      },
      {
        "astId": 1150,
        "contract": "contracts/BlueBird.sol:BlueBird",
        "label": "miningPrice",
        "offset": 0,
        "slot": "9",
        "type": "t_array(t_uint8)3_storage"
      },
      {
        "astId": 1153,
        "contract": "contracts/BlueBird.sol:BlueBird",
        "label": "priceFeed",
        "offset": 0,
        "slot": "10",
        "type": "t_contract(AggregatorV3Interface)45"
      }
    ],
    "types": {
      "t_address": {
        "encoding": "inplace",
        "label": "address",
        "numberOfBytes": "20"
      },
      "t_array(t_uint8)3_storage": {
        "base": "t_uint8",
        "encoding": "inplace",
        "label": "uint8[3]",
        "numberOfBytes": "32"
      },
      "t_bool": {
        "encoding": "inplace",
        "label": "bool",
        "numberOfBytes": "1"
      },
      "t_contract(AggregatorV3Interface)45": {
        "encoding": "inplace",
        "label": "contract AggregatorV3Interface",
        "numberOfBytes": "20"
      },
      "t_mapping(t_address,t_mapping(t_address,t_uint256))": {
        "encoding": "mapping",
        "key": "t_address",
        "label": "mapping(address => mapping(address => uint256))",
        "numberOfBytes": "32",
        "value": "t_mapping(t_address,t_uint256)"
      },
      "t_mapping(t_address,t_uint256)": {
        "encoding": "mapping",
        "key": "t_address",
        "label": "mapping(address => uint256)",
        "numberOfBytes": "32",
        "value": "t_uint256"
      },
      "t_mapping(t_string_memory_ptr,t_uint256)": {
        "encoding": "mapping",
        "key": "t_string_memory_ptr",
        "label": "mapping(string => uint256)",
        "numberOfBytes": "32",
        "value": "t_uint256"
      },
      "t_string_memory_ptr": {
        "encoding": "bytes",
        "label": "string",
        "numberOfBytes": "32"
      },
      "t_string_storage": {
        "encoding": "bytes",
        "label": "string",
        "numberOfBytes": "32"
      },
      "t_uint256": {
        "encoding": "inplace",
        "label": "uint256",
        "numberOfBytes": "32"
      },
      "t_uint8": {
        "encoding": "inplace",
        "label": "uint8",
        "numberOfBytes": "1"
      }
    }
  }
}