{
  "address": "0xA0A9408B137dcd91788Bf823dAB275e3A291ace1",
  "abi": [
    {
      "inputs": [
        {
          "internalType": "address",
          "name": "priceFeedAdd",
          "type": "address"
        }
      ],
      "stateMutability": "nonpayable",
      "type": "constructor"
    },
    {
      "inputs": [],
      "name": "BlueBird__ErrorBilancio",
      "type": "error"
    },
    {
      "inputs": [],
      "name": "BlueBird__ErrorCall",
      "type": "error"
    },
    {
      "inputs": [],
      "name": "BlueBird__ErrorERC20Capped",
      "type": "error"
    },
    {
      "inputs": [
        {
          "internalType": "string",
          "name": "",
          "type": "string"
        },
        {
          "internalType": "uint256",
          "name": "",
          "type": "uint256"
        }
      ],
      "name": "BlueBird__ErrorMint",
      "type": "error"
    },
    {
      "anonymous": false,
      "inputs": [
        {
          "indexed": true,
          "internalType": "address",
          "name": "owner",
          "type": "address"
        },
        {
          "indexed": true,
          "internalType": "address",
          "name": "spender",
          "type": "address"
        },
        {
          "indexed": false,
          "internalType": "uint256",
          "name": "value",
          "type": "uint256"
        }
      ],
      "name": "Approval",
      "type": "event"
    },
    {
      "anonymous": false,
      "inputs": [
        {
          "indexed": true,
          "internalType": "address",
          "name": "from",
          "type": "address"
        },
        {
          "indexed": true,
          "internalType": "address",
          "name": "to",
          "type": "address"
        },
        {
          "indexed": false,
          "internalType": "uint256",
          "name": "value",
          "type": "uint256"
        }
      ],
      "name": "Transfer",
      "type": "event"
    },
    {
      "anonymous": false,
      "inputs": [
        {
          "indexed": false,
          "internalType": "address",
          "name": "",
          "type": "address"
        }
      ],
      "name": "aggregatorUpgradeEvent",
      "type": "event"
    },
    {
      "anonymous": false,
      "inputs": [
        {
          "indexed": false,
          "internalType": "address",
          "name": "",
          "type": "address"
        },
        {
          "indexed": false,
          "internalType": "uint256",
          "name": "",
          "type": "uint256"
        }
      ],
      "name": "burnEvent",
      "type": "event"
    },
    {
      "anonymous": false,
      "inputs": [
        {
          "indexed": false,
          "internalType": "address",
          "name": "",
          "type": "address"
        },
        {
          "indexed": false,
          "internalType": "uint256",
          "name": "",
          "type": "uint256"
        }
      ],
      "name": "mintBurnEvent",
      "type": "event"
    },
    {
      "anonymous": false,
      "inputs": [
        {
          "indexed": false,
          "internalType": "address",
          "name": "",
          "type": "address"
        },
        {
          "indexed": false,
          "internalType": "uint256",
          "name": "",
          "type": "uint256"
        },
        {
          "indexed": false,
          "internalType": "string",
          "name": "",
          "type": "string"
        }
      ],
      "name": "mintDirectlyEvent",
      "type": "event"
    },
    {
      "anonymous": false,
      "inputs": [
        {
          "indexed": false,
          "internalType": "address",
          "name": "",
          "type": "address"
        },
        {
          "indexed": false,
          "internalType": "uint256",
          "name": "",
          "type": "uint256"
        },
        {
          "indexed": false,
          "internalType": "uint256",
          "name": "",
          "type": "uint256"
        }
      ],
      "name": "mintFromMaticEvent",
      "type": "event"
    },
    {
      "inputs": [
        {
          "internalType": "address",
          "name": "newpriceFeedAdd",
          "type": "address"
        }
      ],
      "name": "aggregatorUpgrade",
      "outputs": [],
      "stateMutability": "nonpayable",
      "type": "function"
    },
    {
      "inputs": [
        {
          "internalType": "address",
          "name": "owner",
          "type": "address"
        },
        {
          "internalType": "address",
          "name": "spender",
          "type": "address"
        }
      ],
      "name": "allowance",
      "outputs": [
        {
          "internalType": "uint256",
          "name": "",
          "type": "uint256"
        }
      ],
      "stateMutability": "view",
      "type": "function"
    },
    {
      "inputs": [
        {
          "internalType": "address",
          "name": "spender",
          "type": "address"
        },
        {
          "internalType": "uint256",
          "name": "amount",
          "type": "uint256"
        }
      ],
      "name": "approve",
      "outputs": [
        {
          "internalType": "bool",
          "name": "",
          "type": "bool"
        }
      ],
      "stateMutability": "nonpayable",
      "type": "function"
    },
    {
      "inputs": [
        {
          "internalType": "address",
          "name": "account",
          "type": "address"
        }
      ],
      "name": "balanceOf",
      "outputs": [
        {
          "internalType": "uint256",
          "name": "",
          "type": "uint256"
        }
      ],
      "stateMutability": "view",
      "type": "function"
    },
    {
      "inputs": [
        {
          "internalType": "uint256",
          "name": "amount",
          "type": "uint256"
        }
      ],
      "name": "burn",
      "outputs": [],
      "stateMutability": "nonpayable",
      "type": "function"
    },
    {
      "inputs": [
        {
          "internalType": "address",
          "name": "account",
          "type": "address"
        },
        {
          "internalType": "uint256",
          "name": "amount",
          "type": "uint256"
        }
      ],
      "name": "burnFrom",
      "outputs": [],
      "stateMutability": "nonpayable",
      "type": "function"
    },
    {
      "inputs": [],
      "name": "decimals",
      "outputs": [
        {
          "internalType": "uint8",
          "name": "",
          "type": "uint8"
        }
      ],
      "stateMutability": "view",
      "type": "function"
    },
    {
      "inputs": [
        {
          "internalType": "address",
          "name": "spender",
          "type": "address"
        },
        {
          "internalType": "uint256",
          "name": "subtractedValue",
          "type": "uint256"
        }
      ],
      "name": "decreaseAllowance",
      "outputs": [
        {
          "internalType": "bool",
          "name": "",
          "type": "bool"
        }
      ],
      "stateMutability": "nonpayable",
      "type": "function"
    },
    {
      "inputs": [],
      "name": "destroy",
      "outputs": [],
      "stateMutability": "nonpayable",
      "type": "function"
    },
    {
      "inputs": [],
      "name": "getBurned",
      "outputs": [
        {
          "internalType": "uint256",
          "name": "",
          "type": "uint256"
        }
      ],
      "stateMutability": "view",
      "type": "function"
    },
    {
      "inputs": [],
      "name": "getCap",
      "outputs": [
        {
          "internalType": "uint256",
          "name": "",
          "type": "uint256"
        }
      ],
      "stateMutability": "view",
      "type": "function"
    },
    {
      "inputs": [],
      "name": "getMaticRate",
      "outputs": [
        {
          "internalType": "uint256",
          "name": "result",
          "type": "uint256"
        }
      ],
      "stateMutability": "view",
      "type": "function"
    },
    {
      "inputs": [],
      "name": "getMinter4amount",
      "outputs": [
        {
          "internalType": "uint256",
          "name": "",
          "type": "uint256"
        },
        {
          "internalType": "uint256",
          "name": "",
          "type": "uint256"
        },
        {
          "internalType": "uint256",
          "name": "",
          "type": "uint256"
        },
        {
          "internalType": "uint256",
          "name": "",
          "type": "uint256"
        }
      ],
      "stateMutability": "view",
      "type": "function"
    },
    {
      "inputs": [],
      "name": "getMinter4minted",
      "outputs": [
        {
          "internalType": "uint256",
          "name": "",
          "type": "uint256"
        },
        {
          "internalType": "uint256",
          "name": "",
          "type": "uint256"
        },
        {
          "internalType": "uint256",
          "name": "",
          "type": "uint256"
        },
        {
          "internalType": "uint256",
          "name": "",
          "type": "uint256"
        }
      ],
      "stateMutability": "view",
      "type": "function"
    },
    {
      "inputs": [],
      "name": "getOwner",
      "outputs": [
        {
          "internalType": "address",
          "name": "",
          "type": "address"
        }
      ],
      "stateMutability": "view",
      "type": "function"
    },
    {
      "inputs": [],
      "name": "getPriceFeed",
      "outputs": [
        {
          "internalType": "contract AggregatorV3Interface",
          "name": "",
          "type": "address"
        }
      ],
      "stateMutability": "view",
      "type": "function"
    },
    {
      "inputs": [
        {
          "internalType": "address",
          "name": "spender",
          "type": "address"
        },
        {
          "internalType": "uint256",
          "name": "addedValue",
          "type": "uint256"
        }
      ],
      "name": "increaseAllowance",
      "outputs": [
        {
          "internalType": "bool",
          "name": "",
          "type": "bool"
        }
      ],
      "stateMutability": "nonpayable",
      "type": "function"
    },
    {
      "inputs": [
        {
          "internalType": "address",
          "name": "account",
          "type": "address"
        },
        {
          "internalType": "uint256",
          "name": "amount",
          "type": "uint256"
        }
      ],
      "name": "mintBurn",
      "outputs": [],
      "stateMutability": "nonpayable",
      "type": "function"
    },
    {
      "inputs": [
        {
          "internalType": "address",
          "name": "account",
          "type": "address"
        },
        {
          "internalType": "uint256",
          "name": "_amount",
          "type": "uint256"
        },
        {
          "internalType": "string",
          "name": "typeMining",
          "type": "string"
        }
      ],
      "name": "mintDirectly",
      "outputs": [],
      "stateMutability": "nonpayable",
      "type": "function"
    },
    {
      "inputs": [],
      "name": "mintFromMatic",
      "outputs": [],
      "stateMutability": "payable",
      "type": "function"
    },
    {
      "inputs": [
        {
          "internalType": "string",
          "name": "",
          "type": "string"
        }
      ],
      "name": "minter4amount",
      "outputs": [
        {
          "internalType": "uint256",
          "name": "",
          "type": "uint256"
        }
      ],
      "stateMutability": "view",
      "type": "function"
    },
    {
      "inputs": [
        {
          "internalType": "string",
          "name": "",
          "type": "string"
        }
      ],
      "name": "minter4minted",
      "outputs": [
        {
          "internalType": "uint256",
          "name": "",
          "type": "uint256"
        }
      ],
      "stateMutability": "view",
      "type": "function"
    },
    {
      "inputs": [],
      "name": "name",
      "outputs": [
        {
          "internalType": "string",
          "name": "",
          "type": "string"
        }
      ],
      "stateMutability": "view",
      "type": "function"
    },
    {
      "inputs": [],
      "name": "symbol",
      "outputs": [
        {
          "internalType": "string",
          "name": "",
          "type": "string"
        }
      ],
      "stateMutability": "view",
      "type": "function"
    },
    {
      "inputs": [],
      "name": "totalSupply",
      "outputs": [
        {
          "internalType": "uint256",
          "name": "",
          "type": "uint256"
        }
      ],
      "stateMutability": "view",
      "type": "function"
    },
    {
      "inputs": [
        {
          "internalType": "address",
          "name": "to",
          "type": "address"
        },
        {
          "internalType": "uint256",
          "name": "amount",
          "type": "uint256"
        }
      ],
      "name": "transfer",
      "outputs": [
        {
          "internalType": "bool",
          "name": "",
          "type": "bool"
        }
      ],
      "stateMutability": "nonpayable",
      "type": "function"
    },
    {
      "inputs": [
        {
          "internalType": "address",
          "name": "from",
          "type": "address"
        },
        {
          "internalType": "address",
          "name": "to",
          "type": "address"
        },
        {
          "internalType": "uint256",
          "name": "amount",
          "type": "uint256"
        }
      ],
      "name": "transferFrom",
      "outputs": [
        {
          "internalType": "bool",
          "name": "",
          "type": "bool"
        }
      ],
      "stateMutability": "nonpayable",
      "type": "function"
    }
  ],
  "transactionHash": "0x72258439e7cf18e3663bf2393ebc9f7b290214b828d4a4a2de0e6b0da226bf17",
  "args": [
    "0xd0D5e3DB44DE05E9F294BB0a3bEEaF030DE24Ada"
  ],
  "numDeployments": 71,
  "solcInputHash": "a586698d6f62b63cae3998d13815190b",
  "bytecode": "0x60c0604052633b9aca0060a0908152506000600560006101000a81548160ff0219169083151502179055506040518060600160405280607d60ff168152602001606460ff168152602001603260ff168152506009906003620000639291906200065e565b503480156200007157600080fd5b506040516200429c3803806200429c833981810160405281019062000097919062000819565b6040518060400160405280600881526020017f426c7565426972640000000000000000000000000000000000000000000000008152506040518060400160405280600381526020017f424244000000000000000000000000000000000000000000000000000000000081525081600390805190602001906200011b929190620006ff565b50806004908051906020019062000134929190620006ff565b5050503373ffffffffffffffffffffffffffffffffffffffff1660808173ffffffffffffffffffffffffffffffffffffffff1681525050670de0b6b3a76400006064600860a05162000187919062000884565b62000193919062000914565b6200019f919062000884565b6007604051620001af90620009a7565b908152602001604051809103902081905550670de0b6b3a76400006064603a60a051620001dd919062000884565b620001e9919062000914565b620001f5919062000884565b6007604051620002059062000a0e565b908152602001604051809103902081905550670de0b6b3a76400006064601860a05162000233919062000884565b6200023f919062000914565b6200024b919062000884565b60076040516200025b9062000a75565b908152602001604051809103902081905550670de0b6b3a76400006064600a60a05162000289919062000884565b62000295919062000914565b620002a1919062000884565b6007604051620002b19062000adc565b908152602001604051809103902081905550670de0b6b3a7640000606460026064600860a051620002e3919062000884565b620002ef919062000914565b620002fb919062000884565b62000307919062000914565b62000313919062000884565b60086040516200032390620009a7565b90815260200160405180910390208190555060006008604051620003479062000a0e565b908152602001604051809103902081905550600060086040516200036b9062000a75565b908152602001604051809103902081905550600060086040516200038f9062000adc565b90815260200160405180910390208190555080600a60006101000a81548173ffffffffffffffffffffffffffffffffffffffff021916908373ffffffffffffffffffffffffffffffffffffffff16021790555062000445608051670de0b6b3a7640000606460026064600860a05162000409919062000884565b62000415919062000914565b62000421919062000884565b6200042d919062000914565b62000439919062000884565b6200044c60201b60201c565b5062000c66565b80670de0b6b3a764000060a05162000465919062000884565b816200047b620004dc60201b620009bf1760201c565b62000487919062000af3565b1115620004c0576040517f3e05993300000000000000000000000000000000000000000000000000000000815260040160405180910390fd5b620004d78383620004e660201b620016b21760201c565b505050565b6000600254905090565b600073ffffffffffffffffffffffffffffffffffffffff168273ffffffffffffffffffffffffffffffffffffffff16141562000559576040517f08c379a0000000000000000000000000000000000000000000000000000000008152600401620005509062000bb1565b60405180910390fd5b6200056d600083836200065460201b60201c565b806002600082825462000581919062000af3565b92505081905550806000808473ffffffffffffffffffffffffffffffffffffffff1673ffffffffffffffffffffffffffffffffffffffff168152602001908152602001600020600082825401925050819055508173ffffffffffffffffffffffffffffffffffffffff16600073ffffffffffffffffffffffffffffffffffffffff167fddf252ad1be2c89b69c2b068fc378daa952ba7f163c4a11628f55a4df523b3ef8360405162000634919062000be4565b60405180910390a362000650600083836200065960201b60201c565b5050565b505050565b505050565b826003601f01602090048101928215620006ec5791602002820160005b83821115620006bb57835183826101000a81548160ff021916908360ff16021790555092602001926001016020816000010492830192600103026200067b565b8015620006ea5782816101000a81549060ff0219169055600101602081600001049283019260010302620006bb565b505b509050620006fb919062000790565b5090565b8280546200070d9062000c30565b90600052602060002090601f0160209004810192826200073157600085556200077d565b82601f106200074c57805160ff19168380011785556200077d565b828001600101855582156200077d579182015b828111156200077c5782518255916020019190600101906200075f565b5b5090506200078c919062000790565b5090565b5b80821115620007ab57600081600090555060010162000791565b5090565b600080fd5b600073ffffffffffffffffffffffffffffffffffffffff82169050919050565b6000620007e182620007b4565b9050919050565b620007f381620007d4565b8114620007ff57600080fd5b50565b6000815190506200081381620007e8565b92915050565b600060208284031215620008325762000831620007af565b5b6000620008428482850162000802565b91505092915050565b6000819050919050565b7f4e487b7100000000000000000000000000000000000000000000000000000000600052601160045260246000fd5b600062000891826200084b565b91506200089e836200084b565b9250817fffffffffffffffffffffffffffffffffffffffffffffffffffffffffffffffff0483118215151615620008da57620008d962000855565b5b828202905092915050565b7f4e487b7100000000000000000000000000000000000000000000000000000000600052601260045260246000fd5b600062000921826200084b565b91506200092e836200084b565b925082620009415762000940620008e5565b5b828204905092915050565b600081905092915050565b7f666f6e646174696f6e4665650000000000000000000000000000000000000000600082015250565b60006200098f600c836200094c565b91506200099c8262000957565b600c82019050919050565b6000620009b48262000980565b9150819050919050565b7f65636f73797374656d0000000000000000000000000000000000000000000000600082015250565b6000620009f66009836200094c565b915062000a0382620009be565b600982019050919050565b600062000a1b82620009e7565b9150819050919050565b7f6d61726b6574696e674f696e76657374696d656e740000000000000000000000600082015250565b600062000a5d6015836200094c565b915062000a6a8262000a25565b601582019050919050565b600062000a828262000a4e565b9150819050919050565b7f636f6e73756c74696e6700000000000000000000000000000000000000000000600082015250565b600062000ac4600a836200094c565b915062000ad18262000a8c565b600a82019050919050565b600062000ae98262000ab5565b9150819050919050565b600062000b00826200084b565b915062000b0d836200084b565b9250827fffffffffffffffffffffffffffffffffffffffffffffffffffffffffffffffff0382111562000b455762000b4462000855565b5b828201905092915050565b600082825260208201905092915050565b7f45524332303a206d696e7420746f20746865207a65726f206164647265737300600082015250565b600062000b99601f8362000b50565b915062000ba68262000b61565b602082019050919050565b6000602082019050818103600083015262000bcc8162000b8a565b9050919050565b62000bde816200084b565b82525050565b600060208201905062000bfb600083018462000bd3565b92915050565b7f4e487b7100000000000000000000000000000000000000000000000000000000600052602260045260246000fd5b6000600282049050600182168062000c4957607f821691505b6020821081141562000c605762000c5f62000c01565b5b50919050565b60805160a0516135ca62000cd260003960008181610acc01528181610b4c01528181610b980152818161105e01526119e80152600081816107d201528181610d3e0152818161110001528181611229015281816112b7015281816112f2015261145c01526135ca6000f3fe60806040526004361061019c5760003560e01c80636fea47e3116100ec57806395d89b411161008a578063a457c2d711610064578063a457c2d71461059f578063a9059cbb146105dc578063cdc8510f14610619578063dd62ed3e146106565761019c565b806395d89b41146105205780639e87a5cd1461054b578063a42f5373146105765761019c565b80637d4387a6116100c65780637d4387a61461048757806383197ef0146104b0578063893d20e8146104c75780638bc82c95146104f25761019c565b80636fea47e3146103f657806370a082311461042157806379cc67901461045e5761019c565b806327dea227116101595780633950935111610133578063395093511461032857806342966c681461036557806343a4fac81461038e578063554d578d146103cb5761019c565b806327dea227146102c8578063313ce567146102d2578063341f1f63146102fd5761019c565b806305808a29146101a157806306fdde03146101cf578063095ea7b3146101fa5780631611d50b1461023757806318160ddd1461026057806323b872dd1461028b575b600080fd5b3480156101ad57600080fd5b506101b6610693565b6040516101c6949392919061206e565b60405180910390f35b3480156101db57600080fd5b506101e461071b565b6040516101f1919061214c565b60405180910390f35b34801561020657600080fd5b50610221600480360381019061021c919061220c565b6107ad565b60405161022e9190612267565b60405180910390f35b34801561024357600080fd5b5061025e600480360381019061025991906123b7565b6107d0565b005b34801561026c57600080fd5b506102756109bf565b6040516102829190612426565b60405180910390f35b34801561029757600080fd5b506102b260048036038101906102ad9190612441565b6109c9565b6040516102bf9190612267565b60405180910390f35b6102d06109f8565b005b3480156102de57600080fd5b506102e7610e78565b6040516102f491906124b0565b60405180910390f35b34801561030957600080fd5b50610312610e81565b60405161031f9190612426565b60405180910390f35b34801561033457600080fd5b5061034f600480360381019061034a919061220c565b610f41565b60405161035c9190612267565b60405180910390f35b34801561037157600080fd5b5061038c600480360381019061038791906124cb565b610f78565b005b34801561039a57600080fd5b506103b560048036038101906103b091906124f8565b611018565b6040516103c29190612426565b60405180910390f35b3480156103d757600080fd5b506103e0611046565b6040516103ed9190612426565b60405180910390f35b34801561040257600080fd5b5061040b61108c565b6040516104189190612426565b60405180910390f35b34801561042d57600080fd5b5061044860048036038101906104439190612541565b611096565b6040516104559190612426565b60405180910390f35b34801561046a57600080fd5b506104856004803603810190610480919061220c565b6110de565b005b34801561049357600080fd5b506104ae60048036038101906104a9919061220c565b6110fe565b005b3480156104bc57600080fd5b506104c5611227565b005b3480156104d357600080fd5b506104dc6112ee565b6040516104e9919061257d565b60405180910390f35b3480156104fe57600080fd5b50610507611316565b604051610517949392919061206e565b60405180910390f35b34801561052c57600080fd5b5061053561139e565b604051610542919061214c565b60405180910390f35b34801561055757600080fd5b50610560611430565b60405161056d91906125f7565b60405180910390f35b34801561058257600080fd5b5061059d60048036038101906105989190612541565b61145a565b005b3480156105ab57600080fd5b506105c660048036038101906105c1919061220c565b611563565b6040516105d39190612267565b60405180910390f35b3480156105e857600080fd5b5061060360048036038101906105fe919061220c565b6115da565b6040516106109190612267565b60405180910390f35b34801561062557600080fd5b50610640600480360381019061063b91906124f8565b6115fd565b60405161064d9190612426565b60405180910390f35b34801561066257600080fd5b5061067d60048036038101906106789190612612565b61162b565b60405161068a9190612426565b60405180910390f35b60008060008060076040516106a7906126a9565b90815260200160405180910390205460076040516106c49061270a565b90815260200160405180910390205460076040516106e19061276b565b90815260200160405180910390205460076040516106fe906127cc565b908152602001604051809103902054935093509350935090919293565b60606003805461072a90612810565b80601f016020809104026020016040519081016040528092919081815260200182805461075690612810565b80156107a35780601f10610778576101008083540402835291602001916107a3565b820191906000526020600020905b81548152906001019060200180831161078657829003601f168201915b5050505050905090565b6000806107b8611809565b90506107c5818585611811565b600191505092915050565b7f000000000000000000000000000000000000000000000000000000000000000073ffffffffffffffffffffffffffffffffffffffff163373ffffffffffffffffffffffffffffffffffffffff161461085e576040517f08c379a0000000000000000000000000000000000000000000000000000000008152600401610855906128b4565b60405180910390fd5b80670de0b6b3a7640000836108739190612903565b600782604051610883919061298e565b908152602001604051809103902054816008846040516108a3919061298e565b9081526020016040518091039020546108bc91906129a5565b11156109015781816040517fe8379cc40000000000000000000000000000000000000000000000000000000081526004016108f89291906129fb565b60405180910390fd5b670de0b6b3a7640000846109159190612903565b600884604051610925919061298e565b90815260200160405180910390205461093e91906129a5565b60088460405161094e919061298e565b90815260200160405180910390208190555061097d85670de0b6b3a7640000866109789190612903565b6119dc565b7f2e01b6cac1db8ec7bbba20f52c7971dd718808586f301d3ef4c44df26e9cd21f8585856040516109b093929190612a2b565b60405180910390a15050505050565b6000600254905090565b6000806109d4611809565b90506109e1858285611a6b565b6109ec858585611af7565b60019150509392505050565b3373ffffffffffffffffffffffffffffffffffffffff16313480821015610a4b576040517ff49beaed00000000000000000000000000000000000000000000000000000000815260040160405180910390fd5b600a60149054906101000a900460ff1615610a9b576040517f08c379a0000000000000000000000000000000000000000000000000000000008152600401610a9290612ab5565b60405180910390fd5b6001600a60146101000a81548160ff02191690831515021790555060003490506000670de0b6b3a7640000606460197f0000000000000000000000000000000000000000000000000000000000000000610af59190612903565b610aff9190612b04565b610b099190612903565b6008604051610b179061270a565b9081526020016040518091039020541015610b3d57610b366000611d6f565b9050610c21565b670de0b6b3a7640000606460197f0000000000000000000000000000000000000000000000000000000000000000610b759190612903565b610b7f9190612b04565b610b899190612903565b670de0b6b3a76400006064600f7f0000000000000000000000000000000000000000000000000000000000000000610bc19190612903565b610bcb9190612b04565b610bd59190612903565b610bdf91906129a5565b6008604051610bed9061270a565b9081526020016040518091039020541015610c1357610c0c6001611d6f565b9050610c20565b610c1d6002611d6f565b90505b5b6000670de0b6b3a76400008383610c389190612903565b610c429190612b04565b90506007604051610c529061270a565b908152602001604051809103902054826008604051610c709061270a565b908152602001604051809103902054610c8991906129a5565b1115610cdf57670de0b6b3a764000082610ca39190612b04565b6040517fe8379cc4000000000000000000000000000000000000000000000000000000008152600401610cd69190612b58565b60405180910390fd5b670de0b6b3a764000081610cf39190612903565b6008604051610d019061270a565b908152602001604051809103902054610d1a91906129a5565b6008604051610d289061270a565b90815260200160405180910390208190555060007f000000000000000000000000000000000000000000000000000000000000000073ffffffffffffffffffffffffffffffffffffffff1634604051610d8090612bb7565b60006040518083038185875af1925050503d8060008114610dbd576040519150601f19603f3d011682016040523d82523d6000602084013e610dc2565b606091505b5050905080610dfd576040517fa81dc2e800000000000000000000000000000000000000000000000000000000815260040160405180910390fd5b610e0733836119dc565b7fd69dd5c77c111946fad2dbb4a9f28e2ea0f77d1e9c1223a2ac8a787a3cadbc8e33670de0b6b3a764000084610e3d9190612b04565b85604051610e4d93929190612bcc565b60405180910390a1505050506000600a60146101000a81548160ff0219169083151502179055505050565b60006012905090565b600080600a60009054906101000a900473ffffffffffffffffffffffffffffffffffffffff1673ffffffffffffffffffffffffffffffffffffffff1663feaf968c6040518163ffffffff1660e01b815260040160a06040518083038186803b158015610eec57600080fd5b505afa158015610f00573d6000803e3d6000fd5b505050506040513d601f19601f82011682018060405250810190610f249190612c90565b5050509150506402540be40081610f3b9190612d0b565b91505090565b600080610f4c611809565b9050610f6d818585610f5e858961162b565b610f6891906129a5565b611811565b600191505092915050565b610f8133611096565b8180821015610fbc576040517ff49beaed00000000000000000000000000000000000000000000000000000000815260040160405180910390fd5b82600654610fca91906129a5565b600681905550610fda3384611e7d565b7fda4e31583a2259fe317cadb7a8df04c4ff0072abd596ee177b39d24894a2ec6b338460405161100b929190612e22565b60405180910390a1505050565b6007818051602081018201805184825260208301602085012081835280955050505050506000915090505481565b6000611050610e78565b600a61105c9190612f7e565b7f00000000000000000000000000000000000000000000000000000000000000006110879190612903565b905090565b6000600654905090565b60008060008373ffffffffffffffffffffffffffffffffffffffff1673ffffffffffffffffffffffffffffffffffffffff168152602001908152602001600020549050919050565b6110f0826110ea611809565b83611a6b565b6110fa8282611e7d565b5050565b7f000000000000000000000000000000000000000000000000000000000000000073ffffffffffffffffffffffffffffffffffffffff163373ffffffffffffffffffffffffffffffffffffffff161461118c576040517f08c379a0000000000000000000000000000000000000000000000000000000008152600401611183906128b4565b60405180910390fd5b60065481808210156111ca576040517ff49beaed00000000000000000000000000000000000000000000000000000000815260040160405180910390fd5b826006546111d89190612fc9565b6006819055506111e884846119dc565b7f498789b97a924d6566d2d756b70ef5ea7f0720f0e6ed51845c77eda0afa092cb8484604051611219929190612e22565b60405180910390a150505050565b7f000000000000000000000000000000000000000000000000000000000000000073ffffffffffffffffffffffffffffffffffffffff163373ffffffffffffffffffffffffffffffffffffffff16146112b5576040517f08c379a00000000000000000000000000000000000000000000000000000000081526004016112ac906128b4565b60405180910390fd5b7f000000000000000000000000000000000000000000000000000000000000000073ffffffffffffffffffffffffffffffffffffffff16ff5b60007f0000000000000000000000000000000000000000000000000000000000000000905090565b600080600080600860405161132a906126a9565b90815260200160405180910390205460086040516113479061270a565b90815260200160405180910390205460086040516113649061276b565b9081526020016040518091039020546008604051611381906127cc565b908152602001604051809103902054935093509350935090919293565b6060600480546113ad90612810565b80601f01602080910402602001604051908101604052809291908181526020018280546113d990612810565b80156114265780601f106113fb57610100808354040283529160200191611426565b820191906000526020600020905b81548152906001019060200180831161140957829003601f168201915b5050505050905090565b6000600a60009054906101000a900473ffffffffffffffffffffffffffffffffffffffff16905090565b7f000000000000000000000000000000000000000000000000000000000000000073ffffffffffffffffffffffffffffffffffffffff163373ffffffffffffffffffffffffffffffffffffffff16146114e8576040517f08c379a00000000000000000000000000000000000000000000000000000000081526004016114df906128b4565b60405180910390fd5b80600a60006101000a81548173ffffffffffffffffffffffffffffffffffffffff021916908373ffffffffffffffffffffffffffffffffffffffff1602179055507f0c8ac2008786a97973d123ada788ee2512dac4139ac736ef2994f2b3288d99b581604051611558919061257d565b60405180910390a150565b60008061156e611809565b9050600061157c828661162b565b9050838110156115c1576040517f08c379a00000000000000000000000000000000000000000000000000000000081526004016115b89061306f565b60405180910390fd5b6115ce8286868403611811565b60019250505092915050565b6000806115e5611809565b90506115f2818585611af7565b600191505092915050565b6008818051602081018201805184825260208301602085012081835280955050505050506000915090505481565b6000600160008473ffffffffffffffffffffffffffffffffffffffff1673ffffffffffffffffffffffffffffffffffffffff16815260200190815260200160002060008373ffffffffffffffffffffffffffffffffffffffff1673ffffffffffffffffffffffffffffffffffffffff16815260200190815260200160002054905092915050565b600073ffffffffffffffffffffffffffffffffffffffff168273ffffffffffffffffffffffffffffffffffffffff161415611722576040517f08c379a0000000000000000000000000000000000000000000000000000000008152600401611719906130db565b60405180910390fd5b61172e6000838361204b565b806002600082825461174091906129a5565b92505081905550806000808473ffffffffffffffffffffffffffffffffffffffff1673ffffffffffffffffffffffffffffffffffffffff168152602001908152602001600020600082825401925050819055508173ffffffffffffffffffffffffffffffffffffffff16600073ffffffffffffffffffffffffffffffffffffffff167fddf252ad1be2c89b69c2b068fc378daa952ba7f163c4a11628f55a4df523b3ef836040516117f19190612426565b60405180910390a361180560008383612050565b5050565b600033905090565b600073ffffffffffffffffffffffffffffffffffffffff168373ffffffffffffffffffffffffffffffffffffffff161415611881576040517f08c379a00000000000000000000000000000000000000000000000000000000081526004016118789061316d565b60405180910390fd5b600073ffffffffffffffffffffffffffffffffffffffff168273ffffffffffffffffffffffffffffffffffffffff1614156118f1576040517f08c379a00000000000000000000000000000000000000000000000000000000081526004016118e8906131ff565b60405180910390fd5b80600160008573ffffffffffffffffffffffffffffffffffffffff1673ffffffffffffffffffffffffffffffffffffffff16815260200190815260200160002060008473ffffffffffffffffffffffffffffffffffffffff1673ffffffffffffffffffffffffffffffffffffffff168152602001908152602001600020819055508173ffffffffffffffffffffffffffffffffffffffff168373ffffffffffffffffffffffffffffffffffffffff167f8c5be1e5ebec7d5bd14f71427d1e84f3dd0314c0f7b2291e5b200ac8c7c3b925836040516119cf9190612426565b60405180910390a3505050565b80670de0b6b3a76400007f0000000000000000000000000000000000000000000000000000000000000000611a119190612903565b81611a1a6109bf565b611a2491906129a5565b1115611a5c576040517f3e05993300000000000000000000000000000000000000000000000000000000815260040160405180910390fd5b611a6683836116b2565b505050565b6000611a77848461162b565b90507fffffffffffffffffffffffffffffffffffffffffffffffffffffffffffffffff8114611af15781811015611ae3576040517f08c379a0000000000000000000000000000000000000000000000000000000008152600401611ada9061326b565b60405180910390fd5b611af08484848403611811565b5b50505050565b600073ffffffffffffffffffffffffffffffffffffffff168373ffffffffffffffffffffffffffffffffffffffff161415611b67576040517f08c379a0000000000000000000000000000000000000000000000000000000008152600401611b5e906132fd565b60405180910390fd5b600073ffffffffffffffffffffffffffffffffffffffff168273ffffffffffffffffffffffffffffffffffffffff161415611bd7576040517f08c379a0000000000000000000000000000000000000000000000000000000008152600401611bce9061338f565b60405180910390fd5b611be283838361204b565b60008060008573ffffffffffffffffffffffffffffffffffffffff1673ffffffffffffffffffffffffffffffffffffffff16815260200190815260200160002054905081811015611c68576040517f08c379a0000000000000000000000000000000000000000000000000000000008152600401611c5f90613421565b60405180910390fd5b8181036000808673ffffffffffffffffffffffffffffffffffffffff1673ffffffffffffffffffffffffffffffffffffffff16815260200190815260200160002081905550816000808573ffffffffffffffffffffffffffffffffffffffff1673ffffffffffffffffffffffffffffffffffffffff168152602001908152602001600020600082825401925050819055508273ffffffffffffffffffffffffffffffffffffffff168473ffffffffffffffffffffffffffffffffffffffff167fddf252ad1be2c89b69c2b068fc378daa952ba7f163c4a11628f55a4df523b3ef84604051611d569190612426565b60405180910390a3611d69848484612050565b50505050565b600080600a60009054906101000a900473ffffffffffffffffffffffffffffffffffffffff1673ffffffffffffffffffffffffffffffffffffffff1663feaf968c6040518163ffffffff1660e01b815260040160a06040518083038186803b158015611dda57600080fd5b505afa158015611dee573d6000803e3d6000fd5b505050506040513d601f19601f82011682018060405250810190611e129190612c90565b50505091505060006402540be40082611e2b9190612d0b565b9050600060098560ff1660038110611e4657611e45613441565b5b602091828204019190069054906101000a900460ff1660ff16905060008183611e6f9190612903565b905080945050505050919050565b600073ffffffffffffffffffffffffffffffffffffffff168273ffffffffffffffffffffffffffffffffffffffff161415611eed576040517f08c379a0000000000000000000000000000000000000000000000000000000008152600401611ee4906134e2565b60405180910390fd5b611ef98260008361204b565b60008060008473ffffffffffffffffffffffffffffffffffffffff1673ffffffffffffffffffffffffffffffffffffffff16815260200190815260200160002054905081811015611f7f576040517f08c379a0000000000000000000000000000000000000000000000000000000008152600401611f7690613574565b60405180910390fd5b8181036000808573ffffffffffffffffffffffffffffffffffffffff1673ffffffffffffffffffffffffffffffffffffffff1681526020019081526020016000208190555081600260008282540392505081905550600073ffffffffffffffffffffffffffffffffffffffff168373ffffffffffffffffffffffffffffffffffffffff167fddf252ad1be2c89b69c2b068fc378daa952ba7f163c4a11628f55a4df523b3ef846040516120329190612426565b60405180910390a361204683600084612050565b505050565b505050565b505050565b6000819050919050565b61206881612055565b82525050565b6000608082019050612083600083018761205f565b612090602083018661205f565b61209d604083018561205f565b6120aa606083018461205f565b95945050505050565b600081519050919050565b600082825260208201905092915050565b60005b838110156120ed5780820151818401526020810190506120d2565b838111156120fc576000848401525b50505050565b6000601f19601f8301169050919050565b600061211e826120b3565b61212881856120be565b93506121388185602086016120cf565b61214181612102565b840191505092915050565b600060208201905081810360008301526121668184612113565b905092915050565b6000604051905090565b600080fd5b600080fd5b600073ffffffffffffffffffffffffffffffffffffffff82169050919050565b60006121ad82612182565b9050919050565b6121bd816121a2565b81146121c857600080fd5b50565b6000813590506121da816121b4565b92915050565b6121e981612055565b81146121f457600080fd5b50565b600081359050612206816121e0565b92915050565b6000806040838503121561222357612222612178565b5b6000612231858286016121cb565b9250506020612242858286016121f7565b9150509250929050565b60008115159050919050565b6122618161224c565b82525050565b600060208201905061227c6000830184612258565b92915050565b600080fd5b600080fd5b7f4e487b7100000000000000000000000000000000000000000000000000000000600052604160045260246000fd5b6122c482612102565b810181811067ffffffffffffffff821117156122e3576122e261228c565b5b80604052505050565b60006122f661216e565b905061230282826122bb565b919050565b600067ffffffffffffffff8211156123225761232161228c565b5b61232b82612102565b9050602081019050919050565b82818337600083830152505050565b600061235a61235584612307565b6122ec565b90508281526020810184848401111561237657612375612287565b5b612381848285612338565b509392505050565b600082601f83011261239e5761239d612282565b5b81356123ae848260208601612347565b91505092915050565b6000806000606084860312156123d0576123cf612178565b5b60006123de868287016121cb565b93505060206123ef868287016121f7565b925050604084013567ffffffffffffffff8111156124105761240f61217d565b5b61241c86828701612389565b9150509250925092565b600060208201905061243b600083018461205f565b92915050565b60008060006060848603121561245a57612459612178565b5b6000612468868287016121cb565b9350506020612479868287016121cb565b925050604061248a868287016121f7565b9150509250925092565b600060ff82169050919050565b6124aa81612494565b82525050565b60006020820190506124c560008301846124a1565b92915050565b6000602082840312156124e1576124e0612178565b5b60006124ef848285016121f7565b91505092915050565b60006020828403121561250e5761250d612178565b5b600082013567ffffffffffffffff81111561252c5761252b61217d565b5b61253884828501612389565b91505092915050565b60006020828403121561255757612556612178565b5b6000612565848285016121cb565b91505092915050565b612577816121a2565b82525050565b6000602082019050612592600083018461256e565b92915050565b6000819050919050565b60006125bd6125b86125b384612182565b612598565b612182565b9050919050565b60006125cf826125a2565b9050919050565b60006125e1826125c4565b9050919050565b6125f1816125d6565b82525050565b600060208201905061260c60008301846125e8565b92915050565b6000806040838503121561262957612628612178565b5b6000612637858286016121cb565b9250506020612648858286016121cb565b9150509250929050565b600081905092915050565b7f666f6e646174696f6e4665650000000000000000000000000000000000000000600082015250565b6000612693600c83612652565b915061269e8261265d565b600c82019050919050565b60006126b482612686565b9150819050919050565b7f65636f73797374656d0000000000000000000000000000000000000000000000600082015250565b60006126f4600983612652565b91506126ff826126be565b600982019050919050565b6000612715826126e7565b9150819050919050565b7f6d61726b6574696e674f696e76657374696d656e740000000000000000000000600082015250565b6000612755601583612652565b91506127608261271f565b601582019050919050565b600061277682612748565b9150819050919050565b7f636f6e73756c74696e6700000000000000000000000000000000000000000000600082015250565b60006127b6600a83612652565b91506127c182612780565b600a82019050919050565b60006127d7826127a9565b9150819050919050565b7f4e487b7100000000000000000000000000000000000000000000000000000000600052602260045260246000fd5b6000600282049050600182168061282857607f821691505b6020821081141561283c5761283b6127e1565b5b50919050565b7f4f6e6c7920746865206f776e65722063616e2063616c6c20746869732066756e60008201527f6374696f6e000000000000000000000000000000000000000000000000000000602082015250565b600061289e6025836120be565b91506128a982612842565b604082019050919050565b600060208201905081810360008301526128cd81612891565b9050919050565b7f4e487b7100000000000000000000000000000000000000000000000000000000600052601160045260246000fd5b600061290e82612055565b915061291983612055565b9250817fffffffffffffffffffffffffffffffffffffffffffffffffffffffffffffffff0483118215151615612952576129516128d4565b5b828202905092915050565b6000612968826120b3565b6129728185612652565b93506129828185602086016120cf565b80840191505092915050565b600061299a828461295d565b915081905092915050565b60006129b082612055565b91506129bb83612055565b9250827fffffffffffffffffffffffffffffffffffffffffffffffffffffffffffffffff038211156129f0576129ef6128d4565b5b828201905092915050565b60006040820190508181036000830152612a158185612113565b9050612a24602083018461205f565b9392505050565b6000606082019050612a40600083018661256e565b612a4d602083018561205f565b8181036040830152612a5f8184612113565b9050949350505050565b7f4e6f2072652d656e7472616e6379000000000000000000000000000000000000600082015250565b6000612a9f600e836120be565b9150612aaa82612a69565b602082019050919050565b60006020820190508181036000830152612ace81612a92565b9050919050565b7f4e487b7100000000000000000000000000000000000000000000000000000000600052601260045260246000fd5b6000612b0f82612055565b9150612b1a83612055565b925082612b2a57612b29612ad5565b5b828204905092915050565b6000612b426009836120be565b9150612b4d826126be565b602082019050919050565b60006040820190508181036000830152612b7181612b35565b9050612b80602083018461205f565b92915050565b600081905092915050565b50565b6000612ba1600083612b86565b9150612bac82612b91565b600082019050919050565b6000612bc282612b94565b9150819050919050565b6000606082019050612be1600083018661256e565b612bee602083018561205f565b612bfb604083018461205f565b949350505050565b600069ffffffffffffffffffff82169050919050565b612c2281612c03565b8114612c2d57600080fd5b50565b600081519050612c3f81612c19565b92915050565b6000819050919050565b612c5881612c45565b8114612c6357600080fd5b50565b600081519050612c7581612c4f565b92915050565b600081519050612c8a816121e0565b92915050565b600080600080600060a08688031215612cac57612cab612178565b5b6000612cba88828901612c30565b9550506020612ccb88828901612c66565b9450506040612cdc88828901612c7b565b9350506060612ced88828901612c7b565b9250506080612cfe88828901612c30565b9150509295509295909350565b6000612d1682612c45565b9150612d2183612c45565b9250827f7fffffffffffffffffffffffffffffffffffffffffffffffffffffffffffffff0482116000841360008413161615612d6057612d5f6128d4565b5b817f80000000000000000000000000000000000000000000000000000000000000000583126000841260008413161615612d9d57612d9c6128d4565b5b827f80000000000000000000000000000000000000000000000000000000000000000582126000841360008412161615612dda57612dd96128d4565b5b827f7fffffffffffffffffffffffffffffffffffffffffffffffffffffffffffffff0582126000841260008412161615612e1757612e166128d4565b5b828202905092915050565b6000604082019050612e37600083018561256e565b612e44602083018461205f565b9392505050565b60008160011c9050919050565b6000808291508390505b6001851115612ea257808604811115612e7e57612e7d6128d4565b5b6001851615612e8d5780820291505b8081029050612e9b85612e4b565b9450612e62565b94509492505050565b600082612ebb5760019050612f77565b81612ec95760009050612f77565b8160018114612edf5760028114612ee957612f18565b6001915050612f77565b60ff841115612efb57612efa6128d4565b5b8360020a915084821115612f1257612f116128d4565b5b50612f77565b5060208310610133831016604e8410600b8410161715612f4d5782820a905083811115612f4857612f476128d4565b5b612f77565b612f5a8484846001612e58565b92509050818404811115612f7157612f706128d4565b5b81810290505b9392505050565b6000612f8982612055565b9150612f9483612494565b9250612fc17fffffffffffffffffffffffffffffffffffffffffffffffffffffffffffffffff8484612eab565b905092915050565b6000612fd482612055565b9150612fdf83612055565b925082821015612ff257612ff16128d4565b5b828203905092915050565b7f45524332303a2064656372656173656420616c6c6f77616e63652062656c6f7760008201527f207a65726f000000000000000000000000000000000000000000000000000000602082015250565b60006130596025836120be565b915061306482612ffd565b604082019050919050565b600060208201905081810360008301526130888161304c565b9050919050565b7f45524332303a206d696e7420746f20746865207a65726f206164647265737300600082015250565b60006130c5601f836120be565b91506130d08261308f565b602082019050919050565b600060208201905081810360008301526130f4816130b8565b9050919050565b7f45524332303a20617070726f76652066726f6d20746865207a65726f2061646460008201527f7265737300000000000000000000000000000000000000000000000000000000602082015250565b60006131576024836120be565b9150613162826130fb565b604082019050919050565b600060208201905081810360008301526131868161314a565b9050919050565b7f45524332303a20617070726f766520746f20746865207a65726f20616464726560008201527f7373000000000000000000000000000000000000000000000000000000000000602082015250565b60006131e96022836120be565b91506131f48261318d565b604082019050919050565b60006020820190508181036000830152613218816131dc565b9050919050565b7f45524332303a20696e73756666696369656e7420616c6c6f77616e6365000000600082015250565b6000613255601d836120be565b91506132608261321f565b602082019050919050565b6000602082019050818103600083015261328481613248565b9050919050565b7f45524332303a207472616e736665722066726f6d20746865207a65726f20616460008201527f6472657373000000000000000000000000000000000000000000000000000000602082015250565b60006132e76025836120be565b91506132f28261328b565b604082019050919050565b60006020820190508181036000830152613316816132da565b9050919050565b7f45524332303a207472616e7366657220746f20746865207a65726f206164647260008201527f6573730000000000000000000000000000000000000000000000000000000000602082015250565b60006133796023836120be565b91506133848261331d565b604082019050919050565b600060208201905081810360008301526133a88161336c565b9050919050565b7f45524332303a207472616e7366657220616d6f756e742065786365656473206260008201527f616c616e63650000000000000000000000000000000000000000000000000000602082015250565b600061340b6026836120be565b9150613416826133af565b604082019050919050565b6000602082019050818103600083015261343a816133fe565b9050919050565b7f4e487b7100000000000000000000000000000000000000000000000000000000600052603260045260246000fd5b7f45524332303a206275726e2066726f6d20746865207a65726f2061646472657360008201527f7300000000000000000000000000000000000000000000000000000000000000602082015250565b60006134cc6021836120be565b91506134d782613470565b604082019050919050565b600060208201905081810360008301526134fb816134bf565b9050919050565b7f45524332303a206275726e20616d6f756e7420657863656564732062616c616e60008201527f6365000000000000000000000000000000000000000000000000000000000000602082015250565b600061355e6022836120be565b915061356982613502565b604082019050919050565b6000602082019050818103600083015261358d81613551565b905091905056fea264697066735822122076383f3267170ab8cda54a3430b5939a30021ed6d9463786dc6733df9b98435d64736f6c63430008090033",
  "devdoc": {
    "author": "Samuele Chiesa",
    "details": "The contract uses openzeppeling lib",
    "kind": "dev",
    "methods": {
      "aggregatorUpgrade(address)": {
        "details": "AggregatorV3Interface is the base of the mint from Matic",
        "params": {
          "newpriceFeedAdd": "New address AggregatorV3Interface"
        }
      },
      "allowance(address,address)": {
        "details": "See {IERC20-allowance}."
      },
      "approve(address,uint256)": {
        "details": "See {IERC20-approve}. NOTE: If `amount` is the maximum `uint256`, the allowance is not updated on `transferFrom`. This is semantically equivalent to an infinite approval. Requirements: - `spender` cannot be the zero address."
      },
      "balanceOf(address)": {
        "details": "See {IERC20-balanceOf}."
      },
      "burn(uint256)": {
        "params": {
          "amount": "The number of token will burn is already*1e18"
        }
      },
      "burnFrom(address,uint256)": {
        "details": "Destroys `amount` tokens from `account`, deducting from the caller's allowance. See {ERC20-_burn} and {ERC20-allowance}. Requirements: - the caller must have allowance for ``accounts``'s tokens of at least `amount`."
      },
      "constructor": {
        "details": "In the constructor are define the mint cap for each entites and the mint state",
        "params": {
          "priceFeedAdd": "Address AggregatorV3Interface"
        }
      },
      "decimals()": {
        "details": "Returns the number of decimals used to get its user representation. For example, if `decimals` equals `2`, a balance of `505` tokens should be displayed to a user as `5.05` (`505 / 10 ** 2`). Tokens usually opt for a value of 18, imitating the relationship between Ether and Wei. This is the value {ERC20} uses, unless this function is overridden; NOTE: This information is only used for _display_ purposes: it in no way affects any of the arithmetic of the contract, including {IERC20-balanceOf} and {IERC20-transfer}."
      },
      "decreaseAllowance(address,uint256)": {
        "details": "Atomically decreases the allowance granted to `spender` by the caller. This is an alternative to {approve} that can be used as a mitigation for problems described in {IERC20-approve}. Emits an {Approval} event indicating the updated allowance. Requirements: - `spender` cannot be the zero address. - `spender` must have allowance for the caller of at least `subtractedValue`."
      },
      "getBurned()": {
        "returns": {
          "_0": "return the owner of the contract"
        }
      },
      "getCap()": {
        "returns": {
          "_0": "return the maximum capilazation"
        }
      },
      "getMaticRate()": {
        "details": "The function are create for the test"
      },
      "getMinter4amount()": {
        "details": "The function are create for the test"
      },
      "getMinter4minted()": {
        "details": "The function are create for the test"
      },
      "getOwner()": {
        "returns": {
          "_0": "return the owner of the contract"
        }
      },
      "getPriceFeed()": {
        "details": "The function are create for the test"
      },
      "increaseAllowance(address,uint256)": {
        "details": "Atomically increases the allowance granted to `spender` by the caller. This is an alternative to {approve} that can be used as a mitigation for problems described in {IERC20-approve}. Emits an {Approval} event indicating the updated allowance. Requirements: - `spender` cannot be the zero address."
      },
      "mintBurn(address,uint256)": {
        "params": {
          "account": "The account will recieve the money",
          "amount": "The number of token will sent to the account (is already *1e18)"
        }
      },
      "mintDirectly(address,uint256,string)": {
        "details": "Only the owner can call this function and the state of mint will upgrade",
        "params": {
          "_amount": "The number of token will sent to the account",
          "account": "The account will recieve the money",
          "typeMining": "In base of the type choose between: fondationFee, ecosystem, marketingOinvestiment and developing"
        }
      },
      "mintFromMatic()": {
        "details": "Based on the number of matic and mint level, the number of tokens to be sent is defined"
      },
      "name()": {
        "details": "Returns the name of the token."
      },
      "symbol()": {
        "details": "Returns the symbol of the token, usually a shorter version of the name."
      },
      "totalSupply()": {
        "details": "See {IERC20-totalSupply}."
      },
      "transfer(address,uint256)": {
        "details": "See {IERC20-transfer}. Requirements: - `to` cannot be the zero address. - the caller must have a balance of at least `amount`."
      },
      "transferFrom(address,address,uint256)": {
        "details": "See {IERC20-transferFrom}. Emits an {Approval} event indicating the updated allowance. This is not required by the EIP. See the note at the beginning of {ERC20}. NOTE: Does not update the allowance if the current allowance is the maximum `uint256`. Requirements: - `from` and `to` cannot be the zero address. - `from` must have a balance of at least `amount`. - the caller must have allowance for ``from``'s tokens of at least `amount`."
      }
    },
    "title": "BLUE BIRD ERC20",
    "version": 1
  },
  "userdoc": {
    "kind": "user",
    "methods": {
      "aggregatorUpgrade(address)": {
        "notice": "AggregatorV3Interface upgrade allows to upgrade the contract from which we take the Matic/USD exchange rate  "
      },
      "burn(uint256)": {
        "notice": "The function allows to burn tokens"
      },
      "mintBurn(address,uint256)": {
        "notice": "The function allows previously burned tokens to be mint"
      },
      "mintDirectly(address,uint256,string)": {
        "notice": "mintDirectly allows the contract owner to distribute the tokens directly to any investors and all other entities. "
      },
      "mintFromMatic()": {
        "notice": "The function allows to mint tokens by sending Matic"
      }
    },
    "notice": "The contract is write for Marco Liu, creator of BlueBird project. This code had the scope to create a new token ERC20",
    "version": 1
  },
  "storageLayout": {
    "storage": [
      {
        "astId": 61,
        "contract": "contracts/BlueBird.sol:BlueBird",
        "label": "_balances",
        "offset": 0,
        "slot": "0",
        "type": "t_mapping(t_address,t_uint256)"
      },
      {
        "astId": 67,
        "contract": "contracts/BlueBird.sol:BlueBird",
        "label": "_allowances",
        "offset": 0,
        "slot": "1",
        "type": "t_mapping(t_address,t_mapping(t_address,t_uint256))"
      },
      {
        "astId": 69,
        "contract": "contracts/BlueBird.sol:BlueBird",
        "label": "_totalSupply",
        "offset": 0,
        "slot": "2",
        "type": "t_uint256"
      },
      {
        "astId": 71,
        "contract": "contracts/BlueBird.sol:BlueBird",
        "label": "_name",
        "offset": 0,
        "slot": "3",
        "type": "t_string_storage"
      },
      {
        "astId": 73,
        "contract": "contracts/BlueBird.sol:BlueBird",
        "label": "_symbol",
        "offset": 0,
        "slot": "4",
        "type": "t_string_storage"
      },
      {
        "astId": 1132,
        "contract": "contracts/BlueBird.sol:BlueBird",
        "label": "initialized",
        "offset": 0,
        "slot": "5",
        "type": "t_bool"
      },
      {
        "astId": 1134,
        "contract": "contracts/BlueBird.sol:BlueBird",
        "label": "burned",
        "offset": 0,
        "slot": "6",
        "type": "t_uint256"
      },
      {
        "astId": 1138,
        "contract": "contracts/BlueBird.sol:BlueBird",
        "label": "minter4amount",
        "offset": 0,
        "slot": "7",
        "type": "t_mapping(t_string_memory_ptr,t_uint256)"
      },
      {
        "astId": 1142,
        "contract": "contracts/BlueBird.sol:BlueBird",
        "label": "minter4minted",
        "offset": 0,
        "slot": "8",
        "type": "t_mapping(t_string_memory_ptr,t_uint256)"
      },
      {
        "astId": 1150,
        "contract": "contracts/BlueBird.sol:BlueBird",
        "label": "miningPrice",
        "offset": 0,
        "slot": "9",
        "type": "t_array(t_uint8)3_storage"
      },
      {
        "astId": 1153,
        "contract": "contracts/BlueBird.sol:BlueBird",
        "label": "priceFeed",
        "offset": 0,
        "slot": "10",
        "type": "t_contract(AggregatorV3Interface)45"
      },
      {
        "astId": 1155,
        "contract": "contracts/BlueBird.sol:BlueBird",
        "label": "locked",
        "offset": 20,
        "slot": "10",
        "type": "t_bool"
      }
    ],
    "types": {
      "t_address": {
        "encoding": "inplace",
        "label": "address",
        "numberOfBytes": "20"
      },
      "t_array(t_uint8)3_storage": {
        "base": "t_uint8",
        "encoding": "inplace",
        "label": "uint8[3]",
        "numberOfBytes": "32"
      },
      "t_bool": {
        "encoding": "inplace",
        "label": "bool",
        "numberOfBytes": "1"
      },
      "t_contract(AggregatorV3Interface)45": {
        "encoding": "inplace",
        "label": "contract AggregatorV3Interface",
        "numberOfBytes": "20"
      },
      "t_mapping(t_address,t_mapping(t_address,t_uint256))": {
        "encoding": "mapping",
        "key": "t_address",
        "label": "mapping(address => mapping(address => uint256))",
        "numberOfBytes": "32",
        "value": "t_mapping(t_address,t_uint256)"
      },
      "t_mapping(t_address,t_uint256)": {
        "encoding": "mapping",
        "key": "t_address",
        "label": "mapping(address => uint256)",
        "numberOfBytes": "32",
        "value": "t_uint256"
      },
      "t_mapping(t_string_memory_ptr,t_uint256)": {
        "encoding": "mapping",
        "key": "t_string_memory_ptr",
        "label": "mapping(string => uint256)",
        "numberOfBytes": "32",
        "value": "t_uint256"
      },
      "t_string_memory_ptr": {
        "encoding": "bytes",
        "label": "string",
        "numberOfBytes": "32"
      },
      "t_string_storage": {
        "encoding": "bytes",
        "label": "string",
        "numberOfBytes": "32"
      },
      "t_uint256": {
        "encoding": "inplace",
        "label": "uint256",
        "numberOfBytes": "32"
      },
      "t_uint8": {
        "encoding": "inplace",
        "label": "uint8",
        "numberOfBytes": "1"
      }
    }
  }
}