{
  "address": "0x779ae3714dbd99A29C6488c1B5Db7326663A1731",
  "abi": [
    {
      "inputs": [
        {
          "internalType": "address",
          "name": "_implementation",
          "type": "address"
        }
      ],
      "stateMutability": "nonpayable",
      "type": "constructor"
    },
    {
      "inputs": [
        {
          "internalType": "bytes",
          "name": "_data",
          "type": "bytes"
        }
      ],
      "name": "execute",
      "outputs": [],
      "stateMutability": "nonpayable",
      "type": "function"
    },
    {
      "inputs": [],
      "name": "implementation",
      "outputs": [
        {
          "internalType": "address",
          "name": "",
          "type": "address"
        }
      ],
      "stateMutability": "view",
      "type": "function"
    },
    {
      "inputs": [],
      "name": "owner",
      "outputs": [
        {
          "internalType": "address",
          "name": "",
          "type": "address"
        }
      ],
      "stateMutability": "view",
      "type": "function"
    },
    {
      "inputs": [
        {
          "internalType": "address",
          "name": "_implementation",
          "type": "address"
        }
      ],
      "name": "upgradeTo",
      "outputs": [],
      "stateMutability": "nonpayable",
      "type": "function"
    }
  ],
  "transactionHash": "0x6311c414165008cb98cada8a73e0899d389da32fe53587621003bfb71fb42a74",
  "args": [
    "0x5dEFec24d9b15293e0F507C6466Ea09e494324Cc"
  ],
  "numDeployments": 1,
  "solcInputHash": "a3eddf28466b58df34bf83bc1736b4b3",
  "bytecode": "0x60a060405234801561001057600080fd5b506040516107983803806107988339818101604052810190610032919061010f565b3373ffffffffffffffffffffffffffffffffffffffff1660808173ffffffffffffffffffffffffffffffffffffffff1681525050806000806101000a81548173ffffffffffffffffffffffffffffffffffffffff021916908373ffffffffffffffffffffffffffffffffffffffff1602179055505061013c565b600080fd5b600073ffffffffffffffffffffffffffffffffffffffff82169050919050565b60006100dc826100b1565b9050919050565b6100ec816100d1565b81146100f757600080fd5b50565b600081519050610109816100e3565b92915050565b600060208284031215610125576101246100ac565b5b6000610133848285016100fa565b91505092915050565b60805161063a61015e600039600081816101610152610256015261063a6000f3fe608060405234801561001057600080fd5b506004361061004c5760003560e01c806309c5eabe146100515780633659cfe61461006d5780635c60da1b146100895780638da5cb5b146100a7575b600080fd5b61006b600480360381019061006691906103d2565b6100c5565b005b61008760048036038101906100829190610479565b61015f565b005b610091610230565b60405161009e91906104b5565b60405180910390f35b6100af610254565b6040516100bc91906104b5565b60405180910390f35b60008060009054906101000a900473ffffffffffffffffffffffffffffffffffffffff1673ffffffffffffffffffffffffffffffffffffffff168260405161010d919061054a565b600060405180830381855af49150503d8060008114610148576040519150601f19603f3d011682016040523d82523d6000602084013e61014d565b606091505b505090508061015b57600080fd5b5050565b7f000000000000000000000000000000000000000000000000000000000000000073ffffffffffffffffffffffffffffffffffffffff163373ffffffffffffffffffffffffffffffffffffffff16146101ed576040517f08c379a00000000000000000000000000000000000000000000000000000000081526004016101e4906105e4565b60405180910390fd5b806000806101000a81548173ffffffffffffffffffffffffffffffffffffffff021916908373ffffffffffffffffffffffffffffffffffffffff16021790555050565b60008054906101000a900473ffffffffffffffffffffffffffffffffffffffff1681565b7f000000000000000000000000000000000000000000000000000000000000000081565b6000604051905090565b600080fd5b600080fd5b600080fd5b600080fd5b6000601f19601f8301169050919050565b7f4e487b7100000000000000000000000000000000000000000000000000000000600052604160045260246000fd5b6102df82610296565b810181811067ffffffffffffffff821117156102fe576102fd6102a7565b5b80604052505050565b6000610311610278565b905061031d82826102d6565b919050565b600067ffffffffffffffff82111561033d5761033c6102a7565b5b61034682610296565b9050602081019050919050565b82818337600083830152505050565b600061037561037084610322565b610307565b90508281526020810184848401111561039157610390610291565b5b61039c848285610353565b509392505050565b600082601f8301126103b9576103b861028c565b5b81356103c9848260208601610362565b91505092915050565b6000602082840312156103e8576103e7610282565b5b600082013567ffffffffffffffff81111561040657610405610287565b5b610412848285016103a4565b91505092915050565b600073ffffffffffffffffffffffffffffffffffffffff82169050919050565b60006104468261041b565b9050919050565b6104568161043b565b811461046157600080fd5b50565b6000813590506104738161044d565b92915050565b60006020828403121561048f5761048e610282565b5b600061049d84828501610464565b91505092915050565b6104af8161043b565b82525050565b60006020820190506104ca60008301846104a6565b92915050565b600081519050919050565b600081905092915050565b60005b838110156105045780820151818401526020810190506104e9565b83811115610513576000848401525b50505050565b6000610524826104d0565b61052e81856104db565b935061053e8185602086016104e6565b80840191505092915050565b60006105568284610519565b915081905092915050565b600082825260208201905092915050565b7f4f6e6c7920746865206f776e65722063616e2063616c6c20746869732066756e60008201527f6374696f6e000000000000000000000000000000000000000000000000000000602082015250565b60006105ce602583610561565b91506105d982610572565b604082019050919050565b600060208201905081810360008301526105fd816105c1565b905091905056fea264697066735822122023b55d2fe996163f28ef561c34d540493ed8ed06953e8c159b246da2aa4a0f2b64736f6c63430008090033",
  "devdoc": {
    "kind": "dev",
    "methods": {},
    "version": 1
  },
  "userdoc": {
    "kind": "user",
    "methods": {},
    "version": 1
  },
  "storageLayout": {
    "storage": [
      {
        "astId": 1201,
        "contract": "contracts/proxy.sol:Proxy",
        "label": "implementation",
        "offset": 0,
        "slot": "0",
        "type": "t_address"
      }
    ],
    "types": {
      "t_address": {
        "encoding": "inplace",
        "label": "address",
        "numberOfBytes": "20"
      }
    }
  }
}